:02000000ff00ff
:080002004c6174746963650030
:17000a00694345637562653220323031372e30382e32373934300069
:16002100506172743a2069434534304858314b2d545131343400fc
:1b003700446174653a204d617920313920323031392030373a31313a30390073
:0200520000ffad
:040054007eaa997e69
:02005800510055
:02005a0001059e
:03005c00920020ef
:03005f0062014bf0
:0300620072009099
:0300650082000016
:02006800110085
:02006a00010192
:20006c00000000000000000000000000000000000000000000000000000000000000000074
:09008c000000000000000000006b
:2000950000000000000000000000000000000000000000000000000000000000000000004b
:0a00b5000000000000000000000041
:2000bf00000000000000000000000000000000000000000000000000000000000000000021
:0900df00000000400000000000d8
:2000e8000000000000000000000000000000000000000000000000000000000000000000f8
:0a01080000000000000000000000ed
:2001120000000000000000000000008000000000000000000000000000000000000000004d
:09013200000000000000000000c4
:20013b0000000000000000000000000500000000000000000000000000000000000000009f
:0a015b000000000000010000000099
:200165000000000000040000000000001000000000000040000000001000000000000040d6
:0901850000000040000000000031
:20018e00000000000000000000000000000000000000000000000000000000000000000051
:0a01ae000000000000000000000047
:2001b800000000000004000000000000100000000000004000000000106000000000004023
:0901d8000000000000010000001d
:2001e1000000000000000000000000000000000000000000000000000000000000000000fe
:0a02010000000000000000000000f3
:20020b000000000000000000000000000008000000000000000000000000000000000000cb
:09022b00000000000000000000ca
:200234000000000000000000000000000000c00000000000000000000000000000000000ea
:0a02540000000000000000000000a0
:20025e00000000000000000000000000000000000000000000000000000000000000000080
:09027e0000000000000000000077
:20028700000000000000000000000000000000000000000000000000000000000000000057
:0a02a700000000000000000000004d
:2002b10000000000000000000000000000000000000000000000000000000000000000002d
:0902d10000000000000000000024
:2002da00000000000000000000000000000000000000000000000000000000000000000004
:0a02fa0000000000000000000000fa
:200304000000000000000000000000000000000000000000000000000000000000000000d9
:09032400000000000000000000d0
:20032d00000000000000000000000000000000000040000000000000000000000000000070
:0a034d0000000000000000000000a6
:20035700000200000000000000000000000000000000000000000000000000000000000084
:090377000000000000000000007d
:2003800000000000000000000000000000000000000000000000000000000000000000005d
:0a03a0000000000000000000000053
:2003aa00300300000000000000000000000000000000000000000000000000000000000000
:0903ca000000000000000000002a
:2003d3000300200000000000000000000000000000000000000000000000000000000000e7
:0a03f3000000000000000000000000
:2003fd000002000000000000000000000000000000000000000000000000000000000000de
:09041d00000000000000000000d6
:20042600000020000000000000000000000000000000000000000000000000000000000096
:0a04460000000000000000000000ac
:2004500000000000000000000000000000000000000000000000000000000000000000008c
:0904700000000000000000000083
:20047900000020000000000000000000000000000000000000000000000000000000000043
:0a0499000000000000000000000059
:2004a300000000000000000000000000000000000000000000000000000000000000000039
:0904c30000000000000000000030
:2004cc00000000000000000000000000000000000000000000000000000000000000000010
:0a04ec000000000000000000000006
:2004f6000000000000000000000000000000000000000000000000000000000000000000e6
:09051600000000000000000000dc
:20051f000000000000000000000000000000000000000000000000000000000000000000bc
:0a053f0000000000000000000000b2
:2005490000040000000000000000000000000000000000000000000000000000000000008e
:0905690000000000000000000089
:200572000002800000000000000000000000000000000000000000000000000000000000e7
:0a059200000000000000000000005f
:20059c0000010000000000000000000000000000000000000002000000000000000000003c
:0905bc0000000000000000000036
:2005c5000000000000000000000000000000000000000000000040000000000000000000d6
:0a05e500000000000000000000000c
:2005ef000003000000000000000000000000000000000000000000000000000000000000e9
:09060f00000000000000000000e2
:200618000000000000000000000000000000000000000000000000000000000000000000c2
:0a06380000000000000000000000b8
:20064200000000000000000000000000000000000000000000000000000000000000000098
:090662000000000000000000008f
:20066b0000002000000000000000000000000000000000000000000000000000000000004f
:0a068b000000000000000000000065
:20069500000200000000000000000000000000000000000000000000000000000000000043
:0906b5000000000000000000003c
:2006be0000000000000000000000000000000000000000000000000000000000000000001c
:0a06de000000000000000000000012
:2006e8000000000000000000000000000000000000000000000000000000000000000000f2
:09070800000000000000000000e8
:200711000000200000000000000000000000000000000000000000000000000000000000a8
:0a07310000000000000000000000be
:20073b0000000000000000000000000000000000000000000000000000000000000000009e
:09075b0000000000000000000095
:20076400000000000000000000000000000000000000000000000000000000000000000075
:0a078400000000000000000000006b
:20078e0000000000000000000000000000000000000000000000000000000000000000004b
:0907ae0000000000000000000042
:2007b700000000000000000000000000000000000000000000000000000000000000000022
:0a07d7000000000000000000000018
:2007e1000000000000000000000000000000000000000000000000000000000000000000f8
:09080100000000000000000000ee
:20080a000000000000000000000000000000000000000000000000000000000000000000ce
:0a082a0000000000000000000000c4
:200834000000000000000000000000000000000000000000000000000000000000000000a4
:090854000000000000000000009b
:20085d0000000000000000000000000000000000004000000000000000000000000000003b
:0a087d000000000000000000000071
:200887000002000000000000000000000000000000000000006000000000000000000000ef
:0908a70000000000000000000048
:2008b000000000000000000000000000000000000000000000000000000000000000000028
:0a08d000000000000000000000001e
:2008da0000000000000000000000000000000000000000000000000040af040010000000fb
:0908fa00000000000000000000f5
:200903000000000000000000000000000000000000000000000000003c10f0100000000088
:0a09230000000000000000000000ca
:20092d000002000000000000000000000000000000000000000000000000000000000000a8
:09094d00000000000000000000a1
:20095600000000000000000000000000000000000000000000000000000000000000000081
:0a0976000000000000000000000077
:200980000000000000000000000000000000000000800000000000000000000000000000d7
:0909a0000000000000000000004e
:2009a9000000200000000000000000000000000000000000000000000000000000280000e6
:0a09c9000000000000000000000024
:2009d3000000000000000000000000000000000000000000000000000000000008000000fc
:0909f300000000000000000000fb
:2009fc000000000000000000000000000000000000000000000000000000000000000000db
:0a0a1c0000000000000000000000d0
:200a26000000000000000000000000000000000000000000000000000000000000000000b0
:090a460000000040000000000067
:200a4f00000000000000000000000000000000000000000000000000000000000000000087
:0a0a6f00000000000000000000007d
:200a790000000000000000000000000000000000000000000000000000000000000000005d
:090a990000000000000000000054
:200aa20000000000000000000000000000000000000000000000000000000000002800000c
:0a0ac200000000000000000000002a
:200acc000000000000000000000002003ce634000000000000000000000000000080000032
:090aec00000008042020000000b5
:200af50000000000000000000000001c00ecc30040000000000000000000000000000000d6
:0a0b15000000000801c0000000000d
:200b1f0000000000000000000060020000000000000000000000000036e1a001800000001c
:090b3f000000060020005e7b00ae
:200b4800000000000000000000000004000000000000000000000000015fda00000000004f
:0a0b680000000000024014c1e0008c
:200b7200000000000000000000400003800000000000000000000000000000000000007b25
:090b9200955020001e0008c0422d
:200b9b000000000000000000000c800040000000000000000000000000000000000000006e
:0a0bbb00415401000062410c0000eb
:200bc50000020000000000000000000000000000000000000000014000000000400000008d
:090be5000000000000005e6f003a
:200bee00010000000000000000000000240000000000000000000036000000000400000088
:0a0c0e0000000000000014c7e00021
:200c180000000000000000000000020057f6341000000000000000030000000000800000a6
:090c380000000000040008c042a5
:200c41000000200000000000000200043478c30100000000000200004000000008000000b3
:0a0c6100000000200020010c00003c
:200c6b00000000000000000000000200000000000000000000000200000000000000000065
:090c8b0000000000e0701c2e00c6
:200c940000000000000000000000002c00000000000000000000003c0000000000000000d8
:0a0cb400000000001c4434f1d004dd
:200cbe00000000000000000000000200000000000000000000000042800000000000010051
:090cde00000000000007ca5a00e2
:200ce70000000000000000000002002c3800000000000000000000042800000008000080d3
:0a0d07000000002000020f0550005c
:200d1100000000000000000000c000061ec2540000000000000000000ee85003000000007f
:090d310000000c801e0358ab0207
:200d3a0000000000000000000008000031ffe501400000000000000001cde50022803000b6
:0a0d5a000000008000002c00700073
:200d640000012000000000000080000000ef040000001f30408001420ee8500200081a77a8
:090d84008294004416024df100b6
:200d8d000000000000000000000000000000f000000001f5ac000000417fe500021810e104
:0a0dad00e4100400000315bb010070
:200db70000021800700000000060040000af0401800818800060006015bd1201802800937a
:090dd7009410000e807800000069
:200de0000000000000000000000000800000f0000000710d0000000003c8f0000001500fea
:0a0e00003484000004040000000028
:200e0a00000030000000000000d001e0200a540100031f900000004600000003001018f74e
:090e2a00831000023e7d7c800073
:200e330000000300000000000004000000c05a00100000bb810000000000000010280001f9
:0a0e5300e400800005c2a7b0000013
:200e5d00000200000000000000000000200a540000000f800000e0c00ce5f0081000009a33
:090e7d00849000001c7edae302ff
:200e860000000080000000000000000003c05a00000001f9000000000260ff0000b0000f95
:0a0ea6007e8000000027e60830807f
:200eb0000000000000000000000000000000000000000e50000002007eedf02000001d9793
:090ed000c1d000021c3aca8400e2
:200ed90000002080000000000002000030000000080001078002002c34e0ff00080001d37a
:0a0ef900f820042004265cf44000f9
:200f0300000000000000000000000200000a54100005010000000207aec154000388000001
:090f23000000004c00297a420292
:200f2c000000000000000000000000142bc05a00000000ff0000001424681a000000100083
:0a0f4c000000000800001e00100065
:200f56000000000001c063c10000020001ef0400000f803800000166deeff00400818100af
:090f76000000000020380000001a
:200f7f00000000800010003c000200142800f000400058ad0002002c3f405f00080000807f
:0a0f9f0000000020014400000000e3
:200fa90000000000000000000000000041cf04110000000000c00a007cf0800300038100c6
:090fc9000000000094035a8500a9
:200fd2000000000000000000000000142810f000100000070008005437e80000200008d039
:0a0ff20000000000140024be5100ae
:200ffc000400000081892a81000000000000000000079ed0200003c30faf500600001f3f4f
:09101c00294000041e39788010ff
:20102500000000000100183d5000001c0000000002c0090f280000262c00f500000001bbe4
:0a1045004154400003c405c0000040
:20104f0000001800800160150060a1e00cea000180000e000064c14281e0f401828980d2f3
:09106f001540000a806d6eb90005
:201078000000000807000001500000000010a008004000070000800230100f0000b810015f
:0a1098004280000013c297d38000cd
:2010a20000003000999833d500c001e780000000000b80d800000003fc8d10000005885ab7
:0910c20020008000007bfacc0044
:2010cb00000003000999103eb04400027c00000000007803800000007cdff0000000090d44
:0a10eb00c00000000346f6d33010e9
:2010f500080200008009aa81000000004000000023058000000000062490000002000b86e8
:09111500b4408002806e5d4c00c4
:20111e0000000000010a503e9000003430000000010000c90000003402581000800001fb40
:0a113e00438804001643fca11000d2
:2011480000000000180baa810004020047e8001028070010000001c024d0000000000107f8
:091168007c40104020264a0c02d4
:20117100000020002000143d5000a00c355800080100000f00000002024b10000000008d40
:0a1191007bc8800001d39f01c0005d
:20119b00000000001809aa81000000602ce2542000000000000001c04fea502010570880ad
:0911bb0019908000000678330051
:2011c400000000000000f43e9000000000d0da080000f003000000262360a70000820101d0
:0a11e4000264840003c376fcc0001f
:2011ee000000000001cf6a810000000217ca000000000e80000000071ffc00000000009ff4
:09120e009550000200204ab802cc
:20121700000000000500143d500000004020a0080000f00500004024035be400000000016d
:0a12370043c0000000027503c00070
:20124100000030000010000000c000073eac110300078e800000034201ca00030001197ec8
:09126100155010801e06dd33005b
:20126a00000002000008000000080000797bc000300000090000001c65c050002000008034
:0a128a00815422040002a7fcc000fa
:20129400000000000000000000000007dcaa040000500000008001400000000000059e777e
:0912b400c6800000007afc5f0016
:2012bd0000000000000000000000000079f0fa400040000000008002000000000000089f05
:0a12dd00fcf8000000043e00500081
:2012e70000001800000bbd41006000004fea040000000000006000004fc8500180050117c4
:09130700c05006000000000000c7
:2013100000000000000b3bc4900000042bc0f540000000000000002421dae501000000fffb
:0a133000ed5401000a400000000027
:20133a0000001000000fbd4100c001671dafa400000000000000000295e0a000002180ff27
:09135a005ec000002002c09900f1
:20136300000002000000b648504400007830fa41000000000000000400100a000000780756
:0a13830066ec000000c02ee0000040
:20138d00000200000010000000c002003d80021000000000000002460000000000004f877f
:0913ad00a80001003c616c0a007b
:2013b60000000000000800000004003c39e00a00000000000000000400000000000001c1e6
:0a13d6000140210003c03d05f000b6
:2013e00000000000000000000000000065aa0000000000000000000004ff50000000019af0
:091400003c000040403b4ee202ba
:20140900000020000b0000000000000036e0002000000000000000043748f70800007087e9
:0a1429006b0c000a0bc7c50e700023
:201433000000000030000000000002f0158a001800000000000800001ec6462010000b361d
:09145300814080a164257cf500b4
:20145c0040000000008900000000062e2410a000000000000000402428402508820000d153
:0a147c00c22c00000246420f51800e
:2014860000000000181be9410000506261ca0000000000000000000025a1540800019ef259
:0914a60080180000140168a00088
:2014af00400000002008b708500000807a4050000000000000000014024d4a008000089f48
:0a14cf00ba0000000003810a0000cb
:2014d90000003000001000000040004004aaf0100000000000c0e06077a70400000f0c3711
:0914f9000290000000380c0f61a4
:20150200000002000b0a00000004001c0030af0000000000000800002158a8080080b0f55d
:0a152200417c000000040000f0000e
:20152c0000000000008000000000006024e7148400000000000000000d80500000251807fb
:09154c00bc1008012e7aebe3004b
:2015550000000000000000000000001c0348f0000000000000000004003005000004500092
:0a15750003c0a000156426f83080c2
:20157f0000001800d0000000006000e205a0540400000000006000664dc0f021800b8096a0
:09159f0002900600247c58fa00b9
:2015a8000000000001800000000000020050fa00000000000000002463f04f00800090a1df
:0a15c800017c200003e2850a508038
:2015d2002000108001813d4100000206618f500800000000000001c2b7f0040400651f9370
:0915f20040000c20200400000060
:2015fb00010002100000bec49010003c3f50fa0000000000000000006d694a00000708abfc
:0a161b00242000c0014380000000fd
:201625000003000050a329550000000695a5541400000000000400400585500400200afa43
:091645008290000000646e0800b0
:20164e000000000000900c155210000000305528000000000000a03420005500000400016e
:0a166e00817c20000003e4bad000e4
:201678000004000000cb60150200000394a504000000000000000006d5aa000000698077e7
:09169800130040000002f81002ea
:2016a10040028000001d183e900000004020502000000000000000002020a0000005100798
:0a16c100ec44000000002c0a500069
:2016cb00000000003005e28004000000400db400000000000000014074a0543003001a3e2f
:0916eb00bfc000000677fa5500ab
:2016f400000008000080002800000000214be780400000000000001428600b00000000a9c3
:0a171400efbc00000006370ff000e4
:20171e00000000000010730008c0020006c504000000000000000203c0ef040000038093c1
:09173e003bc090000e3b6f4c0013
:2017470008000000000800300004000400105000000000000000001c2800f000000000f9ad
:0a17670003fc22000023f7f110003c
:201771000000300001b8781440c0000001cf040000000000000002002ee0540000080a0396
:091791000fc08c00007bfb7140cd
:20179a0000000200000af402800800000010f000000000000000000c00d000004000d000b9
:0a17ba0000fc0680000027bf029823
:0217c400000023
:0217c60011010f
:0217c80001011d
:2017ca000000000000000000000000000000000000000000000000000000000000000000ff
:0917ea00000000000000000000f6
:2017f3000000000000000000000000000000000000000000000000000000000000000000d6
:0a18130000000000000000000000cb
:20181d000000000000000000000000000000000000000000000000000000000000000000ab
:09183d00000000000d0000000095
:20184600000000000000000000000000000000000000000000000000000000000000000082
:0a18660000000000008000000000f8
:20187000000000000000000000000000000000000000000000000000000000000000000058
:091890000000000000000000004f
:2018990000000000000000000000000000000000000000000000000000000000000000002f
:0a18b9000000000000000000000025
:2018c300000000000004000000000000100000000000004000000000100000000000004061
:0918e300000000000001000000fb
:2018ec000000000000000000000000000000000000000000000000000000000000000000dc
:0a190c0000000000000000000000d1
:2019160000000000000400000000000010000000000000400000000010000000000000400d
:09193600000000000001000000a7
:20193f00000000000000000000000000000000000000000000000000000000000000000088
:0a195f00000000000000000000007e
:2019690000000000000000000000000000000000000000000000000000000000000000005e
:0919890000000000000000c00095
:20199200000000000000000000000000000000000000000000000000000000000000000035
:0a19b2000000000000000004000027
:2019bc0000000000000000000000000000000000000000000000000000000000000000000b
:0919dc0000000000000000000002
:2019e5000000000000000000000000000000000000000000000000000000000000000000e2
:0a1a050000000000000000000000d7
:201a0f000000000000000000000000000000000000000000000000000000000000000000b7
:091a2f00000000000000000000ae
:201a380000000000000000000000000000000000000000000000000000000000000000008e
:0a1a58000000000000000000000084
:201a6200000000000000000000000000000000000000000000000000000000000000000064
:091a82000000000000000000005b
:201a8b0000000000000000000000000000000000000000000000000000000000000000003b
:0a1aab000000000000000000000031
:201ab500000000000000000000000000000000000000000000000000000000000000000011
:091ad50000000000000000000008
:201ade000000000000000000000000000000000000000000000000000000000000000000e8
:0a1afe0000000000000000000000de
:201b08000000000000000000000000000000000000000000000000000000000000000000bd
:091b2800000000000000000000b4
:201b3100000000000000000000000000000000000000000000000000000000000000000094
:0a1b5100000000000000000000008a
:201b5b00000200000000000000000000000000000000000000000000000000000000000068
:091b7b0000000000000000000061
:201b8400000000000000000000000000000000000000000000000000000000000000000041
:0a1ba4000000000000000000000037
:201bae00000000000000000000000000000000000000000000000000000000000000000017
:091bce000000000000000000000e
:201bd7000000200000000000000000000000000000000000000000000000000000000000ce
:0a1bf70000000000000000000000e4
:201c01000000000000000000000000000000000000000000000000000000000000000000c3
:091c2100000000000000000000ba
:201c2a0000000000000000000000000000000000000000000000000000000000000000009a
:0a1c4a000000000000000000000090
:201c5400000000000000000000000000000000000000000000000000000000000000000070
:091c740000000000000000000067
:201c7d00000000000000000000000000000000000000000000000000000000000000000047
:0a1c9d00000000000000000000003d
:201ca70000000000000000000000000000000000000000000000000000000000000000001d
:091cc70000000000000000000014
:201cd0000000000000000000000000000000000000000000000000000000000000000000f4
:0a1cf00000000000000000000000ea
:201cfa000000000000000000000000000000000000000000000000000000000000000000ca
:091d1a00000000000000000000c0
:201d23000000000000000000000000000000000000000000000000000000000000000000a0
:0a1d43000000000000000000000096
:201d4d00000000000000000000000000000000000000000000000000000000000000000076
:091d6d000000000000000000006d
:201d760000000000000000000000000000000000000000000000000000000000000000004d
:0a1d96000000000000000000000043
:201da000000000000000000000000000000000000000000000000000000000000000000023
:091dc0000000000000000000001a
:201dc9000000000000000000000000000000000000000000000000000000000000000000fa
:0a1de90000000000000000000000f0
:201df3000002000000000000000000000000000000000000000000000000000000000000ce
:091e1300000000000000000000c6
:201e1c000000000000000000000000000000000000000000000000000000000000000000a6
:0a1e3c00000000000000000000009c
:201e460000000000000000000000000000000000000000000000000000000000000000007c
:091e660000000000000000000073
:201e6f00000020000000000000000000000000000000000000000000000000000000000033
:0a1e8f000000000000000000000049
:201e9900000000000000000000000000000000000000000000000000000000000000000029
:091eb90000000000000000000020
:201ec200000000000000000000000000000000000000000000000000000000000000000000
:0a1ee20000000000000000000000f6
:201eec000000000000000000000000000000000000000000000000000000000000000000d6
:091f0c00000000000000000000cc
:201f15000000000000000000000000000000000000000000000000000000000000000000ac
:0a1f350000000000000000000000a2
:201f3f0000000000000000000000000000000000040000000000000000000000000000007e
:091f5f0000000000000000000079
:201f6800000000000000000000000000000000000000000000000000000000000000000059
:0a1f8800000000000000000000004f
:201f920000000000000000000000000000000000000000000000000000000002000000002d
:091fb20000000800000000f040ee
:201fbb000000000000000000000000000000000000000000000000000000000030000000d6
:0a1fdb00000000c0000000af041079
:201fe5000000000000000000000000000000000000000000000000000000000000000000dc
:09200500000000000043405a48ad
:20200e000000000000000000000000000000000000000000000000000000000000000000b2
:0a202e00000000000007200a540023
:20203800000000000000000000000000000000000000000000000000000000000000000484
:092058003c300000002010f048ab
:2020610000000000000000000000000000000000000000000000000000000000000000005f
:0a20810063c10400000040cf04001a
:20208b00000200000000000000000000000000000000000000000000000000000000000033
:0920ab000000000000200000000c
:2020b40000000000000000000000000000000000000000000000000000000000000000000c
:0a20d4000000000000000000000002
:2020de000000000000000000000000000000000000000000000000000000000000000000e2
:0920fe0000000000000010f06871
:20210700000020000000000000000000000000000000000000000000000000000000000098
:0a21270000000000000601cf0400d4
:2021310000000000000000000000000000000000000000000000000000000000000000008e
:0921510000000c01020000000076
:20215a00000000000000000000000000000000000000000000000000000000000000000065
:0a217a00000000c00866000000002d
:202184000000000000000000000000000000000000000000000000000000000000000d002e
:0921a40000000000000030a00062
:2021ad000000000000000000000000000000000000000000000000000000000018000010ea
:0a21cd0000000060000016aa0000e8
:2021d7000000000000000000000000000000000000000000000000000000000000000000e8
:0921f700000000000000000000df
:202200000000000000000000000000000000000000000000000000000000000000000000be
:0a22200000000000000000000000b4
:20222a000000000000000000008000000000000000000000000000003d08000000000000cf
:09224a0000000000000010a020bb
:202253000000000000000000000c0000000000000000000000000000004a002200000000f3
:0a2273000000000000021daa000098
:20227d0000000000000000000020004234081400000000000000000206a400008000000063
:09229d00000002002400c0f7015a
:2022a600000000000000000000000020060042420000000000000000064d0000000000001b
:0a22c60000000000016035cf503029
:2022d0000000000000000000000000021d0f000000000000000000000e00a0000000000012
:0922f000000000003c0370010035
:2022f90000000000000000000000001e045cb2020000000000000006036850400000000092
:0a23190000000000036026a0002071
:202323000002000000000000002000002d0f000000000000002000003482100080000000d6
:09234300000002001403cc0400a8
:20234c0000000000000000000000000003dab0020000000000000006020912c000100000ef
:0a236c000000000002003d800000a8
:20237600000000000000000000000003c100a000000000000000000000969000000080003d
:0923960000000000006c100a00b8
:20239f0000002000000000000000000020480a000000000000000006600896c00000300098
:0a23bf000000000000028da0a00045
:2023c900000000000000000000000140050ed40000000000000001403600500100500000b4
:0923e900000000001c43e00100ab
:2023f20080000000000000000000000002eeb74200000000000000002bc850c0100200004d
:0a241200000000002202a58000a0d7
:20241c000000000000000000000000401eaf0000200000000000004000c6900000000000dd
:09243c00000000000239db04007d
:2024450000000000000000000006002000f8e0000000000000060020000896c018000000dd
:0a2465000000000001405cb0000020
:20246f0000000000000000000000014204bef400040000000000014000b0000000000c5003
:09248f00168200000001ec0008b7
:2024980000000000000000000000000007cbe34000000000000000006140008000000018f6
:0a24b80002950400000616e1000082
:2024c20000400000500000000080000000000000000000000000000036c00082000000086a
:0924e2001570000094784d0120f2
:2024eb000002800000000000000c00000000000000000000000000006a58800030000005cc
:0a250b00e9550000076385f00000a9
:2025150000000800d00d68002020000000000000000000000020000000000000a800100041
:0925350000000000003400000069
:20253e0000000000080072820000000000000000000000000000000000000000010018e088
:0a255e0000000000014040000000f2
:20256800000000000000000000000000000000000000000000000000000000000000000053
:09258800000000002c01f00a0023
:2025910000000000000000000000000000000000000000000000000000000000000000002a
:0a25b100000000000266a7e04420cd
:2025bb00000208000000000000200000000000000000000000200000000000008000000036
:0925db0000000200000010a02025
:2025e4000000000000000000000000000000000000000000000000160000000000000000c1
:0a2604000000000000000faa000013
:20260e00000008000000000000200340000000000000000000000002550690000000000450
:09262e003c3240000028000000cd
:20263700018020000000000000000000000000000000000000000000040a9640000071800d
:0a2657003bc100000000000000007d
:202661000c80000009a000000000004000000000200000000000004387f00000000000000a
:0926810000000000000000000050
:20268a0004c000000198000000000020000000000100000000000020615b08000000580076
:0a26aa000000000000000000000026
:2026b4008000000000000000000001c00000000000000000000002c0020a000000000000f7
:0926d40015700000003800000040
:2026dd000000000000000000000600200000000000000000000600200058a0001808040570
:0a26fd0039550060000040000000a5
:2027070000020000080003d4000000000400540000000000000002434000f0000000000004
:09272700000000005400fe00084f
:2027300004000000070017bd42100000035a50400000000000000020040a0f4000000000ee
:0a2750000000000001e03de200007f
:20275a000000200000094049008000400100f40000000000008000002e903402000118006b
:09277a003c1000000020000000ea
:20278300000003000000d69410ac0020601e0f4000000000000c0006027906403000f8b075
:0a27a3007bc104000003c000000029
:2027ad00000000000007240020000002fd0800000000000000000000000000000040905793
:0927cd00849000802400200a0021
:2027d60000000000018016a000200007074e0002000000000000001400000000000251e5e2
:0a27f600f941000004001fa0a40038
:2028000000000000000000000000000034e00000000000000000000001014e000000000054
:092820000000000000200000008f
:2028290000000400000000000000000001590800000000000000000029fa144200000000b0
:0a2849000000000000004000000045
:202853002000000000050015000200003e0f040000000000000000001d00000010000000ab
:092873001570000000380000009f
:20287c00010000000000068290004100025e55400000000000000016004a8002028078070a
:0a289c00e9550100000040000000b3
:2028a600000000001005800000000000250aa40000000000000000040d9800000005000cf0
:0928c600155400003c2470810946
:2028cf0000003000081893a800000000001e5540000000000000000029e900000000800514
:0a28ef0039550000020066a5043010
:2028f90000002000000902a9000000c3000000000000000000000002dd0000800001800840
:0929190002a0000004036fcf00ce
:20292200000001000500069550000036040000000000000000000000004a80020000d1814c
:0a294200b0294000020616fc000058
:20294c0000000000000583c1000001401e9f040000000000000000428d9000000000101c95
:09296c003d500000023810a000eb
:2029750000000180001c93955006002003ee7140000000000006002061e91000180058e194
:0a2995007815806001e044ca0100db
:20299f000000000008800000000000001ef0060004000000000000028000000002000ff0f5
:0929bf003c1000001402c00f00de
:2029c800000000000181000000000000605f80400000000000000014000000000000301991
:0a29e800a9550000020035a004000c
:2029f20000000000b001ec00008000042c01840000000000008000034000000200438070fb
:092a120028000000140170a50069
:202a1b0000000000099a1ea0002c00006340424200000000000c0000040000003002380f5e
:0a2a3b00f0004000020004c0a000fb
:202a45000000000050800000000001c235f0000000000000000000021df000040003800023
:092a6500000000003c0010e2003a
:202a6e0000000000001a00000000002606698000000000000000001424fe8000000811a0aa
:0a2a8e000000000003c01dce202050
:202a98000000000000a3c000000000001dc1240000000000000004003ecc3400000f4070b8
:092ab8003d405000006870fa0076
:202ac100000000000580fea000800006615b4240000000000000000603cf6341000001a5ec
:0a2ae100e01500000007f5c05000ea
:202aeb000002000000ab3c8000000004000000000000000000000000000000000000001648
:092b0b00a940000000282055201b
:202b1400000000000581130000000000280000000000000000000000000000000000000fd1
:0a2b340025494000000054a554009c
:202b3e0000000000510f016800000000278da40000000000000000000000000000000093c3
:092b5e00b68030000000508b002d
:202b670000002000000a00295010000069fb2540000000000000000000000000000018e1d9
:0a2b8700e895c00000001cc81020f3
:202b91000000000000e0834c00801400370f041000000000000020000100f41000000efc58
:092bb10015600001146820050004
:202bba0000000000050a13b4c0840096026e55400000000000000006000e0f4000000015ce
:0a2bda00616920040262d4a05000db
:202be4000000000000b74000020000242c00a40000000000000000003c0aa410000100dc0d
:092c040014000000023870000009
:202c0d00000001800500ff200096000e714e50400000000000060000000a5540180080e5ed
:0a2c2d00bbd5006000c035ca0000ee
:202c37000000000000052c00000000000000000000000000000000000000000040000e7e80
:092c570060400000002949cf0093
:202c600000000000039e5e100000000060000000000000000000000000000000040001914f
:0a2c8000f22d2000a1605efc0000b0
:202c8a0000002000b08f8000008000000000000000000000000001c42e0000800001989728
:092caa005c82000014394d0400a5
:202cb300000003000d015620008c0e000000000000000000000000003aeea0000000f181a6
:0a2cd30023cc000000002d846000f7
:202cdd0000000004008b78000200c2c00000000000000000004000223d9c0294000300f484
:092cfd0000400040344000e208f0
:202d06000040000020001260002000200000000000000000000c001c07f9c540000038af87
:0a2d2600f8000a0220428eae2420bd
:202d3000002002000007002900000000000000000380000000000003c50000000000007c6a
:092d5000140000000202c0b800ea
:202d5900000040000000d694100000000000000000000000000000007f6a0f40000000a7c1
:0a2d7900bbd40400e1400da180204e
:202d83000002000000a1ef6900000000000000000000000000000000340a400000000af7b6
:092da300810000002e43f05f00e6
:202dac00000000000000f7c95000000600000000000000000000000001780242000000df55
:0a2dcc0076b40400234297e0a00053
:202dd600000000000109404900000004000000000000000000000040000a0000000b10f6eb
:092df6003e80400036240000007c
:202dff0000002000018ad29410800000380000000000000000000026005aa000000001efcb
:0a2e1f006ef5020000400000000004
:202e2900100020000801c00000000000000f0c800000000000002040350a0000000d100039
:092e4900014000001c01e0af0093
:202e5200030001000518fba800000000000cf0400000000000000020786e1242000000a165
:0a2e72002815800002000de0a0000a
:202e7c00000000001109e30d80000000010f0c00000000000000004214000000100f0e9f6e
:092e9c0059c000003c00003c009c
:202ea50040000180080a5b18d0060000001af04040000000000600342578a0001a00f813cb
:0a2ec500629c006000000003c420be
:202ecf00000000000000000000000000000f0000040000000000004034aa0000000f9b16f2
:092eef00c74200000000000500cc
:202ef80000000000018a000000082400000ef040c000000000000020006b1240000050bd1b
:0a2f1800b078000000000ce050004b
:022f22000000ad
:022f2400110298
:022f26000101a7
:202f2800000000000000000000000000000000000000000000000000000000000000000089
:092f480000000000000000000080
:202f5100000000000000000000000000000000000000000000000000000000000000000060
:0a2f71000000000000000000000056
:202f7b00000000000000000000000000000000000000000000000000000000000000000036
:092f9b000000000000000000002d
:202fa40000000000000000000000000000000000000000000000000000000000000000000d
:0a2fc4000000000000000000000003
:202fce000000000000000000000000000000000000000000000000000000000000000000e3
:092fee00000000000000000000da
:202ff7000000000000000000000000000000000000000000000000000000000000000000ba
:0a30170000000000000000000000af
:203021000000000000080000000000002000000000080000000000002000000000000080bf
:0930410000000000000200000084
:20304a00000000000000000000000000000000000000000000000000000000000000000066
:0a306a00000000000000000000005c
:2030740000000000000800000000000020000000000800000000000020000000000000806c
:0930940000000000000200000031
:20309d00000000000000000000000000000000000000000000000000000000000000000013
:0a30bd000000000000000000000009
:2030c7000000000000000000000000000000000000000000000000000000000000000000e9
:0930e700000000000000000000e0
:2030f0000000000000000000000000000000000000000000000000000000000000000000c0
:0a31100000000000000000000000b5
:20311a00000000000000000000000000000000000000000000000000000000000000000095
:09313a000000000000000000008c
:2031430000000000000000000000000000000000000000000000000000000000000000006c
:0a3163000000000000000000000062
:20316d00000000000000000000000000000000000000000000000000000000000000000042
:09318d0000000000000000000039
:20319600000000000000000000000000000000000000000000000000000000000000000019
:0a31b600000000000000000000000f
:2031c0000000000000000000000000000000000000000000000000000000000000000000ef
:0931e000000000000000000000e6
:2031e9000000000000000000000000000000000000000000080000000000000000000000be
:0a32090000000000000000000000bb
:2032130000000000000000000000000000000000000000000000000000000000000000009b
:0932330000000000000000000092
:20323c00000000000000000000000000000000000000000000000000000000000000000072
:0a325c000000000000000000000068
:20326600000000000000000000000000000000000000000000000000000000000000000048
:093286000000000000000000003f
:20328f0000000000000000000000000000000000000000000000000000000000000000001f
:0a32af000000000000000000000015
:2032b9000002000000000000000000000000000000000000000000000000000000000000f3
:0932d900000000000000000000ec
:2032e2000000000000000000000000000000000000000000000000000000000000000000cc
:0a33020000000000000000000000c1
:20330c000000000000000000000000000000000000000000000000000000000000000000a1
:09332c0000000000000000000098
:20333500000020000000000000000000000000000000000000000000000000000000000058
:0a335500000000000000000000006e
:20335f0000000000000000000000000000000000000000000000000000000000000000004e
:09337f0000000000000000000045
:20338800000000000000000000000000000000000000000000000000000000000000000025
:0a33a800000000000000000000001b
:2033b2000000000000000000000000000000000000000000000000000000000000000000fb
:0933d200000000000000000000f2
:2033db000000000000000000000000000000000000000000000000000000000000000000d2
:0a33fb0000000000000000000000c8
:203405000000000000000000000000000000000000000000000000000000000000000000a7
:093425000000000000000000009e
:20342e0000000000000000000000000000000000000000000000000000000000000000007e
:0a344e000000000000000000000074
:20345800000000000000000000000000000000000000000000000000000000000000000054
:093478000000000000000000004b
:2034810000000000000000000000000000000000000000000000000000000000000000002b
:0a34a1000000000000000000000021
:2034ab00000000000000000000000000000000000000000000000000000000000000000001
:0934cb00000000000000000000f8
:2034d4000000000000000000000000000000000000000000000000000000000000000000d8
:0a34f40000000000000000000000ce
:2034fe000000000000000000000000000000000000000000000000000000000000000000ae
:09351e00000000000000000000a4
:20352700000000000000000000000000000000000000000000000000000000000000000084
:0a354700000000000000000000007a
:20355100000200000000000000000000000000000000000000000000000000000000000058
:0935710000000000000000000051
:20357a00000000000000000000000000000000000000000000000000000000000000000031
:0a359a000000000000000000000027
:2035a400000000000000000000000000000000000000000000000000000000000000000007
:0935c400000000000000000000fe
:2035cd000000200000000000000000000000000000000000000000000000000000000000be
:0a35ed0000000000000000000000d4
:2035f7000000000000000000000000000000000000000000000000000000000000000000b4
:09361700000000000000000000aa
:2036200000000000000000000000000000000000000000000000000000000000000000008a
:0a3640000000000000000000000080
:20364a00000000000000000000000000000000000000000000000000000000000000000060
:09366a0000000000000000000057
:20367300000000000000000000000000000000000000000000000000000000000000000037
:0a369300000000000000000000002d
:20369d0000000000000000000000000000000000000000000000000000000000000000000d
:0936bd0000000000000000000004
:2036c6000000000000000000000000000000000000000000000000000000000000000000e4
:0a36e60000000000000000000000da
:2036f0000000000000000000000000000000000000000000000023d6d0000004000a37c0ec
:0937100004011001ca6800e00088
:2037190040000000000000000000000000000000000000000800034dca000000000f41706e
:0a37390003000000060ca0000000d1
:2037430000000000000000000000000000000c00000000000050830c0501001942035000c7
:09376300000061080ce001c00146
:20376c008000000000000000000000000000000000000000000000300008800000003000d5
:0a378c000000000000c20f10000052
:2037960000000000000000000000000000000000000000000000000000000000001037c00c
:0937b600380000023e6800c0006a
:2037bf0000000000000000000000000000000000000000000000000000700000000f4170ba
:0a37df000000000037cca01000002d
:2037e900000200000000000000000000000000000000000000000000080c00004203500015
:093809000000000141781180006b
:203812000000000000000000000000000000000000000000000000000011e0000000300075
:0a383200000000003d41c0800000ce
:20383c00000000000000000000000000000000000000000000008154000e0000001837c07a
:09385c007800010141ecb180008b
:203865000000200000000000000000000000000000000000000000282c01d000000141704c
:0a388500000000001f83f1000000a6
:20388f00000000000000000000000000000000200000000000003ea7f3080000420350166e
:0938af006000000828ec80000014
:2038b8000000000000000000000000000000000000000000000000935900000000003000d4
:0a38d8000380000002830b0e0000c5
:2038e20000000000000000000000000000000000000000000000a80e001e000000503f065d
:0939020000000002e2c1700000a7
:20390b000000000000000000000000000000000000000000000001400c000000000f507c74
:0a392b00000000001d149080000051
:2039350000000000000000000000000000000080000000000041a3bff18f000c0038ba00d1
:0939550000003301e9db800000f1
:20395e00c0000000000000000000000000000010000000000000003eee00d000480d0f30e9
:0a397e00c00001000a83f5000004f8
:2039880000000000000000000000000000000000000000001000000001800004007cfec050
:0939a8002040100014da800080b8
:2039b1000000000000000000000000000000000000000000000000000000c000000f296896
:0a39d1000400002001430f000080f5
:2039db00000000000000000000000000000000800000000000018287c50100184203503e91
:0939fb0060006000000000000102
:203a04008000000000000000000000000000001000000000000800281000e00000003001c1
:0a3a240064000000000000000140f3
:203a2e0000000000000000000000000000000000000000000000314cc000000000befec6b9
:093a4e0038000000000000000037
:203a570000000000000000000000000000000000000000000000035c5e000000000fa96872
:0a3a77000406000000000000040037
:203a810000020000000000000000000000000c00000000000010830601981c00420350260e
:093aa100700000030f6dd8000055
:203aaa00000000000000000000000000000000000000000000000030000000000000300399
:0a3aca00c400000003cfd10000008b
:203ad400000000000000000000000000000000000000000000002b4cc79e0000001f9a40fd
:093af400600000000000b00000b9
:203afd0000002000000000000000000000000000000000000000037c5e00008100015f2c9f
:0a3b1d0003c0040000000b89001033
:203b27000000000000000000000000000000000000000013001083060801000040473f20e3
:093b470004000000000071a00060
:203b50000000000000000000000000000000000000000000800000300070e0002004708041
:0a3b70004383000000000080000005
:203b7a00000000000000000000000000000000000000000000001ea5900e0140000e7b0000
:093b9a000000062880da00c408ce
:203ba30000000000000000000000000000000000000000000000018b7a0100010005ddb068
:0a3bc300000004000b0f901000102a
:203bcd0000000000000000000000000000000c00000000000000aa8fa000000c020a506c1f
:093bed000400300257ee30000024
:203bf6000000000000000000000000000000000000000000000202a810000000400050253e
:0a3c16006300010125f6d000000054
:203c2000000000000000000000000000000000000000000000000067d00000040080720651
:093c40000044000014da00000049
:203c4900000000000000000000000000000000000000000008004002f910000000000fec0d
:0a3c6900024020000142000080002c
:203c73000000000000000000000000000000000000000000002019a7d5010c18c0ac7f1458
:093c93000470002014cc01a00013
:203c9c00000000000000000000000000000000000000000000000276f9d8e000000ac08095
:0a3cbc00220000000001ad0000002e
:203cc600000000000000000000000000000000000000000000012aa7d000000c00503e049e
:093ce600000000000000d01008ed
:203cef000000000000000000000000000000000000000000000003aaf9000000c00fa0f8a8
:0a3d0f00200000000000070f000074
:203d1900000200000000000000000000000000000000000000002a8d930000800805384c2d
:093d390000020000067b01e0001d
:203d42000000000000000000000000000000000000000000000003fc2f00b0140100a0bc12
:0a3d620000004000002ec01f00000a
:203d6c0000000000000000000000000000000000000000000010070e1000000040403b1e29
:093d8c00b800000141eaf0a000ba
:203d95000000200000000000000000000000000100000000000000b00bf00001000f00ec46
:0a3db500078504003c02d78f0010c0
:203dbf00000000000000000000000000000000000000000000000427d998000010255bd4e4
:093ddf002001010000ef10a0001a
:203de8000000000000000000000000000000000000000000000002d6f9100000000a77b1a8
:0a3e080067c000000081e00b00001d
:203e120000000000000000000000000000000000000000000021aad7d700000000a5133e21
:093e3200200001010cca18e10096
:203e3b000000000000000000000000000000000000000000000265565d080001000aa0b0ea
:0a3e5b0043c004000041b010001045
:203e650000000000000000000000000000000000000000000004b1ae9000400c40f71a7c31
:093e8500040001033ddf581000a8
:203e8e0000000000000000000000000000000000000000000008230efa700200400ff039f7
:0a3eae006280400137c18d0f000053
:203eb800000000000000000000000000000000000000000000000076801c000400b5fbc064
:093ed80002001012857f00800039
:203ee100400000000000000000000000000000000000000000000001e8309000000fb9ea26
:0a3f0100c000000016ddb010400003
:203f0b0000000000000000000000000000000000000000000010009680080098408b785c31
:093f2b0064006002a8ed00180119
:203f340080000000000000000000000000000000000000000000020c3b510114000470b614
:0a3f5400620000003fc3d0084000e7
:203f5e000000000000000000000000000000000000000000001031cfe801000000af3b0060
:093f7e000000000004fd00001029
:203f87000000000000000000000000000000000000000000000203042c70e1c00000507a0a
:0a3fa700c3860002002ea000008077
:203fb10000020000000000000000000000000c0000000000000006a7fb014c000005762052
:093fd1006030010074605992088f
:203fda000000000000000000000000000000000000000000000020a86b10800000005000b4
:0a3ffa00400000020b80f00f0c40a5
:20400400000000000000000000000000000000000000000000410156a001800006a4d2de89
:0940240000400003e8fc0010005c
:20402d000000200000000000000000000000000000000000000000003900c6000005bba0f4
:0a404d00000000003fc2d90e000081
:2040570000000000000000000000000000000000000000000031a39f8f80000082a4175436
:094077003102001a80dab9b9d453
:2040800000000000000000000000000000000000000000000000403c1a18000608c5b5e307
:0a40a000c02818242bc0f18c00800a
:2040aa0000000000000000000000000000000000000000000024b1b4a0000400068e5ae0fb
:0940ca003801060b1bc0818010b7
:2040d30000000000000000000000000000000000000000000000630ed90000000000f9b4d6
:0a40f30040000000326ec70000001c
:2040fd0000000000000000000000000000000000000000100020a927e199000c08053ed4fe
:09411d000112302004fd00000035
:20412600c0000000000000000000000000000000000000000006529d7a00e800400000a77b
:0a414600600051000006cf000004e5
:20415000000000000000000000003dd4b000000000000000000000000180000400af72a444
:0941700060010002b7ffd00080dd
:204179004000000000000000000023b1db00008000000000080000000000f000000050f07f
:0a4199004000000025fdc980000071
:2041a300000000000000000000000000000000000000000000000157c000001840a51a6667
:0941c3006100010831e000000177
:2041cc0080000000000000000000000000000000000000000000017c1900b000000b50664c
:0a41ec00668800000300000b0000cd
:2041f60000000000000000000000000000000000000000000010020ce00100000000960014
:094216000280000233ff180000d1
:20421f0000000000000000000000000000d0b00000000000000000342d00e000000801b104
:0a423f00c0100000043dc00b000099
:2042490000020000000000000000000005000000000000000000814c0018008000503686dd
:094269006402011831e0818a00b1
:204272000000000000000000000000000008000000000000000000280a00000000050000ed
:0a4292002680500003000f1000000a
:20429c00000000000000000000011894b000000000000000000000000198000040c2377c57
:0942bc00000000028c40700000bb
:2042c5000000200000000000000000f1db00000000000000000000000038c000000400a150
:0a42e50042c0000014deb08080002b
:2042ef0000000000000000000000000000000080000000000000814c8800000040103b202f
:09430f007070000369d900000080
:2043180000000000000000000000000000000010000000000200001400d00004008000e02b
:0a433800440000002614b00c05003c
:20434200000000000000000000000000000e00400000000000002bcce00fa0000000dbc0ec
:09436200040001014d4e518000e0
:20436b000000000000000000000000000000000000000000000000280d01e40000020d20e9
:0a438b00c340000018c0f00a1c0037
:204395000000000000000000000000000000000000000000001022c6e000000c08051840bf
:0943b50001000100605a59c40026
:2043be00c0000000000000000000000000000000000000000000022c000008044000a0b84d
:0a43de00020800000282d79e2004ae
:2043e80000000000000000000004829dc00a0000000000104040a96de1990040020a530009
:0944080000021a0a395c80101050
:204411004000000000000000000222800e0100000000000000000d96f87081080000a04024
:0a4431000000000003c5c10e1800d2
:20443b000000000000000000000123f5a000001800000000004083cdc180a158060530008b
:09445b003900600a3bcc00140199
:2044640080000000000000000000026f5ad000000000000000020e2c5db004080000a02800
:0a4484000400000403ecb00800007f
:20448e0000000000000000000004908ee00a0000000000280040a96ce81a00000205571c09
:0944ae002280084b18ea98100066
:2044b700c00000000000000000024212ce01b0000000000100020e6aff50000008005040ee
:0a44d70007c0002030e7c30800080a
:2044e1000002000000000000000001540500000000000000000083dfc800000002055006d8
:094501000000001a3b5c00000000
:20450a000000000000000000000000280ad800000000000000001e2e5d1000000000a0a886
:0a452a000000002003ffc0000000a5
:204534000000000000000000000023f4980000000000000800002bcec70b0000020a56047f
:094554000280000b1bed01f400d4
:20455d0000002000000000000000234e4b10000000000000400000142901d1400000a00023
:0a457d002340000030c6d70ea00056
:204587000000000000000000000029f5a01c00000000000000003e948500008002a05784e6
:0945a70000000c03fc00580000a8
:2045b0000000000000000000000043ef5a01000000000000000042801bb80000190af0387e
:0a45d000200000003fc00f000000b3
:2045da0000000000000000000000015ce80f0000000000200000a927bb00000082aa7b809b
:0945fa00040000000000018a1415
:2046030000000000000000000000001410108000000000010002229ff91800000800f0a86e
:0a46230003c00000000000000000ca
:20462d0000000000000000000050829ef18000000000000a0000a807ff8c008c82a056a0a4
:09464d0060003000000080000054
:20465600c000000000000000000011202c000000000000010002017c39b10000418af0788a
:0a46760040000100000003000004f2
:02468000000038
:02468200110322
:02468400010132
:20468600000000000000000000000000000000000000000000000000000000000000000014
:0946a6000000000000000000000b
:2046af000000000000000000000000000000000000000000000000000000000000000000eb
:0a46cf0000000000000000000000e1
:2046d9000000000000000000000000000000000000000000000000000000000000000000c1
:0946f900000000000000000000b8
:20470200000000000000000000000000000000000000000000000000000000000000000097
:0a472200000000000000000000008d
:20472c0000000000000000000000000000000000000000000000000000000000000000006d
:09474c0000000000000000000064
:20475500000000000000000000000000000000000000000000000000000000000000000044
:0a477500000000000000000000003a
:20477f0000000000000800000000000020000000000800000000000020000000000000804a
:09479f000000000000020000000f
:2047a8000000000000000000000000000000000000000000000000000000000000000000f1
:0a47c80000000000000000000000e7
:2047d2000000000000080000000000002000000000080000000000002000000000000080f7
:0947f200000000000002000000bc
:2047fb0000000000000000000000000000000000000000000000000000000000000000009e
:0a481b000000000000000000000093
:20482500000000000000000000000000000000000000000000000000000000000000000073
:094845000000000000000000006a
:20484e0000000000000000000000000000000000000000000000000000000000000000004a
:0a486e000000000000000000000040
:20487800000000000000000000000000000000000000000000000000000000000000000020
:0948980000000000000000000017
:2048a1000000000000000000000000000000000000000000000000000000000000000000f7
:0a48c10000000000000000000000ed
:2048cb000000000000000000000000000000000000000000000000000000000000000000cd
:0948eb00000000000000000000c4
:2048f4000000000000000000000000000000000000000000000000000000000000000000a4
:0a4914000000000000000000000099
:20491e00000000000000000000000000000000000000000000000000000000000000000079
:09493e0000000000000000000070
:20494700000000000000000000000000000000000000000000000000000000000000000050
:0a4967000000000000000000000046
:20497100000000000000000000000000000000000000000000000000000000000000000026
:094991000000000000000000001d
:20499a000000000000000000000000000000000000000000000000000000000000000000fd
:0a49ba0000000000000000000000f3
:2049c4000000000000000000000000000000000000000000000000000000000000000000d3
:0949e400000000000000000000ca
:2049ed000000000000000000000000000000000000000000000000000000000000000000aa
:0a4a0d00000000000000000000009f
:204a170000020000000000000000000000000000000000000000000000000000000000007d
:094a370000000000000000000076
:204a4000000000000000000000000000000000000000000000000000000000000000000056
:0a4a6000000000000000000000004c
:204a6a0000000000000000000000000000000000000000000000000000000000000000002c
:094a8a0000000000000000000023
:204a93000000200000000000000000000000000000000000000000000000000000000000e3
:0a4ab30000000000000000000000f9
:204abd000000000000000000000000000000000000000000000000000000000000000000d9
:094add00000000000000000000d0
:204ae6000000000000000000000000000000000000000000000000000000000000000000b0
:0a4b060000000000000000000000a5
:204b1000000000000000000000000000000000000000000000000000000000000000000085
:094b30000000000000000000007c
:204b390000000000000000000000000000000000000000000000000000000000000000005c
:0a4b59000000000000000000000052
:204b6300000000000000000000000000000000000000000000000000000000000000000032
:094b830000000000000000000029
:204b8c00000000000000000000000000000000000000000000000000000000000000000009
:0a4bac0000000000000000000000ff
:204bb6000000000000000000000000000000000000000000000000000000000000000000df
:094bd600000000000000000000d6
:204bdf00440000000000000000000000000000000000000000000000000000000000000072
:0a4bff000000000000000000000ca0
:204c090080000000000000000000000000000000000000000000000000000000000000000b
:094c290000000000000000000082
:204c3200000000000000000000000000000000000000000000000000000000000000000062
:0a4c52000000000000000000000058
:204c5c00000000000000000000000000000000000000000000000000000000000000000038
:094c7c000000000000000100002e
:204c850004000000000000000000000000000000000000000000000000000000000000000b
:0a4ca50000000000000000180000ed
:204caf000002000000000000000000000000000000000000000000000000000000000000e3
:094ccf00000000000000000000dc
:204cd8000000000000000000000000000000000000000000000000000000000000000000bc
:0a4cf80000000000000000000000b2
:204d0200000000000000000000000000000000000000000000000000000000000000000091
:094d220000000000000000000088
:204d2b00000020000000000000000000000000000000000000000000000000000000000048
:0a4d4b00000000000000000000005e
:204d550000000000000000000000000000000000000000000000000000000000000000003e
:094d750000000000000000000035
:204d7e00c00000000000000000000000000000000000000000000000000000000000000055
:0a4d9e000000000000000100000802
:204da8000000000000000000000000000000000000000000000000000000000000000000eb
:094dc800000000000000000000e2
:204dd1000000000000000000000000000000000000000000000000000000000000000000c2
:0a4df10000000000000000000018a0
:204dfb00000200000000000000000000000000000000000080000000000000000000000016
:094e1b00000000483c000000000a
:204e240000000000000000000000000000000000000000000000000000000000000000006e
:0a4e44000000002083ce00000000f3
:204e4e000000000000000000000000000000000000000000000000000000000400405ea4fe
:094e6e004000100003691000006f
:204e770004000000000000000000000000000000000000000000000000000000c008517688
:0a4e9700638003000095b0000000e6
:204ea1008000000000000000000000000000000000000000000000000080000010ad0f84a1
:094ec100340002000c3d10904089
:204eca0000000000000000000000000000000000000000000000000000780000042047b82d
:0a4eea000200001028dcd7010000d0
:204ef40000000000000000000000000000000000000000000000000000000001008b0ac444
:094f140000000000003c50000008
:204f1d0004000000000000000000000000000000000000000000000000000000140477825f
:0a4f3d0000000000014ce9800000b4
:204f47000002000000000000000000000000000000000000000000000b00000000050240f6
:094f6700000000000000118000b0
:204f700000000000000000000000000000000000000000000000000000800000000a572818
:0a4f9000000000000000070e000002
:204f9a000000000000000000000000000000000000000000000000000000000100db0ba46c
:094fba00240000000000000000ca
:204fc30000002000000000000000000000000000000000000000000000000000050e35fb6b
:0a4fe300604000000000001a00000a
:204fed0000000000000000000000000000000000000000000000000000000008100c0a2c4a
:09500d0038000000042970a40021
:2050160000000000000000000000000000000000000000000000000000000000c40ac53aad
:0a5036000000001000149d8000002f
:205040000000000000000000000000000000000000000000000283c20000000000ff0e807c
:0950600000000000414f50000067
:2050690000000000000000000000000000000000000000000000083dc0000081800fa174fd
:0a5089000000060000169d800000e4
:20509300000200000000000000000000000000000000000000000000000000000001b65ce8
:0950b30038000001682c00b00077
:2050bc000000000000000000000000000000000000000000000000000000000000400de89f
:0a50dc0000000000280ee01a00009a
:2050e6000000000000000000000000000000000000000000000000000f00000480c003d480
:095106002800000081c908000422
:20510f0040000000000000000000000000000000000000000000000000800080c40c55e635
:0a512f00004000400014d700000cff
:2051390000000000000000000000000000000000000000000000768fb70e00100005003c3b
:09515900000044033c2900800120
:20516200000000000000000000000000000000000000000000000b67ee801000000057a244
:0a518200000000303bd7a0010c0034
:20518c000000000000000000000000000000000000000000000000000f0c0001000a0bc40e
:0951ac0000000002943a50000ad0
:2051b50000000000000000000000000000000000000000000000000000001000280001b2ef
:0a51d500000000002817c58001400b
:2051df0000020000000000000000000000000000000000000020768ed0800010000000002a
:0951ff003c004000000070ea15bc
:20520800000000000000000000000000000000000000000000001b66cf50000000000000e6
:0a522800084000000000080040806c
:205232000000000000000000000000000000000000000000000000000000000000470bf416
:0952520000000043fd6dd8e000ee
:20525b0000002000000000000000000000000000000000000000000000000000050053eccf
:0a527b000280000129e49500000004
:205285000000000000000000000000000000000000000000000000000000000000aa0c143f
:0952a50000000000000001a0005f
:2052ae0080000000000000000000000000000000000000000000000000580000000aa5a8b1
:0a52ce00000000000000001f000cab
:2052d800000000000000000000000000000000000000000000000000000000001007722409
:0952f80028000809680e000000fe
:205301000000000000000000000000000000000000000000000000000000000180001de20c
:0a53210000000000a940070000187a
:20532b000000000000000000000000000000000000000000800000000000000008059284bf
:09534b0000000009680fd0b00059
:2053540000000000000000000000000000000000000000000000000000000000100427a658
:0a53740002800000a94010000000b4
:20537e00000000000000000000000000000000000000002000003c03c08c140903470e0ce3
:09539e003c00100012ec000000bc
:2053a7000800000000000000000000000000000000000000000503404b118000c42c35ff96
:0a53c70066c003008295918a000081
:2053d100800000000000000004000000000000100000000000000006d08c008000b816c2b6
:0953f1004000400095ef0090011e
:2053fa000000000000000000000000000000000000000000000000044e180004000e21ed09
:0a541a00460000200984851f008071
:20542400000000000000000000000000000000000000000000000140d11f0000108b1bb4cd
:095444002400000200dc900000cd
:20544d00040000000000000000000000000000000000000000020028c081e0000824232c75
:0a546d00004300009087b80a000019
:205477000000000000000000040000000000001000000010000000000388001001bd7b7e9f
:0954970000004002a80008000119
:2054a0000000000000000000000000000000000000000002000000000039f0002821db7c21
:0a54c000400000002a858718000054
:2054ca000000000000000000000000000000000000000000000033c20000000000000004c9
:0954ea0000000003c010000000e6
:2054f30000000000000000000000000000000000000000000003433ce00000000000000037
:0a5513006000000043c5e5980000a9
:20551d000000000000000000000000000000000000000000000400028000008c00c5970000
:09553d0040000002801e10000075
:205546000800000000000000000000000000000000000000000101006e380004d02c0ffc8a
:0a55660002800001c284b980080031
:20557000800000000000000000000000000000000000000000000282e000000080257a6cac
:0955900040000003c00000a0006f
:20559900000000000000000000000000000000000000000000000014c158000180226f3a79
:0a55b9000280060043c5a01b001885
:2055c30000000000000000000000000000000000000000000000c6bde10c00000000000256
:0955e3002000000002c0080000d5
:2055ec0004000000000000000000000000000000000000000000080acdd0100000000001db
:0a560c00428000004020e50a000083
:20561600000000000000000000000000000000080000000400001945d080014803401b34df
:0956360020002000000070a0100b
:20563f00c8000000000000000000000000000000c0000000000401abc8508008802e0320a2
:0a565f00028003000000011e008c11
:20566900800000000000000000000000000f00000000000000003f1ea70e000080300800c8
:0956890040000600000800f000da
:20569200000000000000000000000000000010000000000000040300c830d000040307818a
:0a56b200c3002024280fe58a000041
:2056bc00000000000000000000000000000900400000000000000000008000000c257a80da
:0956dc0074000210300000e0002f
:2056e5000400000000000000000000000001e00000000000000000000050c40000026f6ccf
:0a570500070000900306000b0000ef
:20570f00000200000000000000000000000000080000000000000000078f00808047739c84
:09572f0000000212040f10000832
:2057380080000000000000000000000000000000c00000000000000000b8101000042bf812
:0a5758000780001011deff80000c36
:205762000000000000000000000000000500000000000000000001410b10104000cf07c0df
:0957820028070000280e000000b9
:20578b000000300000000000000000000000000000000000000000155e81c0000408d1a499
:0a57ab0066c00000295dc000000088
:2057b500000000000000000000002bc100000020000000000002c68ed000000c0847034004
:0957d5000000300c1429008000d2
:2057de00c80000000000000000004abc7a0000000000000000000809ce59c0008404237848
:0a57fe0060100210909eb001000c34
:20580800800000000000000000000000000000000000000000240002b01f010000a00c005e
:0958280020050202803090e0002e
:20583100000000000000000000000000000080018000000000091011df01d009800a03687e
:0a585100004326002806c0090018d5
:20585b00000200000000000000200000800b00000000000080000016a50000200000001c09
:09587b0028010002801000d00099
:20588400040000000000000000004a80ee0010000000000000000042fc00a0000000000258
:0a58a400064000012806c0000000c5
:2058ae0000000000000000000000000000000000000000000004195ff71c000100d7de8015
:0958ce004000340069fd00b00047
:2058d7000000000000000000000000000000000000000000000001aaf901e000000fadbcb4
:0a58f700038003048086d7810c00b3
:20590100000000000000000000000024d000000000000000008006bde00f0000003dd7e666
:0959210000000401481d50f000d3
:20592a000000000000000000000200095a00000000000000000000f9db100000100f8deb7d
:0a594a00c0000030809cfb0010003c
:20595400000000000000000000000000000000000000000000000000038000010002de804f
:0959740000000000283b100000b7
:20597d000000000000000000000000000000e000000000000000000000b80000000c8dbc1d
:0a599d000000000017ddc9800000c3
:2059a7000002000000000000000000000300000000000000000437a5d00c0000004f5680fa
:0959c7000000a41022c858b00031
:2059d0000000000000000000000000000000000000000000000001205f0010001020f9b846
:0a59f000000003008b14ed0100001d
:2059fa00000000000000000000000000000d000000000000000103ec0b000001000503d4a8
:095a1a0028000000003a00d2004f
:205a230000003000000000000000000000001100000000000000043e400000002020056bf0
:0a5a4300634000001404a0015000ad
:205a4d000000000000000000002416019d0d000000000000000003cc00000000000e0280f5
:095a6d0040040000041c70e0007c
:205a7600000000000000000000014808ea001000000000000000043c400000002428f1a464
:0a5a96000780201000068d010000bb
:205aa000000000000000000200000001a00d004000000000000003c0070d00c000800c14bf
:095ac0002800000002dd50a000e6
:205ac9000000000000000000000000146c001001800000000000043c588010140408076af3
:0a5ae900025006000427c80a001846
:205af3000002000000000001000000000100000000000003001000000b00000000009600db
:095b130040000800000f50a0083a
:205b1c000080000000000000000000000080000000000000500004001e800000000409bcae
:0a5b3c0007800000155fb181010031
:205b460000000000000000000220033fe00000000000000000000000098f010800aa06802a
:095b660040001020001fb0800077
:205b6f000800000000000000002068a1ea180008000000000000000000381008c00a53acc2
:0a5b8f0007070300015db0010000ec
:205b9900800000000000000000012100d50f000000000000000000000f1000000042038082
:095bb90000000400141b00e000d0
:205bc2000000000000000000000148296e80100000000000000000000080e00014281004a3
:0a5be200000000002bd4859f000096
:205bec000000000000000000000001430000000000000008000000000008200000fa1640d5
:095c0c0024000000006bb0a000b0
:205c1500040000000000000000000015ea000000000000010000000000000000000bed680b
:0a5c35000040000004049800000085
:205c3f000002000000000000020000000508000000000000000101410f80000200b6da8050
:095c5f000000040050c90000001f
:205c6800000000000000000000300000008190000000000000000015e871e0000005e9603f
:0a5c8800000000618a3e1380000056
:205c9200000000000000000000040001bd0e01400000000000820015d00e00000005000067
:095cb20028000263805e38f20054
:205cbb00000020000000000000010004df001008000000006000080668001000002057a0b0
:0a5cdb00c0000020882fc7814000a0
:205ce5000000000af04000000002140000000000000000000000000000000000000000004f
:095d050040000242124c00900023
:205d0e0000000002af1a000000000140da500000000000000000000000000000000000003f
:0a5d2e00668000a582b79501000011
:205d380000000000000003400004161dc00000000000000000003e83f00b0001000c000048
:095d580040040000142d709002bb
:205d6100000000000000002400602808cc0000c18000000000002140de0010018420c78026
:0a5d8100068026802bdd880f003815
:205d8b00000200000000000000001401c0000000000000008000101dfd00000000c3da8258
:095dab0028000003be68d9b8000d
:205db400000000000000160000002829ce0000000000000000001800df9800000009d961c8
:0a5dd400604001001cd6899f00000a
:025dde000000c3
:035de00062003f1f
:035de300720080cb
:025de6001100aa
:035de80082000036
:025deb000103b2
:085ded00000000000c000000a2
:085df500000000000c0000009a
:085dfd00000000000c00000092
:085e0500000000000c00000089
:085e0d00000000000c00000081
:085e1500000000000c00000079
:085e1d00000000000c00000071
:085e2500000000000c00000069
:085e2d00000000000c00000061
:085e3500000000000c00000059
:085e3d00000000000c00000051
:085e4500000000000c00000049
:085e4d00000000000c00000041
:085e5500000000000c00000039
:085e5d00000000000c00000031
:085e6500000000000c00000029
:085e6d00000000000c00000021
:085e7500000000000c00000019
:085e7d00000000000c00000011
:085e8500000000000c00000009
:085e8d00000000000c00000001
:085e9500000000000c000000f9
:085e9d00000000000c000000f1
:085ea500000000000c000000e9
:085ead00000000000c000000e1
:085eb500000000000c000000d9
:085ebd00000000000c000000d1
:085ec500000000000c000000c9
:085ecd00000000000c000000c1
:085ed500000000000c000000b9
:085edd00000000000c000000b1
:085ee500000000000c000000a9
:085eed00000000000c000000a1
:085ef500000000000c00000099
:085efd00000000000c00000091
:085f0500000000000c00000088
:085f0d00000000000c00000080
:085f1500000000000c00000078
:085f1d00000000000c00000070
:085f2500000000000c00000068
:085f2d00000000000c00000060
:085f3500000000000c00000058
:085f3d00000000000c00000050
:085f4500000000000c00000048
:085f4d00000000000c00000040
:085f5500000000000c00000038
:085f5d00000000000c00000030
:085f6500000000000c00000028
:085f6d00000000000c00000020
:085f7500000000000c00000018
:085f7d00000000000c00000010
:085f8500000000000c00000008
:085f8d00000000000c00000000
:085f9500000000000c000000f8
:085f9d00000000000c000000f0
:085fa500000000000c000000e8
:085fad00000000000c000000e0
:085fb500000000000c000000d8
:085fbd00000000000c000000d0
:085fc500000000000c000000c8
:085fcd00000000000c000000c0
