:02000000ff00ff
:080002004c6174746963650030
:17000a00694345637562653220323031372e30382e32373934300069
:16002100506172743a2069434534304858314b2d545131343400fc
:1b003700446174653a204d617920323020323031392032333a32383a3033007b
:0200520000ffad
:040054007eaa997e69
:02005800510055
:02005a0001059e
:03005c00920020ef
:03005f0062014bf0
:0300620072009099
:0300650082000016
:02006800110085
:02006a00010192
:20006c00000000000000000000000000000000000000000000000000000000000000000074
:09008c000000000000000000006b
:2000950000000000000000000000000000000000000000000000000000000000000000004b
:0a00b5000000000000000000000041
:2000bf00000000000000000000000000000000000000000000000000000000000000000021
:0900df00000000400000000000d8
:2000e8000000000000000000000000000000000000000000000000000000000000000000f8
:0a01080000000000000000000000ed
:2001120000000000000000000000008000000000000000000000000000000000000000004d
:09013200000000000000000000c4
:20013b0000000000000000000000000500000000000000000000000000000000000000009f
:0a015b00000000000000000000009a
:200165000000000000040000000000001000000000000040000000001000000000000040d6
:0901850000000000000000000071
:20018e00000000000000000000000000000000000000000000000000000000000000000051
:0a01ae00000000080000000000003f
:2001b800000000000004000000000000100000000000004000000000100000000000004083
:0901d8000000000000010000001d
:2001e1000000000000000000000000000000000000000000000000000000000000000000fe
:0a02010018000000000000000000db
:20020b000000000000000000000000000008000000000000000000000000000000000000cb
:09022b00000000000000000000ca
:200234000000000000000000000000000000c00000000000000000000000000000000000ea
:0a02540000000000000000000000a0
:20025e00000000000000000000000000000000000000000000000000000000000000000080
:09027e0000000000000000000077
:20028700000000000000000000000000000000000000000000000000000000000000000057
:0a02a700000000000000000000004d
:2002b10000000000000000000000000000000000000000000000000000000000000000002d
:0902d10000000000000000000024
:2002da00000000000000000000000000000000000000000000000000000000000000000004
:0a02fa0000000000000000000000fa
:200304000000000000000000000000000000000000000000000001c2049f10020009813a9d
:0903240083902000040000000099
:20032d0000000000000000000000000000000000004000000000003e665bb000800010a58c
:0a034d00a4e0000000000000000022
:2003570000020000000000000000000000000000000000000000004687be32018000001234
:09037700d61006002006ec8800f7
:200380004000000000000000000000000000000000000000000000027cf88300000000051f
:0a03a000b41000000043afe220009b
:2003aa0030030000000000000000000000000000000000000000000015bf100000039c3a43
:0903ca009390000000001cc0002b
:2003d30003002000000000000000000000000000000000000000003c024bb0000000910518
:0a03f300a4900000000001fc0000cf
:2003fd0000020000000000000000000000000000000000000000000216985010000800576f
:09041d00974000000001f8b7024d
:2004260001002000000000000000000000000000000000000000002442f9da010000100f3c
:0a044600a0340000000004021000c2
:200450000000000000000000000000000000000000000000000002470da880100000003ac4
:09047000919000000075fc02628d
:2004790000002000000000000000000000000000000000000000001e006c1100000000c5e3
:0a049900a4f0000000069c0a120007
:2004a3000000000000000000000000000000000000000000000000000000000000018e1298
:0904c300f7100000966000000033
:2004cc0000000000000000000000000000000000000000000000000000000000000001050a
:0a04ec00b7dc00000403000000006c
:2004f60000000000000000000000000000000000000000000000000000000000005001dfb6
:090516003d4000001e6a4ce200a9
:20051f00000000000000000000000000000000000000000000000000000000000000008735
:0a053f000280000002c025fb8000ce
:20054900000400000000000000000000000000000000000000000000000000030007001371
:0905690028c0a0003c03d8426246
:200572000002800000000000000000000000000000000000000000000000000020000000c7
:0a059200428c000000400d0502003d
:20059c0000010000000000000000000000000000000000000080014624a7b40000000e5397
:0905bc0078c200000003ec286085
:2005c5000000000000000000000000000000000000000000000000146fd81e00000001fba1
:0a05e500a60c000000002eb3000079
:2005ef0000030000000000000000000000000000000000000060000005e7e400000b811b12
:09060f0078c006001c00ecfa00a2
:20061800000000000000000000000000000000000000000000000000005bf9000000d8d3c3
:0a063800760c04000340170a0000ce
:200642000000000000000000000000000000000000000000000003e03488f00000011eb337
:09066200a900000020786a55008f
:20066b000000200000000000000000000000000000000000000000062ade4500000008c72d
:0a068b003768040000440005500029
:20069500000200000000000000000000000000000000000000000000148ab02800000013ba
:0906b50078c020000003d83002d7
:2006be0080000000000000000000000000000000000000000000000000d0070000000003c2
:0a06de00e20c0000004014000000d0
:2006e8000000000000000000000000000000000000000000000001c0000000000005001319
:0907080038c040000602eb952008
:2007110000002000000000000000000000000000000000000000000000000000000000abfd
:0a073100aa0c000000031cd56000b4
:20073b000000000000000000000000000000000000000000000000000000000000000e533d
:09075b0038c04000160400000043
:2007640000000000000000000000000000000000000000000000000024000000000001034d
:0a078400fe0c00000003400000001e
:20078e000000000000000000000000000000000000000000000000600000000000080000e3
:0907ae000000000004000000003e
:2007b70000000000000000000000000000000000000000000000000000000000000050c012
:0a07d70000000000002000000000f8
:2007e100000000000000000000000000000000000000000000c00002000000000001000035
:09080100000000004400000000aa
:20080a000000000000000000000000000000000000000000000800000000000000000000c6
:0a082a00000000000822000000009a
:200834000000000000000000000000000000000000000000008003401da7e4020001801e98
:0908540092980000007568f1287b
:20085d00000000000000000000000000000000000040000000000026007af600010000a9fb
:0a087d002c580000000225eb0000db
:200887000002180000000000000000000000000000000000006000000fa07001800500d260
:0908a700439000001e035bbf201a
:2008b000000000000000000000000000000000000000000000000000005a57000000d005a2
:0a08d000e010000000201dbbd00066
:2008da000000000000000000000000000000000000000000000002603fc5d02008500a1e28
:0908fa00971000201e735edb2044
:2009030000000000000000000000000000000000000000000000400601d00e000010000996
:0a0923002c50000402402caef0003e
:20092d00000200000000000000000000000000000000000000000002c000000008000a5e76
:09094d00174000005e7d6ea5025a
:20095600000000000000000000000000000000000000000000000000780000000100510fa8
:0a097600a03400000863dc09a18032
:2009800000000000000000000000000000000000000000000000000000000000005000ff08
:0909a0002e4080007c007a8800e2
:2009a900000020000000000000000000000000000000000000000000000000000020000de1
:0a09c90080d00008016034c1100066
:2009d300000000000007f9550200000000000000000000000000000200000000000180d258
:0909f3005e90000000000000000d
:2009fc000000000000000415700000000000000000000000000000144000000000000005f9
:0a0a1c00e1b400000003c000000078
:200a2600000000000000000000000000000000000000000000000000400000000000011e51
:090a46009f500000e6340000009e
:200a4f000000000000000000000000000000000000000000000000002c00000001080089c9
:0a0a6f002d7c00000146000000008d
:200a79000000300018e0000000000000000000000000000000ca164000000003000001d23f
:090a9900519000000001cee300c1
:200aa2000000020000000000000000000000000000000000000840960000000020000085af
:0a0ac200e0f0010003c03ec8301050
:200acc00000000000000283d0200020616863400000000000080020744a5840200080bd6ea
:090aec00c7d008000602592500dc
:200af5000000000000000003d04000042dd8c301000000000000000423ed1600000011f1d5
:0a0b1500edf00000400024fe500047
:200b1f00000018000005b1410060000200f7140000000000006002000ce0e4018008005e21
:090b3f005f9006a016040ae342cf
:200b4800000000000000001400000000024ab2004030000000000004017908000000d00da8
:0a0b6800afd8000400028d0d3880a4
:200b7200000000008000000000000160058f5000000000000000000004a4e4000020013eb3
:090b920083800c0000636c140068
:200b9b000000000001000000000000000030f500000000000000000403ed0600000000e139
:0a0bbb00bab800c0000024e11100e8
:200bc5000002000050000000000002061ea5000800000000000000004ce464000008187fb8
:090be500280000003603788000ae
:200bee0001000000000000000000000400005000000000000000000021793c00400011c3a8
:0a0c0e004000000001401580028044
:200c180000000000000000000000000001a33420000000000000214004adc4000005801653
:090c38009c50c00054036c010043
:200c410000002080070000000002000000003300400000000002000023edf700080000095d
:0a0c610083c02120002024e42010ad
:200c6b0000000000000000000000000000af04000000000000000206858f5000000019171a
:090c8b009550100000000000006b
:200c94000000000000000000000000000000f000000000000000001400c0a0004000008913
:0a0cb40083c00000000000000000f3
:200cbe00000000000000000000c0006000000000000000000000080784a1f4000001807ad3
:090cde004950000006200000004e
:200ce70000000080000000000006000000000000000000000002014003ed7c0008000009a7
:0a0d0700fb9404200000000000002f
:200d1100000030000000000000c000601680540c0000000000c000002e91c00300518180e8
:090d310019900c0080380000004c
:200d3a000000020000000000000800000270f5000000000000080000035d9d002002008b76
:0a0d5a00266424800004000000005d
:200d6400040100000003b955000001461d8a000000210e384010020037e430020005183b0d
:090d84008140080036016a0e40ae
:200d8d00000000000500d03c100000142810a000000001ffb820000403cdc300000008b70b
:0a0dad00c2bc2000004016f38000d5
:200db70000021800d00160000060620286c25421900000000000080620ec5021b0011a5713
:090dd700895046002001cb586050
:200de00000000000018b77e00000000438d0da00020000010000017442d0ca000380000350
:0a0e0000a7680400004016b040008f
:200e0a000000000000af64110040000005b8000910400038000000001d8550841000189bdd
:090e2a001f80008026056a4e407d
:200e3300000000000010fb41d0040000004d00001002000b00200000003055000005010763
:0a0e5300acf800000263d6f2400084
:200e5d000002000000a160000000006016c254200003800000000200058e60000000007bd3
:090e7d00fc400002063cde5100bd
:200e860041800000001077c1000000140240da00000000090000000401cdda00000000035b
:0a0ea60033c0040000033fb5b000a4
:200eb000000000000007758d0000026045ca000000001af0040001c35d800013000180065f
:090ed0003cc8c00014056a46404c
:200ed900000020800000d230d00200042020a000080000eb0002000069f0500018000000eb
:0a0ef90003cc0020002256f3c000d5
:200f0300000000001815e2800000006066d6340000059f80000001e3bd8a400000411c0083
:090f2300000000000001cbdc40dd
:200f2c000000000000080c2800000000227cc300000000d70000000000ecfe00001209002c
:0a0f4c0000000000000016bf700056
:200f5600000000008017ba000800000005b6340000070930040003631d8050100007011371
:090f76000140400000264c5e0021
:200f7f00400000a00108d0000002002c004dc300000011d78002003469f000000a000089d1
:0a0f9f0002940020000614854000b3
:200fa90000003000818078cd08c00000000000012003800000000002bee000032805000076
:090fc90000000c0a006178f5013a
:200fd200000002000100040cf0080000000000003100d80f0000003c026f80002000080087
:0a0ff20000000080a0040e0a0000b9
:200ffc0000000000d0a12600000020000000000000019c38080000028ce5500200000c0070
:09101c000000000020700000003b
:20102500000000000b807700021000000000000000400905b80000044030550000000000c8
:0a1045000000000001c400000000dc
:20104f0000001800000739550000016000000001800000000000000024e72001805000b343
:09106f009c560640200000000020
:20107800000000000500081570000002000000000040000900000000034d4e000000000dd0
:0a1098003fc020000243800000006a
:2010a200000000005183b9410000004040000000000700900800066015a300230008007682
:0910c200955800000061daa0005d
:2010cb0000000000000077c49000000238000000000000050000000601d00600300050009e
:0a10eb00c15404000004010a0000d3
:2010f5000002000000a13a00000803e040000000000f9c800000000000a4102000000100d3
:091115000000004000066b880098
:20111e00000000000000f2000000403e3c0000000000780f0000000021c08200000000c05b
:0a113e000000000000021db11000c7
:2011480000000000000bbc200000080035aa0000000018f004000003be8a00200000007bc7
:091168009840000000025e8003c3
:201171008000200000001ec00000010002e0fa000000010d8000000042f0d10000007007fb
:0a119100f20400000403ef00000068
:20119b000000000099872a00080000000000000000001e800000000064e8000000200033a5
:0911bb0085000000006a58e20002
:2011c4000000000001001000020000003400000000007105000000002b4f00010004000fc0
:0a11e4002b5c0000000235eb8000d8
:2011ee000000000018f07851080030003788210000018180000001604000000000019d9225
:09120e00a84080002000fa4242d1
:20121700800000000008d40a30000080016a0000000008e700200004280000000000018773
:0a1237008188000001402f0a000822
:201241000000300000182d8d0000000000000003000181000008e0000000000300878133e0
:09126100a800400020000000007c
:20126a00000002000008f764d0000000000000001000089b0000400030000000220100e009
:0a128a000280000001430000000094
:201294000000000000053955010002000000000000000000008002071cdef4000885007a26
:0912b400bd40000020067ee36845
:2012bd0000000000000000155000001400000000004000000000063c40eb3700000000a50f
:0a12dd004280000043c23c84300050
:2012e70000001800800739550060000780000000000000000062020004aea0000003815e3b
:09130700344086003e07eff1615d
:2013100000000000010004155040000040000000000000000000402401494a00003800c1e2
:0a133000430c000001e3c4eb0000d1
:20133a000000000080000000000000000000000000000000000002600dcd102000050b5b3c
:09135a00b880800004027ee3610a
:201363000000000001000000000000000000000000000000000000060020d1000008d1c0d9
:0a138300438800000023c4943000ea
:20138d0010020000018000000000000000000000000000000000000206ce2020281380528a
:0913ad00450001000602d9f160bf
:2013b6000000000000000000000000000000000000000000000000004010e2000102740569
:0a13d60060b00010000005eb0000fd
:2013e000000000000000029540000000000000000000000000000046c000000040000002ce
:09140000b200010020035ee3418b
:20140900400020000f003016b0000000000000000000000000000026280000000400000507
:0a1429002710000002c03ea430802e
:2014330000000000380063c14000000000000000000000000000016000000000000000821a
:09145300b90080010000dbf1701a
:20145c00800000000080003c3000001c000000000000000000000000000000000028000fb1
:0a147c004360000009c034eb0000db
:201486000000000018c073c1000000003d8a00000000000000000000000000000000010072
:0914a6000000000046035fe34171
:2014af00000000000b00003c1040001c00d0fa00802800000000000020000000010000b027
:0a14cf0000000000000006c4308891
:2014d900000030000000683d02080000040a54000000000000c00000000000000158000099
:0914f90000000c001c7000000052
:201502000000020000000403d00040000000a5000000000000080000000000000028d0808b
:0a15220000000088004400000000f3
:20152c000000000000000000000000e040000000000000000000000014fb040200599d5a1a
:09154c00095600400000000000f7
:201555000000000000000000000000022c000000000000000000000022cef00100001081d6
:0a1575007768240003c000000000a6
:20157f000000000000000000006002020000000000000000006000001ecff4018008003fdf
:09159f0090d000000000000000e3
:2015a800000000000000000000000004000000000000000000000e800150fa004000100beb
:0a15c800e04c0400000000000000e9
:2015d2002000000000057a800000c0068000000008000000000400e78ff5f080000300bfeb
:0915f20090d00000000000000090
:2015fb0001000000000e0c280040000040000000011800000000801e415a7f010028000f04
:0a161b00e62440000000000000007b
:201625000003000000000000000200029eaa000000100000000004e0348a00800008000319
:09164500bc10000000005ca010c4
:20164e0000000000000000000000000033d0fa00801c0000000000840170f5000000b00049
:0a166e0003c000000400010a0000a0
:20167800000000000000000000000200059c561012000000000000e056ca001000001f0008
:091698002950000140000000008f
:2016a1000003800000000000000000240258c000000000000000000239c0fa00000000c5ae
:0a16c100016b0100000000000000b2
:2016cb000000000000000000000000e016c5021000000000000401c01fcf041000001c0649
:0916eb003c10000000300000007a
:2016f400000008000000000000000e023c205030000000000000a016014fd008000000b054
:0a17140003c301000007800000007d
:20171e00000004000000000000c000006fa000200000000000000160400000000007800090
:09173e000000000000280000007a
:2017470008000040000000000004000036d025004001000000000014380000000000080076
:0a1767000000000000000000000078
:2017710000000000000000000000e0e00000000020000000000a01c00000000300000a00a0
:09179100000000000073dea0005e
:20179a0040000000000d00000000000000000000000000000000400020000000200001b0b1
:0a17ba000000000000002f00008076
:0217c400000023
:0217c60011010f
:0217c80001011d
:2017ca000000000000000000000000000000000000000000000000000000000000000000ff
:0917ea00000000000000000000f6
:2017f3000000000000000000000000000000000000000000000000000000000000000000d6
:0a18130000000000000000000000cb
:20181d000000000000000000000000000000000000000000000000000000000000000000ab
:09183d000000000003000000009f
:20184600000000000000000000000000000000000000000000000000000000000000000082
:0a1866000000000000000000000078
:20187000000000000000000000000000000000000000000000000000000000000000000058
:091890000000000000000000004f
:2018990000000000000000000000000000000000000000000000000000000000000000002f
:0a18b9000000000000000000000025
:2018c300000000000004000000000000100000000000004000000000100000000000004061
:0918e300000000000001000000fb
:2018ec000000000000000000000000000000000000000000000000000000000000000000dc
:0a190c0000000000000000000000d1
:2019160000000000000400000000000010000000000000400000000010000000000000400d
:09193600000000000001000000a7
:20193f00000000000000000000000000000000000000000000000000000000000000000088
:0a195f00000000000000000000007e
:2019690000000000000000000000000000000000000000000000000000000000000000005e
:0919890000000000000000c00095
:20199200000000000000000000000000000000000000000000000000000000000000000035
:0a19b2000000000000000004000027
:2019bc0000000000000000000000000000000000000000000000000000000000000000000b
:0919dc0000000000000000000002
:2019e5000000000000000000000000000000000000000000000000000000000000000000e2
:0a1a050000000000000000000000d7
:201a0f000000000000000000000000000000000000000000000000000000000000000000b7
:091a2f00000000000000000000ae
:201a380000000000000000000000000000000000000000000000000000000000000000008e
:0a1a58000000000000000000000084
:201a6200000020000000000000000000000000000000000000000000000000000000000044
:091a82000000000000000000005b
:201a8b00000003000000000000000000000000000000000000000000000000000000000038
:0a1aab000000000000000000000031
:201ab500000000000000000000000000000000000000000000000000000000000000000011
:091ad50000000000000000000008
:201ade000000000000000000000000000000000000000000000000000000000000000000e8
:0a1afe0000000000000000000000de
:201b080000000000000b300d02000000000000000000000000000000000000000000000073
:091b2800000000000000000000b4
:201b31000000000001805ac190000000000000000000000000000000000000000000000068
:0a1b5100000000000000000000008a
:201b5b00000200000100000000000000000000000000000000000000000000000000000067
:091b7b0000000000000000000061
:201b840000000000001a000000000000000000000000000000000000000000000000000027
:0a1ba4000000000000000000000037
:201bae00000000000000000000000000000000000000000000000000000000000000000017
:091bce000000000000000000000e
:201bd7000000200001000000000000000000000000000000000000000000000000000000cd
:0a1bf70000000000000000000000e4
:201c01000000200000000000000000000000000000000000000000000000000000000000a3
:091c2100000000000000000000ba
:201c2a00000001000380000000000000000000000000000000000000000000000000000016
:0a1c4a000000000000000000000090
:201c5400000000000000000000000000000000000000000000000000000000000000000070
:091c740000000000000000000067
:201c7d000000018000000000000000000000000000000000000000000000000000000000c6
:0a1c9d00000000000000000000003d
:201ca70000000000000000000000000000000000000000000000000000000000000000001d
:091cc70000000000000000000014
:201cd0000000000000000000000000000000000000000000000000000000000000000000f4
:0a1cf00000000000000000000000ea
:201cfa000000200000000000000000000000000000000000000000000000000000000000aa
:091d1a00000000000000000000c0
:201d230000000300000e00000000000000000000000000000000000000000000000000008f
:0a1d43000000000000000000000096
:201d4d00000000000000000000000000000000000000000000000000000000000000000076
:091d6d000000000000000000006d
:201d76000000000001800000000000000000000000000000000000000000000000000000cc
:0a1d96000000000000000000000043
:201da00000000000d000000000000000000000000000000000000000000000000000000053
:091dc0000000000000000000001a
:201dc9000000000008000000000000000000000000000000000000000000000000000000f2
:0a1de90000000000000000000000f0
:201df3000002000000000000000000000000000000000000000000000000000000000000ce
:091e1300000000000000000000c6
:201e1c000000000000000000000000000000000000000000000000000000000000000000a6
:0a1e3c00000000000000000000009c
:201e460000000000000000000000000000000000000000000000000000000000000000007c
:091e660000000000000000000073
:201e6f00000020000000000000000000000000000000000000000000000000000000000033
:0a1e8f000000000000000000000049
:201e99000000200010000000000000000000000000000000000000000000000000000000f9
:091eb90000000000000000000020
:201ec2000000010008000000000000000000000000000000000000000000000000000000f7
:0a1ee20000000000000000000000f6
:201eec00000000000000015500000000000000000000000000000000000000000000000080
:091f0c00000000000000000000cc
:201f15000000018005003b95524000000000000000000000000000000000000000000000c4
:0a1f350000000000000000000000a2
:201f3f0000000000000f03d504000000000000000400000000000000000000000000000093
:091f5f0000000000000000000079
:201f6800000000000000d60150000000000000000000000000000000000000000000000032
:0a1f8800000000000000000000004f
:201f9200000020280185b400008003420000000000000000000000000000000000000000e8
:091fb200000000000027f0e5002a
:201fbb0040000300001bbe90000c002004000000000000000000000000000000000000002a
:0a1fdb0000000000000074e8002080
:201fe50000000000b0037fc102000000160f54000000000000000000000000000000001a54
:09200500900000000002500000f0
:20200e0000000000019817dc5000000002dea040000000000000000000000000000000090d
:0a202e00340000000006b7aa00000d
:20203800000000000089403d000000033d0fa400000000000000000000000000000900384e
:09205800028000000000000000fd
:20206100000000000001da00102000060378a0400000000000000000000000000000180dce
:0a208100a141000001600000000012
:20208b0000020000b00f7b9500000000140f5400000000000000000000000000000000d21b
:0920ab00084000200403f80301c1
:2020b400000000000018da095000000632faa040000000000000000000000000000018e8af
:0a20d400244b0004000005ea300070
:2020de0000000000100bc02d000002c0050f540000000000000000000000000000000002ae
:0920fe005a4000002c255c400052
:202107000000200009807a011080003c027ca040000000000000000000000000000018a0b2
:0a212700225b000002006d90000032
:20213100000020000800420000c002c0000f5c00000000000000000000000000000008d857
:0921510001400000000000000044
:20215a0000000100050a5a2000840020706cf5408000000000000000000000000000001d89
:0a217a0021430000000600000000f1
:2021840000000000000f7800000000434000540000000000000000000000000000010003d9
:0921a4001a4000000028000000b0
:2021ad0000000180001cd2a00206003c045a05400000000000000000000000001800800084
:0a21cd00225b00000000000000008b
:2021d7000000000009af780020000040160f54000000000000000000000000000000000bd4
:0921f7000000000014400000008b
:202200000000000005185a2000000020624aa04000000000000000000000000000380183bf
:0a22200004020000e00600000000c8
:20222a000000200000000000004003630000000000000000008003c026eef402000000dfa2
:09224a00100008003c29f00020fe
:2022530000000300000000000004002c0400000000000000000c0020697ce34030000001cf
:0a227300640000c000002e8a000085
:20227d000000080210800000002000220000000000000000002001c00000000080000800fc
:09229d003c183200000000f06062
:2022a60000000000480100000000000e0400000000000000000000060000000000000000b7
:0a22c6002bc12000000001cf06002c
:2022d0000000000000000000000000238000000000000000000003c01e084400000080f0ae
:0922f000297000000028c05a60aa
:2022f900000000000000000000000016000000000000000000000026007a124202807800c1
:0a231900016984000040200a56000c
:202323000002080030000000002036e0340500000000000000200000340c200080000004ed
:092343003c104200000350ff2091
:20234c000000000001000000000000b4020ca0010000000000000006021ec1020000000024
:0a236c003bc1000000000f8df020bf
:2023760000000800010900e100400040030a000000000000000000000f0f0000000018f0a1
:0923960029700000143268ff00f8
:20239f0000002000000a3281108c000038faa0080000000000000006637eb0220000119071
:0a23bf000169000000604fa7f00064
:2023c90000002000100d0000040000000e00540000800000000000000000a00000070d0419
:0923e90003f8000100017a00086c
:2023f20000000100051892a002c0000001da5060000000000000000000de0a001000001026
:0a241200383d0040c9473fa8010013
:20241c000000000050037800000000403c00a2000000000000000003de0de40000000bfae0
:09243c00c00010020000000000c5
:2024450000000180000012a00006000003d800000000000000060000046eb74218000005d5
:0a246500ee0000600002800000009d
:20246f00000000005801403d000000401c8c3080040000000000000035cf000080000b004c
:09248f00000002a000296d4000cc
:20249800000000000398f3801000002003fc6341000000000000000062e9e0000000000018
:0a24b80000000004e146b7b0000088
:2024c20000002000018b682d00000000010f000000000000008000034000000200000000e4
:0924e20000000800024010f04166
:2024eb0040000300001dda0110000000001af04000000000000c00000400000030000000fc
:0a250b00000000c0004601cf048864
:20251500000008000009788500200040000f00000000000000200000000000008000000089
:092535000000022000000000007b
:20253e00000000000380179410000000000ef0400000000000000000000000000000000001
:0a255e00000000040000000000006f
:202568000000000008016c2d20000040000f0000000000000000000000000000000000043e
:0925880003f00100002cf8000032
:20259100800000000118b24110000004201cf040000000000000000000000000000000001e
:0a25b100603d010001e035f8000074
:2025bb0000020800708db00000200000000f00000000000000200000340aa0188000000084
:0925db0000000200000000f040c5
:2025e4000000000000015e2000000004001af0408000000000000000001a554000000000db
:0a2604000000000008e000af06002f
:20260e000000080000a1af95000000440c05a010000000000000004015b0f088000000003d
:09262e0000000000000140a5c0fd
:20263700400020000500d349500000043000a5400000000000000160024a074000000000a5
:0a2657000000000000000005a608c6
:2026610008b42000100b7e69004000001405a0100000000000000003060bc000000000009e
:0926810000000000140000f0410b
:20268a0004800100001806d9502400000200a540000000000000000067f8fd0210000000eb
:0a26aa0000000040000600af04002d
:2026b400800000000003c000000000002c05a00040000000000000600105000000000b0041
:0926d40000000000000140a5c057
:2026dd00000001800180fb28000700000200a540800004000006002c004a50001800000062
:0a26fd000000006001600005a40069
:202707000002000000bbec8000000003800f0010000000000000004034893080a00000009a
:0927270000000200002a4e00002f
:202730000400000005003f8000080000001cf0400000040000000020001a6348c0000000c4
:0a27500000000004000014d040084f
:20275a00000020003107c085018400038000000000000000000000202c8c000200000000e0
:09277a0003f808800200405a41f6
:2027830000000300081cfe94108d800000000000000000000000000e025be40030100000d1
:0a27a300603d01c000e0000a540090
:2027ad000000000000854000000000023f0f50080000000000000004260020000000000055
:0927cd003c182000802000a54109
:2027d600400000000001562000a000003d5ea0000000000000000000306a004280000000f5
:0a27f60073c121101c00440a5400b6
:2028000000008000000f640000040800170fa00000000000000000041787f0000000080851
:0928200002b000000041405a60c2
:202829000000000000001e200040810003daa00040000000000000003b6bbd000000581305
:0a284900e02905040003800a561080
:2028530020000000000100150000000000000000000000000000000034005080000000b07b
:09287300169640000003700240bb
:20287c00810000000000878290000c06000000000000000000000000001a0a2000000008c4
:0a289c000295040000000ee0042085
:2028a60000000000000902a900000144000f501000000000000403402c83f00000000008bc
:0928c6000280000000014800003e
:2028cf0000003000019806155000000e7978f5000000000000002004226b1b0000000003f2
:0a28ef00e0280010006017e0200050
:2028f90000002000100040cd04c00003950f5400000000000000004400000000000000007f
:0929190000000000040000a568a4
:20292200400001000b80038cd08400006218fa4000000000000000242800000010000000d6
:0a294200000000400206840a540061
:20294c000000000011b9014000000266fd0fa40000000000000002e0258010100001000898
:09296c00280000000002c05a40de
:2029750000000180080a0628000600142978a040000000000006002e79eb00405800800333
:0a299500e28000600000200a5400f8
:20299f00000000000005281d21040000140f540004500000000001c6f5f010000000000022
:0929bf000000000e000010f07091
:2029c80040000000001857c11000000002d8a0408002000000000000616800000100000069
:0a29e80000000000006000ef040092
:2029f2000000200010e00000008000022e00d000000000000000000000000000000000bf76
:092a1200040000002c000000008b
:202a1b000000030008000000000c0140776e01428000000000000000000000000000100f7c
:0a2a3b0061e8000000000000000048
:202a45000000000001df410000000002149ff2000000000000000000000000000000900019
:092a650000000000400000000028
:202a6e00000000000189338000c0001c777d7f00000000000000000000000000000038a0e4
:0a2a8e00000000000002000000003c
:202a9800000000000003b800000400000cb0b08000000000000000238000000000050f04b8
:092ab8000b800000000000c000ca
:202ac10000000000030096420000a006736f0440000000000000001c38000000000081c7b2
:0a2ae10068b90800006000cc002076
:202aeb0000020000000d03c1000008001d02000000000000000001c00101f0000380003b60
:092b0b005780000836202050001c
:202b1400000000000300379550000106001e10420000000000000000204c1f22c000700b23
:0a2b3400b43800001740458500008a
:202b3e0000000000000342a9000000438ea3c00000000000000002c035dff00020008008e7
:092b5e002a80000000280000009c
:202b6700000020000000029550000034667b1c0000000000000000200059ef00000018a5f1
:0a2b87006aa800000800000000002a
:202b910000000000000df80001c000003cb0000000000000000000038505a00000051070c0
:092bb100074000000002e0fa00f8
:202bba000000000000187a02000c0100037d08000000000000000000016cea0a0000818070
:0a2bda0028b90804000017cf1020ee
:202be40000000000d0077395000000038100a0000000000000000006c7d0000000000eb370
:092c04000b00000e340010050065
:202c0d00000001800000f2895006000004480a000000000000000000285910001800000b4b
:0a2c2d00f9780000014006c05000d5
:202c37000000000001bd380100000142969201100000000000000ac3aec4a000000000002b
:092c5700000000006403c88000c5
:202c600000000000000a37a01608000003cd00000000000000000174027cdf0000000000b3
:0a2c80000000000014029ec00200d4
:202c8a00000000000100000000800000140f500000000000000000001e0f310002010a7457
:092caa002b000000020360000889
:202cb30000000000001a0000000c001c004ea0004000000000000014016af7020000001900
:0a2cd30033f0080040401dca000065
:202cdd0000000000700b0294400000620d0fa00400000000004001c02df0000000000e56e2
:092cfd003000000000001030005e
:202d060000000000000080169000002e054aa000000000000004002068e8062000000005cb
:0a2d26003390000000678083002056
:202d30000000000000808258800000001480c0040000000000000000030af000000700004d
:092d5000000000002c00c0580036
:202d59000000000000013ea59000001c03f90840000000000000001401ccaf0000000000f6
:0a2d790000000000006024e40020c8
:202d8300002e1018000043d4010001c3840002000000000000000002ad00a08000000e1f7c
:092da3002fc000008001c07f0078
:202dac000000030000001a3d4200000002fa48430000000000000000004a2f02000001c7a1
:0a2dcc007df80000100021cbf0207c
:202dd600000000000000c2800000c046f705f000000000000000000425005000000010041c
:092df600344000000002404a00d4
:202dff0000002000018017a8020000202b6cff00000100000000000671ee0000000000a393
:0a2e1f00eb45280000e005840020c8
:202e29001000000000a0828001c001c78508408000000000000000029705a000130380ba73
:092e49002d40000002396a7400fa
:202e520002000001000053a80004000037ce504202000000000000d40068fb22008090015b
:0a2e720060e00000014025ca4000a6
:202e7c000000000000000000000003c017bff00001000000000000000f0af00000000000a3
:092e9c00000000000400e92e0012
:202ea500000001800100000000060106036ddf00000000000000000023ccff0018007800b1
:0a2ec50000000000020025a000003c
:202ecf000000000000d000000000004006881000040000000000000415a00080000f101fba
:092eef003f4000000425d0000062
:202ef80000000000001f000000080020625a1240000400000000001428e9a100000080a774
:0a2f18007d68000002062e8a00000a
:022f22000000ad
:022f2400110298
:022f26000101a7
:202f2800000000000000000000000000000000000000000000000000000000000000000089
:092f480000000000000000000080
:202f5100000000000000000000000000000000000000000000000000000000000000000060
:0a2f71000000000000000000000056
:202f7b00000000000000000000000000000000000000000000000000000000000000000036
:092f9b00000000000180000000ac
:202fa40000000000000000000000000000000000000000000000000000000000000000000d
:0a2fc4000000000000000000000003
:202fce000000000000000000000000000000000000000000000000000000000000000000e3
:092fee00000000000000000000da
:202ff7000000000000000000000000000000000000000000000000000000000000000000ba
:0a30170000000000000000000000af
:203021000000000000080000000000002000000000080000000000002000000000000080bf
:0930410000000000000200000084
:20304a00000000000000000000000000000000000000000000000000000000000000000066
:0a306a00000000000000000000005c
:2030740000000000000800000000000020000000000800000000000020000000000000806c
:0930940000000000000200000031
:20309d00000000000000000000000000000000000000000000000000000000000000000013
:0a30bd000000000000000000000009
:2030c7000000000000000000000000000000000000000000000000000000000000000000e9
:0930e700000000000000000000e0
:2030f0000000000000000000000000000000000000000000000000000000000000000000c0
:0a31100000000000000000000000b5
:20311a00000000000000000000000000000000000000000000000000000000000000000095
:09313a000000000000000000008c
:2031430000000000000000000000000000000000000000000000000000000000000000006c
:0a3163000000000000000000000062
:20316d00000000000000000000000000000000000000000000000000000000000000000042
:09318d0000000000000000000039
:20319600000000000000000000000000000000000000000000000000000000000000000019
:0a31b600000000000000000000000f
:2031c000000000000000000000000000000000000000000000008b14c0010000000000246b
:0931e00000000000000000800264
:2031e900000000000000000000000000000000000000000008020021c80080000000000152
:0a320900600000000000001000004b
:20321300000000000000000000000000000000000000000000000156800100180411fb801b
:0932330000000002a4ec000001ff
:20323c00800000000000000000000000000000000000000000000014000080000004437c9b
:0a325c00000000001a87e0001c00cb
:203266000000000000000000000000000000000000000000001000d4000000000000db8009
:093286000000010900ec00020047
:20328f0000000000000000000000000000000000000000000000000c20d0b00020004ba464
:0a32af00000000021280d000400071
:2032b900000200000000000000000000000000000000000000103b46f00a00000000002048
:0932d9000000000014ec01c0002b
:2032e2000000000000000000000000000000000000000000000002101f0100000000000199
:0a3302004000000001430900000034
:20330c0000000000000000000000000000000000000000000014900de00800000000000008
:09332c0000000000000080800098
:203335000000200000000000000000000000000000000000000022140e0100000000000112
:0a335500400000000000010e00001f
:20335f0000000000000000000000000000000000000000000000000000000000000000202e
:09337f003800000028da8180000a
:20338800000000000000000000000000000000000000000000000000000000000000000124
:0a33a800c0000000028001000000d8
:2033b200000000000000000000000000000000000000000000000000011c0001000217cef6
:0933d20004040108216d00100043
:2033db000000000000000000000000000000000000000000000000000009000000000bb905
:0a33fb00438020201282d00b000056
:2034050000000000000000000000000000000000000000000000000008010000000000009e
:093425002c020000000000000070
:20342e000000000000000000000000000000000000000000000000000030800000000000ce
:0a344e0002800000000000000000f2
:20345800000000000000000000000000000000000000000000003d54c000000000003e00c5
:09347800000000000000700000db
:203481000000000000000000000000000000000000000000000002800b00000000008db35e
:0a34a1004000000000000080000061
:2034ab00000000000000000000000000000000000000000000001954a0000018000536a001
:0934cb006c0060001561000001b5
:2034d4008000000000000000000000000000000000000000000001abeb00b00000005001c0
:0a34f400c28000000280a00b00005f
:2034fe00000000000000000000000000000000000000000000129017e50a00004047768683
:09351e000000000000000000089c
:203527000000000000000000000000000000000000000000000001280d78a0000001d0ed78
:0a354700c0000000000000000800b2
:20355100000200000000000000000000000000000000000000000000000800004242562056
:0935710068000010446d00f1c077
:20357a000000000000000000000000000000000000000000000000000001b000008050b5fb
:0a359a00c0000000222cc00c00004d
:2035a400000000000000000000000000000000000000000000002a4eb80800000000001eb1
:0935c40004000001404058100011
:2035cd000000200000000000000000000000000000000000000001ab4a10000000000000b8
:0a35ed0023c000002802f50c0000c6
:2035f700000000000000000000000000000000000000000000149007d018008000055386c3
:093617000000011821ed0181c041
:203620000000000000000000000000000000000000000000000001280c00b01400005080c1
:0a364000000000001281c00000002d
:20364a000000000000000000000000000000000000000000500000000800000040ed3ac0e1
:09366a00600000000000500000a7
:2036730000000000000000000000000000000000000000000000000000100000000840e4fb
:0a36930040000000000000000000ed
:20369d000000000000000000000000000000000000000000000000000000000042401a4031
:0936bd0000000000000001e00023
:2036c6000000000000000000000000000000000000000000000000000000b0000884a07494
:0a36e60000000000000000000000da
:2036f0000000001008236680000000a4e1980000000000000001883c900f08000205384091
:093710003800001b1cec80108045
:20371900000000000054140000000000fd00800000000000080020014d01a0000000a034c0
:0a373900028000003086d10f10005e
:2037430000000010f12000400610005780010018000000000000bdcfa000401806013a40fa
:093763000030600a3fdc80000127
:20376c00800000000f040028000200040000800000000000000007fc6e000a00000007b0ca
:0a378c00000000c2036ccf00000033
:2037960000000030a12e00000010821de000000000000000000000000001000c02015740de
:0937b6000040080b1ced1800c0d6
:2037bf0000000000a0078400000000402e000000000000000000000000008000601003342a
:0a37df000280002030a690000000d8
:2037e90000020010f160068000008a3600180000000000000004820fa00e000006053b4036
:093809000470000a3f5a1010007f
:20381200000000000f00000000000051c900000000000000000000006e000000000000b04f
:0a38320003800002036fc0080000cd
:20383c0000000020892400000000901e981e0000000000000000028c0018000002053bc093
:09385c000004001a3f6d01fa009e
:20386500000020001073000000000043c85100000000000000040014080000801010003450
:0a3885000305000003bccb1c00008b
:20388f000000000000000040000094161001008000000000000000000000400000013a40e3
:0938af00200204091f6d3980009c
:2038b8000000000000000020000002800e00a010000000000000000000f09000000007b356
:0a38d800c000400030ced08d0c007f
:2038e200000000000000000000412bcded9a00000000000000003d5eb0000000c2005a009f
:09390200600000000000018000db
:20390b000000000000000000000000281810000000000000000011400c00c00000140038e3
:0a392b000704000000000000400047
:203935000000000000000700000000000001000000000000200000000000400c020538407f
:09395500000030000000500000e9
:20395e00c0000000000000400000000000b0d00000000000040000000000fbc04810a0b062
:0a397e00000001000000000000043a
:20398800000000000000000000000055b00a000000000000000000000000000002405ac0b4
:0939a800000000223d4f00000464
:2039b1000000000000000000000000006b00e000000000000000000000000000000257a4ae
:0a39d10000000000039fa0000000aa
:2039db00000000000000000000001414900001400000000000000000000000180290980091
:0939fb00040060023d4c80a000b4
:203a04000000000000000000000000002a00000800000000000000000000000008060db2a3
:0a3a2400c2000002034ef300000090
:203a2e000000000000000000005009549500000000000020000000000000400c000532860d
:093a4e0004000000ce7b500200d0
:203a57000000000000000000000000002b7800000000000000000000000000004000500319
:0a3a770042050000000ded80000084
:203a8100000200000000000000000036850140000000000000000000000e000042e01ae0fd
:093aa1002000010004f90090006e
:203aaa000000000000000000000212016b08fa00000000000000000000010000000200ec8b
:0a3aca00440000200003a11d0000cd
:203ad40000000000000000000000000000000000000000001001b7eff00020000248d6c02b
:093af40060000000000083900056
:203afd000000200000000000004000000000000100000000000007fd4e000401000811e4f4
:0a3b1d00000004000000091d001064
:203b2700000000000000000000000000000000000000000000000000001c002000055600e7
:093b47000000004286cf8010143a
:203b5000000000000000000000000000000000000000000000000000000100000000508084
:0a3b70000000000416de8f0d0000b7
:203b7a0000000000000000000000000000000000000000000000000000000000c20276e011
:093b9a00600000000000818000c1
:203ba30000000000000000000000000000000000000000000100000000000001000a50e4c2
:0a3bc3004240040000000910001049
:203bcd00000000000000000000000000000000000000000000000000000f000c00a05800c5
:093bed000000000000000090142b
:203bf6000000000000000000000000000000000000000000000000000001d001414500381f
:0a3c1600000000000000001d008007
:203c200000000120f58000000002140ea11e00000000000000004001a01b0000064832147b
:093c40003800004991de18100063
:203c4900000000000f003c02000813d41e90000000000000080100001000a000203ed92a57
:0a3c690046800000561d8008000090
:203c730000000000000000000600005cc000001800000000000043c4800100180648329c3b
:093c930000006048156900000101
:203c9c0080000000000000000000002a6a000000000000000000003c0000e000003deda00e
:0a3cbc00000000000002e00000001c
:203cc6000000000000000000020009d40d00800800000000000043c48000000c0005163686
:093ce6007800204a3fcc001000d8
:203cef0000000000000000000020206fcbb0a400800000000000003c00000000c00000e388
:0a3d0f00e0000380037e800800003e
:203d1900000200000000004000119a9dd180008000000000000143c4c00000000000000067
:093d39000000000a95ec181000ce
:203d4200000000000000003c00020d583f000004000000000000003c10f0f000000000004f
:0a3d62000000008016569088000053
:203d6c00000000000000000000000014880000000000000000009225b8000000000000200c
:093d8c006c00081a3f6c71c014b0
:203d95000000200000000000004000281c1090c10000000000080f78c8f0000100000001c0
:0a3db50043c00400037d809d0090d0
:203dbf00000000000000000000101d14e8180000000000050000000000014000040f3b44cb
:093ddf00040000000000000000d7
:203de8000000000000000000000001d0301000000000000000000000000082000005f034ff
:0a3e080023c60000000000000000c7
:203e12000000000000000000000100148198000000000000000000000700000000ff00005c
:093e320000000000000080f00017
:203e3b00000000000000000000446008df000015000000000000000000080001004ff0007f
:0a3e5b00000004000000010e00103a
:203e6500000000000000000000118b96c800000c00000020000000000000000c000000000b
:093e850002803000000010100062
:203e8e00c00000000000000000000dd038f0000040000001000000000000000140000000cd
:0a3eae00000005000000058d01442e
:203eb80000000000000000000000000000000000000000000000be9dc01a000000000000b5
:093ed80000000000156e0002005c
:203ee1000000000000000000000000000000000000000000600045402a00000000000000b2
:0a3f0100000000000141070040002d
:203f0b000000000000000000000000000700000000000000000000000000001800309800af
:093f2b00000000017c7a01e001b4
:203f34008000000000000000000000000008000000000000000000000000000000030f8350
:0a3f5400402000000140f01e0800ac
:203f5e00000000000000000000000000000000000000000000002bd5e51a800e0005582039
:093f7e002000014a40d8808014a3
:203f87000000000000000000000000000000000000000000000000142ad800004000a0bf65
:0a3fa700c400004030009510000037
:203fb100000200000000000000000000050000000000000000108e14e00000000000000057
:093fd100000000011cfb81f0005e
:203fda000000000000000000000000000008000000000000000004f8280000000000000398
:0a3ffa0040000000077ca118000041
:2040040000000000000000000000000000000800000000000001828cf01e400000a1b3944f
:094024000000090b80dc008100a2
:20402d000000200000000000000000000000000000000000000000195e00000000051fa810
:0a404d00000000041001a0000000b4
:20405700000000000000000000002bcfb70100000000000000000000001c0000404738407c
:0940770000000001976e9800148e
:204080000000000000000000000000281900f0000000000000000000000100000008b0be78
:0a40a000400000002575b109008002
:2040aa0000000000000000000010305dd00100000000000000000000000e000240e37ad605
:0940ca000002010900edb0000044
:2040d30000000000000000000000031c1b00e000000000000000000000300000000830e467
:0a40f300038000041282d1000000d7
:2040fd00000000000000000000000000000000800000000000000000001d000c00000014e6
:09411d00000000014168000000ef
:204126000000000000000000000000000000001400000000000000000001d0004000000054
:0a41460060000000140100000000fa
:20415000000000000000000000000015d18100000000000000252976cd80000000a57b00b7
:094170000000082bc0c000000093
:2041790000000000000000000000028018b0800000000000080201ab7db000001046a5f48a
:0a419900000000043c0000000000dc
:2041a300000000000000000000000000000000180000000000000335c5a00019024732c0f3
:0941c3002e80602000ff000001c5
:2041cc008000000000000000000000000000b0080000000000020011e93800000000fbbcb0
:0a41ec00021000000140f000000086
:2041f600000000000000000050002814930000000000000000103156c980000d02a57b007b
:0942160068003000000000000007
:20421f000000000000000000020000001800d000000000000008031420b000004006a5f4c7
:0a423f00040501000000000000006b
:2042490000020000000000000004297490010000000000000011a0d6f5800000164732c0d6
:09426900028000000000000e00bc
:2042720000000000000000004202415afe50800000000000000a038c3bf800002000fbbcdc
:0a4292000010400000000000400092
:20429c00000000000000002000102015d00100000000000000e1a976bb880010023efb94aa
:0942bc000280000001de00800018
:2042c5000000200000000001000003801800f0000000000000040197791901c0001387a9fb
:0a42e500401000000283f00000000a
:2042ef0000000000000000000000000001800100000000000020a166900040500405762047
:09430f0028000000000000001469
:204318000000000000000000000000000000000800000000000002b77900c00801005080b2
:0a43380044000000000000090080ae
:20434200000000000000000000000157a80000000000000000a0a976b38020020a0d9f167b
:09436200020000000000b8001484
:20436b0000000000000000000000017c181000000000000000000197790800002008fb2829
:0a438b000340000000000580000060
:2043950000000000000000000053b1cde01f0000000000000060a1669001000c0000002014
:0943b5003005b00013c081c00006
:2043be0000000000000000010000030c0f00b40000000000000012b779008000400000000a
:0a43de0040002900023ef710000025
:2043e80000000000000000000000000003800000000000000000006f800000000001f0460c
:094408000000000006fd18808090
:204411000000000000000000000000000000000000000000000000014e00000010002928db
:0a44310020000000000df08f1c4079
:20443b00000000000000400000400017d5000000000000000010344ef008000000055e20e8
:09445b000000000007e900000068
:204464000000000000000000400001403f000000000000000000036c1d0100000000007b70
:0a448400c0000000001ec000000090
:20448e00300000000000000000000000050100000000000800100756c500080040c513403e
:0944ae0000000101e9c8980400b6
:2044b7000300000000000000000000000000c000000000010000003c1b000000000c00f0ce
:0a44d700000000000941f980040014
:2044e100000200000000004000000000050014000000000000001535d00c000040c57700be
:094501007c00000160ce00040002
:20450a00000000000000002800000000000000000000000000000292fe01f000000c50c1c9
:0a452a0042a0000036b5e0000000da
:204534000000000000000000000002948000000000000000500000000700000040c15e8e0d
:094554000000010309c8801000f9
:20455d0000002000000000000000102810000000000000000200000000000000004c70bc5c
:0a457d002000000030c0b10800006b
:2045870000000000000000000010001eb000000000000000000000000d8e0000000000009b
:0945a70004400002914c39d200dd
:2045b00000000000000000000000020039900000000000000000000000b9e0000000000087
:0a45d00042400020295f809d40203a
:2045da000000000af1e8000003000000000000000000000000000000018e00000000000448
:0945fa00047000000000700000d4
:2046030000000000af080000002000000000000000000000000000000009000000000000b7
:0a462300230600000000000900005b
:20462d000004000000000000000000000780400000000000000000000000000000000000a2
:09464d0000000000000030100024
:2046560000024000000000000000000000980a0000000000000000000000c00000000000a0
:0a467600000000000000000d00002d
:02468000000038
:02468200110322
:02468400010132
:20468600000000000000000000000000000000000000000000000000000000000000000014
:0946a6000000000000000000000b
:2046af000000000000000000000000000000000000000000000000000000000000000000eb
:0a46cf0000000000000000000000e1
:2046d9000000000000000000000000000000000000000000000000000000000000000000c1
:0946f900000000000000000000b8
:20470200000000000000000000000000000000000000000000000000000000000000000097
:0a472200000000000000000000008d
:20472c0000000000000000000000000000000000000000000000000000000000000000006d
:09474c0000000000000000000064
:20475500000000000000000000000000000000000000000000000000000000000000000044
:0a477500000000000000002c00000e
:20477f0000000000000800000000000020000000000800000000000020000000000000804a
:09479f000000000000020000000f
:2047a8000000000000000000000000000000000000000000000000000000000000000000f1
:0a47c80000000000000000000000e7
:2047d2000000000000080000000000182000000000080000000000002000000000000080df
:0947f200000000000002000000bc
:2047fb0000000000000000000000000000000000000000000000000000000000000000009e
:0a481b000000000000000000000093
:20482500000000000000000000000000000000000000000000000000000000000000000073
:0948450000000000040000000066
:20484e0000000000000000000000000000000000000000000000000000000000000000004a
:0a486e000000000000c00000000080
:20487800000000000000000000000000000000000000000000000000000000000000000020
:0948980000000000000000000017
:2048a1000000000000000000000000000000000000000000000000000000000000000000f7
:0a48c10000000000000000000000ed
:2048cb000000000000000000000000000000000000000000000000000000000000000000cd
:0948eb00000000000000000000c4
:2048f4000000000000000000000000000000000000000000000000000000000000000000a4
:0a4914000000000000000000000099
:20491e00000000000000000000000000000000000000000000000000000000000000000079
:09493e0000000000000000000070
:20494700000000000000000000000000000000000000000000000000000000000000000050
:0a4967000000000000000000000046
:20497100000000000000000000000000000000000000000000000000000000000000000026
:094991000000000000000000001d
:20499a000000000000000000000000000000000000000000000000000000000000000000fd
:0a49ba0000000000000000000000f3
:2049c4000000000000000000000000000000000000000000000000000000000000000000d3
:0949e400000000000000000000ca
:2049ed000000000000000000000000000000000000000000000000000000000000000000aa
:0a4a0d00000000000000000000009f
:204a170000020000000000000000000000000000000000000000000000000000000000007d
:094a370000000000000000000076
:204a4000000000000000000000000000000000000000000000000000000000000000000056
:0a4a6000000000000000000000004c
:204a6a0000000000000000000000000000000000000000000000000000000000000000002c
:094a8a0000000000000000000023
:204a93000000200000000000000000000000000000000000000000000000000000000000e3
:0a4ab30000000000000000000000f9
:204abd000000000000000000000000000000000000000000000000000000000000000000d9
:094add00000000000000000000d0
:204ae6000000000000000000000000000000000000000000000000000000000000000000b0
:0a4b060000000000000000000000a5
:204b1000000000000000000000000000000000000000000000000000000000000000000085
:094b30000000000000000000007c
:204b390000000000000000000000000000000000000000000000000000000000000000005c
:0a4b59000000000000000000000052
:204b6300000000000000000000000000000000000000000000000000000000000000000032
:094b830000000000000000000029
:204b8c00000000000000000000000000000000000000000000000000000000000000000009
:0a4bac0000000000000000000000ff
:204bb6000000000000000000000000000000000000000000000000000000000000000000df
:094bd600000000000000b0000026
:204bdf00440000000000000000000000000000000000000000000000000000000000000072
:0a4bff000000000000000800000c98
:204c090080000000000000000000000000000000000000000000000000000000000000000b
:094c290000000000000000000082
:204c3200000000000000000000000000000000000000000000000000000000000000000062
:0a4c52000000000000000000000058
:204c5c00000000000000000000000000000000000000000000000000000000000000000038
:094c7c000000000000000000002f
:204c850004000000000000000000000000000000000000000000000000000000000000000b
:0a4ca5000000000000000000000005
:204caf000002000000000000000000000000000000000000000000000000000000000000e3
:094ccf00000000000000000000dc
:204cd8000000000000000000000000000000000000000000000000000000000000000000bc
:0a4cf80000000000000000000000b2
:204d0200000000000000000000000000000000000000000000000000000000000000000091
:094d220000000000000000000088
:204d2b00000020000000000000000000000000000000000000000000000000000000000048
:0a4d4b00000000000000000000005e
:204d550000000000000000000000000000000000000000000000000000000000000000003e
:094d750000000000000000000035
:204d7e00000000000000000000000000000000000000000000000000000000000000000015
:0a4d9e000000000000000000000803
:204da8000000000000000000000000000000000000000000000000000000000000000000eb
:094dc800000000000000000000e2
:204dd1000000000000000000000000000000000000000000000000000000000000000000c2
:0a4df10000000000000000000018a0
:204dfb00000200000000000000000000000000000000000080000000000000000000000016
:094e1b000000004fc0200000005f
:204e240000000000000000000000000000000000000000000000000000000000000000006e
:0a4e440000000024bc1e0000000066
:204e4e00000000000000000000000000000000000000000000000000001e00000000000026
:094e6e002400060fc02000000022
:204e7700440000000000000000000000000000000000000000000000000080000000000057
:0a4e970000000000bc1e0100000c2a
:204ea100800000000000000000000000000000000000000000000000001000000000000061
:094ec1004000000e940f000000f7
:204eca000000000000000000000000000000000000000000000000000001a0000000000027
:0a4eea000380000096801000000015
:204ef400000000000000000000000000000000000000000000000000001000000000003c52
:094f14003800004fc0209000009d
:204f1d000400000000000000000000000000000000000000000000000001800000000000ef
:0a4f3d0000400000bc1e0800000048
:204f4700000200000000000000000000000000000000000000000000000000000000000048
:094f67000000000002ea00000055
:204f7000000000000000000000000000000000000000000000000000000000000000000021
:0a4f9000000000400066b0000000c1
:204f9a000000000000000000000000000000000000000000000000000000000100001a805c
:094fba0034000400280000000886
:204fc3000000200000000000000000000000000000000000000000000000000000004dbda4
:0a4fe30060400000029680180100f3
:204fed0000000000000000000000000000000000000000000000369ce0000000008b9200d5
:09500d0028000000000000d000a2
:20501600000000000000000000000000000000000000000000000398ff0000000000557813
:0a5036000000000000000001000867
:205040000000000000000000000000000000000000000000000000000000000000000b80c5
:095060000000000000000800003f
:2050690000000000000000000000000000000004000000000000000000000000000053f4dc
:0a50890007800000000003800018fb
:205093000002000000000000000000000000000000000000000000000000000000000014e7
:0950b30038000000000000d010dc
:2050bc000000000000000000000000000000000000000000000000000000000000000000d4
:0a50dc000000000000000001008049
:2050e600000000000000000000000000008e00000000000000000000000e000000000034da
:095106003c000000004b00e00039
:20510f004000000000000000000000000070100000000000000000000000101000000000a0
:0a512f0000000000006fb001000c4a
:20513900000000000000000000000000000000000000000000002e029d0f0000000000007a
:095159003c00060fc000900001ab
:205162000000000000000000000000000000000000000000000101f84d00100000000000d6
:0a51820006000062bc1408000000e3
:20518c000000000000000000000000000000000000000010000420e4a000000000a3079c05
:0951ac0038000049680a00900077
:2051b5000000000000000000000000000000000000000000000400066b00000004003572ba
:0a51d50000400000a94000010000a6
:2051df0000020000000000000000000000000000000000000000000000100000000a081c70
:0951ff003800000fc0000004019b
:205208000000000000000000000000000000000000000000000000000000a180000af1fa70
:0a522800e0000000bc140000a0002c
:20523200000000000000000000000000000c00000000000000000000000e00000000000042
:0952520060000000000a10800059
:20525b00000020000000000000000000000000000000000000000000007010000000000093
:0a527b0002400000014fb81b0000c4
:205285000000000000000000000010bcb08001000000000000002bc3bd000000000017004a
:0952a50040000401441800f0145b
:2052ae000000000000000000000000077e7000000000000000080015cb01a0000002077cdd
:0a52ce0003800090285e8001008834
:2052d800000000000000000000000000000000000000000000000000078a00020001f780ab
:0952f80000000000000a01800022
:205301000000000000000000000000000000000000000000000000000070100000000b31d0
:0a53210060000000014fb00b0018ff
:20532b00000000000000000000000000000000000000000080002f548080000310817680d5
:09534b0029300001745c08a14343
:205354000000000000000000000000000002000000000000000202e1ef300000000475b406
:0a5374000061000017bef500000004
:20537e0000000000000000000000021fb090000000000000000414deb70b00000000002ec8
:09539e004000001003cd11f000e5
:2053a700080000000000000000000001ea11e000000000000000028cc181e0000000000250
:0a53c700e2800000011ed81800006b
:2053d100800000000000000000000000091900000000000000000000070d000000af03c292
:0953f10024000000002c900000d3
:2053fa000000000000000000000000000000800000000000000000000081e0000085f30436
:0a541a00400000000157cf000080a1
:20542400000000000000000000000000098000000000000000000000071000000000003c8c
:0954440000000013001f098000a4
:20544d000400000000000000000000000070000000000000020000000001e00000000002e6
:0a546d0007800010314fb118000055
:205477000000000000000000000000000000001000000000000417c0db8ba0100000000014
:095497000080000002ec9090027c
:2054a000000000000000000000000000000000000000000000000015fdb8014000000000e1
:0a54c000c7900000010fc8010000b2
:2054ca000000000000000000000000000000000000000000000029fdcd00000000013ec2ce
:0954ea0000000001027ad8000064
:2054f300000000000000000000000000000000000000000000004007dd00010000000d68ff
:0a55130040080080000ce1000000d9
:20551d000000000000000000000000000d00000000000028000011c2d00e0000002017e46d
:09553d002c000000141c00800089
:2055460008000000000000000000000000300000000000000003022d600010000000053135
:0a5566004000001022df900000005a
:20557000800000000000000000001280e000000000000000000022d4d00000000053000010
:0955900000000000000b080014eb
:20559900000000000000000000010001ee0000000000000000000014de000000040a37804b
:0a55b90000000000015ed100008038
:2055c300000000000000000000003fc7d00f000000000010008036aec00000800000fb40f4
:0955e3002400000002ec08018024
:2055ec000400000000000000000003ecef0010000000000280000399ca00000400001fbce6
:0a560c0000000000010fc78000003d
:20561600000000000000000400000000000b000000000000000000000f8080000000000056
:0956360070600000000008000093
:20563f000800000000000000000000000000d000000000000000000000f80000000000007b
:0a565f000700000000000500000035
:205669008000000000000000000000000f0000000000000000000000000f0000000000344f
:09568900000000000000b8f00070
:205692000000000000000000000000000000000000000000000000000000000400000000f4
:0a56b2000700000000000d000000da
:2056bc000000000000000001100000000d0000000000000000000083ff0f00000000003ce3
:0956dc0000000401500c70e40010
:2056e500040000000000000000000000008000080000000000050000fb01e0040000000232
:0a570500020400102917cf00204015
:20570f000002000000000000000000000f000000000000280000000c901b0000000000008a
:09572f00380002414c0000c000ea
:20573800000000000000000000000000008000000000000000000202ce01f000000000000e
:0a5758000004003028d4000800000f
:20576200000000000000000220000281e0000000000000000004000fc08b00000004d386e7
:095782002802000001ef00000004
:20578b000000300000000000800002bd5d01e00000000000000000105f10020000018fbc84
:0a57ab00e0280000005ec0080000c6
:2057b50000000000000000000000305fb390000000000000000000000000000000810af483
:0957d50042060003fcef00800015
:2057de00080000000000000000000207d838a00000000000000000000000000004047774f7
:0a57fe00029010803f9cf0010800ab
:20580800800000000000000000000000009000000000000000000007c0100000000372bc68
:095828000040004109cf0000001e
:205831000000000000000000000000000051e00000000000000800065f01c00000027b2c4f
:0a5851000000000420400580000064
:20585b00000200000000000000040016d000000000000000d0800140cf00800000ef9f4291
:09587b00003500400bfd00014264
:2058840004000000000000000000000758000000000000000000000178800000200afd255c
:0a58a40040002004000f9000008077
:2058ae00000000000000000000002140c100000000000000000417c1b000180000000024f0
:0958ce0000000000000c000008bd
:2058d700000000000000000000010394c80000000000000000000028fe70080800000001aa
:0a58f700c30000000154d00e0100b0
:2059010000000000000000100000143d800f000000000000000122c30d0da0000000003eb8
:095921007d000000000010800070
:20592a000000000000000002800001d07f781000000000000201022dc800140000000001f4
:0a594a00c2c800000000011e10009a
:20595400000000000000000000000000000e00000000000000000d07bb0d00000000bb028c
:0959740000000000000010d00446
:20597d000000000000000000000000000000100000000000400001ebec801000000021fc35
:0a599d00e78000000000019b0000fd
:2059a700000200000000000300000000000e00000000000050400037a70c200000025beee8
:0959c70000000402881c00d0005d
:2059d0000000000000000000000000000000d00000000001020000404b80140000000bb109
:0a59f000c2000010285dd000000086
:2059fa0000000000000000000000128c9000000000000000000000000000000000f3ff80ed
:095a1a0080000000000f000000f4
:205a23000000300000000000000002b4ec00000000000000000000000001c000080a3b780b
:0a5a43000f800000281de0000000a5
:205a4d000000000000000000000000000d801c00000000105000008cc300000000000000e1
:095a6d000000000000000100002f
:205a760000000000000000000000000000500000000000028204029dd9f0000000000000d0
:0a5a9600069000000000000a000066
:205aa000000000000000000000000000071f00000000000000003882900040400000b3ec57
:095ac00000000000282000000095
:205ac9000000000000000000000000000081f0000000000000031344e001c2000040172ace
:0a5ae90000000000028ee000000043
:205af300000200000000000000003fe5b0881c00000000000000163ec0000020000076402f
:095b130000600000280f000000f2
:205b1c0000000000000000000000029fca78100000000000000000235938000001020b3480
:0a5b3c0000000004015c000000807e
:205b4600000000000000040000000000011000000000000000000000000000000000000c1e
:095b660000000000000030d00036
:205b6f000800000000000060000000000000e000000000000000000000000ac00000000202
:0a5b8f00001000000000081c0000d8
:205b9900800000000000000000000000018c0c0000000000000000000b10000000a502020f
:095bb9002c0000000000000400b3
:205bc2000000000000000000040000000038100000000000000000000001c000108a0724f1
:0a5be2004000000000000000200059
:205bec00000000000000234000002e1df000000000000006000000000310000100c50c060a
:095c0c00400000130c1800800098
:205c15000400000000001404600002814f00000000000000000000000080e000040c53b1ad
:0a5c3500e2070010308f900000001d
:205c3f000002000000002000000039c1e50c000000000000004031410b000000004207d45e
:095c5f00000000026a4cf0d000c4
:205c68000000000000001400000d0a040f8010000000000000010b146a80e000040473b336
:0a5c8800e000000016a6a8010000cd
:205c92000000000000000000000022c0000d000000000000000039c0bb80000000af03c05d
:095cb20000000840283000000049
:205cbb0000002000000000000001022d68019000000000010001020409b80000000051acba
:0a5cdb0000000001028680000000b6
:205ce5000000004423f8000000002d4ff00000080000000000000d16bb00200800000000c6
:095d05004000080205cd00f80081
:205d0e000000000085bb400000000081f830e000c0000000000041e9dd8084108000000110
:0a5d2e0062a00000007f8001000069
:205d38000000000000000000000611c2000000000000000000201da4c08000000000000051
:095d580034010002e3c8910000cf
:205d610000000000000000000001091d5e78000180000000000002d7cb38e0018000000067
:0a5d8100004000000f2df0080000a4
:205d8b0000020000000000000000013d80090000000000208000296edf0a000100af0ec091
:095dab00007000000000900000ef
:205db4000000000000000000000002257800000000000000000042576c801000000053a0a8
:0a5dd40066800000000000000000df
:025dde000000c3
:035de00062003f1f
:035de300720080cb
:025de6001100aa
:035de80082000036
:025deb000103b2
:085ded00000000000c000000a2
:085df500000000000c0000009a
:085dfd00000000000c00000092
:085e0500000000000c00000089
:085e0d00000000000c00000081
:085e1500000000000c00000079
:085e1d00000000000c00000071
:085e2500000000000c00000069
:085e2d00000000000c00000061
:085e3500000000000c00000059
:085e3d00000000000c00000051
:085e4500000000000c00000049
:085e4d00000000000c00000041
:085e5500000000000c00000039
:085e5d00000000000c00000031
:085e6500000000000c00000029
:085e6d00000000000c00000021
:085e7500000000000c00000019
:085e7d00000000000c00000011
:085e8500000000000c00000009
:085e8d00000000000c00000001
:085e9500000000000c000000f9
:085e9d00000000000c000000f1
:085ea500000000000c000000e9
:085ead00000000000c000000e1
:085eb500000000000c000000d9
:085ebd00000000000c000000d1
:085ec500000000000c000000c9
:085ecd00000000000c000000c1
:085ed500000000000c000000b9
:085edd00000000000c000000b1
:085ee500000000000c000000a9
:085eed00000000000c000000a1
:085ef500000000000c00000099
:085efd00000000000c00000091
:085f0500000000000c00000088
:085f0d00000000000c00000080
:085f1500000000000c00000078
:085f1d00000000000c00000070
:085f2500000000000c00000068
:085f2d00000000000c00000060
:085f3500000000000c00000058
:085f3d00000000000c00000050
:085f4500000000000c00000048
:085f4d00000000000c00000040
:085f5500000000000c00000038
:085f5d00000000000c00000030
:085f6500000000000c00000028
:085f6d00000000000c00000020
:085f7500000000000c00000018
:085f7d00000000000c00000010
:085f8500000000000c00000008
:085f8d00000000000c00000000
:085f9500000000000c000000f8
:085f9d00000000000c000000f0
:085fa500000000000c000000e8
:085fad00000000000c000000e0
:085fb500000000000c000000d8
:085fbd00000000000c000000d0
:085fc500000000000c000000c8
:085fcd00000000000c000000c0
