:02000000ff00ff
:080002004c6174746963650030
:17000a00694345637562653220323031372e30382e32373934300069
:16002100506172743a2069434534304858314b2d545131343400fc
:1b003700446174653a204d617920323020323031392032333a35303a31300082
:0200520000ffad
:040054007eaa997e69
:02005800510055
:02005a0001059e
:03005c00920020ef
:03005f0062014bf0
:0300620072009099
:0300650082000016
:02006800110085
:02006a00010192
:20006c00000000000000000000000000000000000000000000000000000000000000000074
:09008c000000000000000000006b
:2000950000000000000000000000000000000000000000000000000000000000000000004b
:0a00b5000000000000000000000041
:2000bf00000000000000000000000000000000000000000000000000000000000000000021
:0900df00000000400000000000d8
:2000e8000000000000000000000000000000000000000000000000000000000000000000f8
:0a01080000000000000000000000ed
:2001120000000000000000000000008000000000000000000000000000000000000000004d
:09013200000000000000000000c4
:20013b0000000000000000000000000900000000000000000000000000000000000000009b
:0a015b00000000000000000000009a
:200165000000000000040000000000001000000000000040000000001000000000000040d6
:0901850000000040000000000031
:20018e00000000000000000000000000000000000000000000000000000000000000000051
:0a01ae000000000000000000000047
:2001b800000000000004000000000000100000000000004000000000100000000000004083
:0901d8000000000000010000001d
:2001e1000000000000000000000000000000000000000000000000000000000000000000fe
:0a02010000000000000000000000f3
:20020b000000000000000000000000000008000000000000000000000000000000000000cb
:09022b00000000000000000000ca
:200234000000000000000000000000000000c00000000000000000000000000000000000ea
:0a02540000000000000000000000a0
:20025e00000000000000000000000000000000000000000000000000000000000000000080
:09027e0000000000000000000077
:20028700000000000000000000000000000000000000000000000000000000000000000057
:0a02a700000000000000000000004d
:2002b10000000000000000000000000000000000000000000000000000000000000000002d
:0902d10000000000000000000024
:2002da00000000000000000000000000000000000000000000000000000000000000000004
:0a02fa0000000000000000000000fa
:2003040000000000000000000000000000000000000000000080000000000002000b809636
:0903240083900800006adf4240ea
:20032d0000000000000000000000000000000000004000000000000000000000000018f761
:0a034d006420000000020ee3d0005f
:2003570000020000000000000000000000000000000000000060000001ca0001800000bf19
:090377005f800600066acca000bc
:2003800000000000000000000000000000000000000000000000000000d050000000000b32
:0a03a000782800000000060fa000fe
:2003aa00300300000000000000000000000ff1000000000000c000060da802200000003e25
:0903ca008d4080000002df1e409e
:2003d3000300200000000000000000000000ff01000000000004000003600000000070010f
:0a03f30000d8040000000eefc00067
:2003fd000002000000000000000000000000000028000000000000001cbd44000000009702
:09041d00b71000000003fc7d4053
:2004260000002000000000000000000000000000010000000000002400fff0180000d0fd9d
:0a044600a3dc000000039cd5f000c9
:20045000000000000000000000000000000000000000000000000142800000000000009633
:090470009e9000002029d81a001a
:2004790000002000000000000000000000000000000000000000000020000000000000071c
:0a049900667800000042dff7500013
:2004a3000000000000000000000000000000000000000000000000000ea550000001999705
:0904c300939000003c065f4240ea
:2004cc00000000000000000000000000000000000000000000000014281055010000708d71
:0a04ec00a018000001420ff3e00029
:2004f600000000000000000000000000000000000000000000040002acc4100408000096be
:090516009f9000001e67fc1e40ce
:20051f0000000000000000000000000000000000000000000000000003ebd00000180007df
:0a053f0067d8000000023e930000a0
:20054900000402800000000000000000000000000000000000c000028feaa0030009000025
:0905690059904c00146cdd3e00b9
:200572000002801000000000000000000000000000000000000800002010aa0120001805b7
:0a059200366401800142a7b2600048
:20059c00000100000000000000000007a085f3000000000000800002800000020000191ae8
:0905bc00f510080426047f4840f4
:2005c5000000000000000000000000000150af20000000000000000000000000000000f7ff
:0a05e5003bc0040001423ce1e000cd
:2005ef0000030000000000000000016035cdf12000000000006000062de05001800380fbb3
:09060f00bc1446002403ef1a405c
:200618000000000000000000000000020060ff01000000000000000042c0a50100000001b7
:0a06380002a8000001601d8200000e
:20064200000000000000000000000003a08f5000000000000000000025c77000001b001b84
:09066200f510000034007f4a404d
:20066b000000200000000000000000007950fa00400000000000000002fc880000001807a7
:0a068b007bc0040084433ce26000e1
:200695000002000000000000000005c037caa00000000000000020002dd14200000998f7e5
:0906b500b1900000002a58510028
:2006be0040000000000000000000008200400000000000000000000c02de2c0000001001f1
:0a06de00270c60000140168a70002e
:2006e800000000000000000000000000000000000000000000002200669ee0000000001ece
:090708009550000000007fcd6057
:200711000000200000000000000000000000000000000000000000142bfdff00000000006d
:0a073100015440000002bce7f00094
:20073b0000000000000000000000000000000000000000000000e206cdc2802000000096f1
:09075b00bc1040000060caf5006a
:2007640000000000000000000000003c2400000000000000000000142000280000000001b8
:0a07840082a80200a000360a00005f
:20078e0000000000000000000000000000000000000000000000000036ef54000051811fe1
:0907ae00bc1000000069fce2032c
:2007b70000000000000000000000000000000000000000000000002c02c00a0000020085a3
:0a07d7004154040003c0030e20008b
:2007e1000000000000000000000000038fea30000000000000c00166adcaa103000799fe6c
:0908010094100c0036045a8f001b
:20080a00000000000000000000000000427b0300400000000008001c02f0500020000181c6
:0a082a00c3e860800143d5e8a00098
:2008340000000000319fb3c0800000c786a47000000000980280484624d46400000000df9d
:090854006840080000015e0e403e
:20085d0000000000019fd378800000002b6ee70000001003a000000241dd3c000100009de3
:0a087d00f2d44000000014e3400034
:200887000002000001e00000000003e795c0500180059b80006008004d8a5000100b8037dd
:0908a700c1c00600a001eca00094
:2008b0000000000000000000000000143cff0400000000c70000013439605500008110bd9d
:0a08d000e95c000014403c0fa0009a
:2008da000000000000ef7a84800000e26fae3023000801d00100020624def40000000183e3
:0908fa002002000014015eef4031
:20090300000000000010d229c00000267f40f700300070a98000004401dd3700000000b556
:0a09230075000400036014e3700087
:20092d000002000001e12c1000000207b5d4700003010080000402004fe3e40018a51ef617
:09094d008484000c803c000000d1
:20095600000000000f001ea000000004027881000000080f0000202432e84f000124f0ad2f
:0a097600b8cc0000100200000000e1
:20098000000000003805a30c080001e0249f1000200d00700100400764d7e40000000af6ab
:0909a000800000003c015e4e40a5
:2009a90000002000008ed43cc00002020059f0000900f0030000000021ddf900000801b5b2
:0a09c9007ce40000006014e18000ef
:2009d3000000000000000000000001e035ae5020002800000004200034f8f000038188f666
:0909f300b68000000000000000c5
:2009fc000000000000000000000000023fd0df000005f00500000004257e45000410b90d2b
:0a0a1c00bbfc000000000000000019
:200a26000000000001c1fe84000200c01cc8000000001e9801000162a5a5e02020080bf738
:090a46002900800014055e7a40cd
:200a4f00000000000900db96c80000003f694200000090050000000000f054000000b19140
:0a0a6f0081d00000000214e6d00060
:200a790000000000300f6a0c800000004eb64003000f010000c003c026ebc22000201a9a87
:090a990030408c0046007b2a006d
:200aa200000000000f007e38c000000023795800300078e300080006036064000005000155
:0a0ac200c200408009e00db1f00011
:200acc0000000000000000000000c8060ef8000810001ab0018001c665fa1002000980b35f
:090aec00521000000003eaf500bd
:200af5000000000000000000000000002edd00000040000da800000023faa7080000b0e580
:0a0b1500a478000000003e05000077
:200b1f000000000000000000006002601d82542180080e80006000003e8f000180081e1ed8
:090b3f00869006002003f8a000d6
:200b48000000000000000000000000040340e5000040700d0000080003f8d1000130b1b33b
:0a0b6800b480000001c03c0f5000f3
:200b720000000000000000000040e0065fca0000000580f020c0004605b8540400099cb30c
:090b920052900c00040000000068
:200b9b000000000000000000000480002010a0000001000300040002026c7a0900001905cd
:0a0bbb00a498004000e000000000d4
:200bc50000020000000000000000006034c2542000059f000000014035ce7400000d00d308
:090be500060000001e00000000e3
:200bee000100000000000000000000000060e500000000e3000004060149ed8000005805a0
:0a0c0e00e2bc00000020000000001e
:200c1800000000200000000000000200058a0000000718980000004056dd440000050fdaaf
:090c380097c000000005fca000bb
:200c41000000200000000000000200043420a0000000090b810200243f4cf000880000813a
:0a0c6100002800200003d40f50808b
:200c6b000000002800000000000000e3f6d25400000b8080000000002e8ff0000000181260
:090c8b009900806006601af04037
:200c940000000000000000000000000222cee5000000b8e30000003c0159bf010000000f69
:0a0cb40001f0000a0000000f000824
:200cbe000000000000000000000000600ef63400000800800100c80017ff400c0001801f2b
:090cde00388080002479dc00015b
:200ce70000000000000000000002000032ddc3200000900500020000014cf000080008e035
:0a0d0700c388002003c03d0a00006d
:200d1100000000000000000000c00000000000010000000000c0000700cf30230000001305
:090d3100bd400c003c200ef04016
:200d3a0000000000000000000008000c0000000010000009000800247c00f310a00000051c
:0a0d5a00814000800162800f000854
:200d640000010000000000000000000000000000000000000080200675da508000019e000a
:090d84000000000020685bcc00b7
:200d8d00000000000000000000004000000000000040000000000000237d59000000b1001c
:0a0dad000000000001c646b00080ff
:200db7000002000000000000000800020000000000000000006002063f808001a00f80b683
:090dd700315026003e22f8f5001f
:200de0000000000000000000000040000000000000000000000000042d4b00000100108f97
:0a0e00006300400009602e050100a8
:200e0a000000000000000000000408000d8f50000000000000c20002d6b014000007003338
:090e2a003d400c40003a08e200d2
:200e33004000001000000000000000000010f5000000000000040834624f0e00000008e063
:0a0e530083d4004000042d8d1080b0
:200e5d000002000000000000000000000000000000000000000000621f8424000000009fab
:090e7d003e8000002e605faf0012
:200e860000000080000000000000000000000000000000000000003c2d4921100000f001f8
:0a0ea6000140000001602e98f000ea
:200eb0000000000000000000000001e000000000000000000000000076b0a600000d0cf765
:090ed0000098c0001c61fc0a023c
:200ed900000020801000000000020000000000000000000000020000286a04000800f901ad
:0a0ef900c148002000e38d0e7000d8
:200f03000000000000000000000000000000000000000000000000e79f900613000f1c93e1
:090f2300a80000000066da7a0063
:200f2c00000000000000000000000000000000000000000000000002757c04001000f905a0
:0a0f4c0043e820000002bc92a00060
:200f5600000000000000000000c000000000000000000000000000002695a00000001a1234
:090f7600a8001c000002d82402ae
:200f7f00000000800000000000060000000000000000000000020000007e1a0008000181a8
:0a0f9f00c3d40060000014098000b4
:200fa900000000000000000000000000000000000000000000c401e200a1042003800192a6
:090fc900a8000c401c040af040d1
:200fd20000000000000000000000000000000000000000000008200201502000000000e381
:0a0ff20003e8248a00e3810f0000e9
:200ffc000000200001800000008002004000000000000000000001402def02004000181aa1
:09101c008080082006024bdf2051
:2010250040000000000000000000001c38000000000000000000060002fcf110040001fb12
:0a104500b800000464003ddff00075
:20104f000000180000000000006060000481560000000000000200c2e6af702180000bd782
:09106f00814006000000ec03487a
:20107800000000000000000000000000035f4a00000000000000401622e0f3180000019fa9
:0a10980040000000100036809100b7
:2010a200000000000000000000000000400000000000000000001542c0000000000100ba1c
:0910c20029108c008004000000dc
:2010cb000000000000000000000000003c0000000000000000000002380000000000d007b8
:0a10eb00c00000400003c000000038
:2010f50000020000000ff10d44000000000000000000000000020142b597f2000008003fbe
:091115001400004000000000007d
:20111e000000000000003244c04000000000000000040000000046000268ff00000090f008
:0a113e004140000200000000000024
:20114800000000000000000000000000000000000000000000000206b4e5a020021381b6da
:09116800bec000002004000000dc
:20117100000020020000000000000000000000000000000000000014017085010008008f9a
:0a1191006ad4000003c24000000011
:20119b000000000090000000000000000000000002800000000000c756a08000000018d7f6
:0911bb00b9c080a000041ca020b2
:2011c400000000000780000000000000000000000000000000000a022bfb0000000050af53
:0a11e4004228000403c3dc0f50048e
:2011ee000000000000000000000000004000000000000000000000404408102000010cfeda
:09120e0081500000800000000086
:201217000000000000000000000000003c00000000000000000000003c00810000080009ad
:0a123700817c200016c000000000ba
:20124100000030007000000000c0000000000000000000000000000036fb000000019ff26a
:091261007f800c014070000000c8
:20126a000000020000800000000800000000000000000000000000002becf108000010e7d3
:0a128a00ff68008008040000000067
:2012940000000000000000000000034785863480284000000000006604a5008000080077bb
:0912b4001b52000020656e0200cf
:2012bd0000000000000000000000000641c8c30080400000000000002420500100001007d3
:0a12dd007e74000001c2b4c52000b9
:2012e7000000000000000000006001400000000000000000006000000c8f74a98000185640
:09130700000006408002fa0a020f
:2013100000000000000000000000000200000000000000000000002c01f0ff000000100b84
:0a1330008014201a14c01d0bd00019
:20133a0000000000000000000000000000000000000000000000000065e5f00000081cd65f
:09135a009e80000020381c354a79
:2013630000000000000000000000000000000000002000000000000c2450a500800050a5b0
:0a1383003a94000002402503a00088
:20138d00000200000000000000000000000000000000000000000000000a5603000f80004c
:0913ad0000000100007a4e50001e
:2013b60000000000000000000000000000000000000000000000000001405a08100078a04c
:0a13d6000000000003d00d94a000f9
:2013e00000000000000000000010000000000000000000000004000005efa01000038900a9
:091400000000000026000cc042af
:2014090000002020000000000001000000000000000000000000a0003c10fa00800008a074
:0a142900000000000060000c0080cd
:201433000000000000000000000000603ce0541000000000000000000000000000001b9707
:09145300420000401e227f03004c
:20145c0000000000000000000000000000e0fa08800000000000000000000000000000a965
:0a147c007800000201c7fce27000d6
:201486000000000000000000000001e31e855500000000000000006015e0501000039e56be
:0914a600a008a0002438eaa040cf
:2014af0000000000000000000000000000305540800000000000003c01f000000000390b67
:0a14cf00c000060001401e0fa1003e
:2014d900000000000000000000c0000040000000000000000004100040000000000d80f71b
:0914f900959400003606ff1b006b
:20150200000000000000000000080000200000000000000000002080280000000000509fea
:0a152200b3fc00000343ded03000ec
:20152c0000000000000000000000000000000000000000000080000001af040000081892b9
:09154c00a81000000002dea0401e
:201555000000000000000000000000000000000000000000000000000000f000000210e78d
:0a15750083d5000000003c0f540075
:20157f000078180000000000006000001d855490000000000070000000ef040180000017db
:09159f00815006000001fcfa4035
:2015a80000040000000000000000002c0000550000000000000000000010f000000000009e
:0a15c800001500000000030fa4004e
:2015d200300010000180000000000000000000000000000000c000e001cf0401002d9b8378
:0915f2003d580c0000000000004f
:2015fb000000020000000000000000000000000000000000000400040010f000100450a7bb
:0a161b0003eb004000000000000097
:2016250000030000000ba941000000000000000000000000000a020001cf0400000d80fa46
:09164500a81000000000000000e4
:20164e00000000000000b7049050000000000000000000000000400c0000f000000050074e
:0a166e0003e9000000000000000086
:2016780000000000700000000000000000000000000000000000000040ef0400000180ba74
:09169800a810000006000000008b
:2016a1000000000000000000000000000000000000000000000000003c00f00000000007f6
:0a16c10043d5000004038000000080
:2016cb000000000081c00000000000603d805408000000000000020700af0400110198fae5
:0916eb00a81000a1400400000059
:2016f400000008080b1000000000000000c0fa08000000000000000c3800f0000280000f24
:0a17140043e9000408038000000010
:20171e0000000000000000000000006000000000000000000000020700af0400000800bec9
:09173e00a81000020000000000e8
:2017470008000000000000000000000000000000000000000000000c0000f0200000500707
:0a17670083d5000000000000000020
:20177100000030000000000000c0000000000000000000000000000001cf0403000b017e07
:09179100a8100c2020200000002b
:20179a000000020000000000000800000000000000000000000000000010f020200010874e
:0a17ba0003e9008401c000000000f4
:0217c400000023
:0217c60011010f
:0217c80001011d
:2017ca000000000000000000000000000000000000000000000000000000000000000000ff
:0917ea00000000000000000000f6
:2017f3000000000000000000000000000000000000000000000000000000000000000000d6
:0a18130000000000000000000000cb
:20181d000000000000000000000000000000000000000000000000000000000000000000ab
:09183d00000000000d0000000095
:20184600000000000000000000000000000000000000000000000000000000000000000082
:0a18660000000000008000000000f8
:20187000000000000000000000000000000000000000000000000000000000000000000058
:091890000000000000000000004f
:2018990000000000000000000000000000000000000000000000000000000000000000002f
:0a18b9000000000000000000000025
:2018c300000000000004000000000000100000000000004000000000100000000000004061
:0918e300000000000001000000fb
:2018ec000000000000000000000000000000000000000000000000000000000000000000dc
:0a190c0000000000000000000000d1
:2019160000000000000400000000000010000000000000400000000010000000000000400d
:09193600000000000001000000a7
:20193f00000000000000000000000000000000000000000000000000000000000000000088
:0a195f00000000000000000000007e
:2019690000000000000000000000000000000000000000000000000000000000000000005e
:0919890000000000000000c00095
:20199200000000000000000000000000000000000000000000000000000000000000000035
:0a19b2000000000000000004000027
:2019bc0000000000000000000000000000000000000000000000000000000000000000000b
:0919dc0000000000000000000002
:2019e5000000000000000000000000000000000000000000000000000000000000000000e2
:0a1a050000000000000000000000d7
:201a0f000000000000000000000000000000000000000000000000000000000000000000b7
:091a2f004000000000000000006e
:201a380000000000000000000000000000000000000000000000000000000000000000008e
:0a1a58000000000000000000000084
:201a6200000000000000000000000000000000000000000000000000000000000000000064
:091a82000000000000000000005b
:201a8b0000000000000000000000000000000000000000000000000000000000000000003b
:0a1aab000000000000000000000031
:201ab500000000000000000000000000000000000000000000000000000000000000000011
:091ad50000000000000000000008
:201ade000000000000000000000000000000000000000000000000000000000000000000e8
:0a1afe0000000000000000000000de
:201b08000000000000000000000000000000000000000000000000000000000000000000bd
:091b2800000000000000000000b4
:201b3100000000000000000000000000000000000000000000000000000000000000000094
:0a1b5100000000000000000000008a
:201b5b00000200000000000000000000000000000000000000000000000000000000000068
:091b7b0000000000000000000061
:201b8400000000000000000000000000000000000000000000000000000000000000000041
:0a1ba4000000000000000000000037
:201bae00000000000000000000000000000000000000000000000000000000000000000017
:091bce000000000000000000000e
:201bd7000000200000000000000000000000000000000000000000000000000000000000ce
:0a1bf70000000000000000000000e4
:201c01000000000000000000000000000000000000000000000000000000000000000000c3
:091c2100000000000000000000ba
:201c2a0000000000000000000000000000000000000000000000000000000000000000009a
:0a1c4a000000000000000000000090
:201c5400000000000000000000000000000000000000000000000000000000000000000070
:091c740000000000000000000067
:201c7d00000000000000000000000000000000000000000000000000000000000000000047
:0a1c9d00000000000000000000003d
:201ca70000000000000000000000000000000000000000000000000000000000000000001d
:091cc70000000000000000000014
:201cd0000000000000000000000000000000000000000000000000000000000000000000f4
:0a1cf00000000000000000000000ea
:201cfa000000000000000000000000000000000000000000000000000000000000000000ca
:091d1a00000000000000000000c0
:201d23000000000000000000000000000000000000000000000000000000000000000000a0
:0a1d43000000000000000000000096
:201d4d00000000000000000000000000000000000000000000000000000000000000000076
:091d6d000000000000000000006d
:201d760000000000000000000000000000000000000000000000000000000000000000004d
:0a1d96000000000000000000000043
:201da000000000000000000000000000000000000000000000000000000000000000000023
:091dc0000000000000000000001a
:201dc9000000000000000000000000000000000000000000000000000000000000000000fa
:0a1de90000000000000000000000f0
:201df3000002000000008280200000000000000000000000000000000000000000000000ac
:091e1300000000000000000000c6
:201e1c000000000000005aa8000000000000000000000000000000000000000000000000a4
:0a1e3c00000000000000000000009c
:201e46000000000000c0000000000000000a000000000000000000000000000000000000b2
:091e660000000000000000000073
:201e6f0000002000000100000000000e007aa0010000000000000000000000000000000009
:0a1e8f000000000000000000000049
:201e99000000000050000000000000000000000000000000000000000000000000000000d9
:091eb90000000000000000000020
:201ec200000000000000000000000000000000000000000000000000000000000000000000
:0a1ee20000000000000000000000f6
:201eec00000000000000000000000140000000000000000000000000000000000180000014
:091f0c00000000000000000000cc
:201f150000000000000000000000002000000000000000000000000000000000000000008c
:0a1f350000000000000000000000a2
:201f3f0000000000000000000000000000000000040000000000000000000000000000007e
:091f5f0000000000000000000079
:201f6800000000000000000000000000000000000000000000000000000000000000000059
:0a1f8800000000000000000000004f
:201f920000002000000000000080000000000000000000000000000000000000000000008f
:091fb20000000000000000000026
:201fbb000000030003000000000c00000000000000000000000000000000000000000000f4
:0a1fdb0000000000000000000000fc
:201fe5000000000000000000000000020000000000000000000000000000000000000000da
:09200500000000000000000000d2
:20200e000000000000000000000000060400000000000000000000000000000000000000a8
:0a202e0000000000000000000000a8
:20203800000000000000000000000000000000000000000000000000000000000000000088
:092058000000000000000000007f
:2020610000000000000000000000000000000000000000000000000000000000000000005f
:0a2081000000000000000000000055
:20208b00000200000000000000000000000000000000000000000000000000000000000033
:0920ab000000000000000000002c
:2020b40000000000000000000000000000000000000000000000000000000000000000000c
:0a20d4000000000000000000000002
:2020de00000000000000000000000002800000000000000000000000000000000000000060
:0920fe00000000000000000000d9
:20210700000020000000000000000000000000000000000000000000000000000000000098
:0a21270000000000000000000000ae
:2021310000002000100000000000000003055c80000000000000000000000000000000007a
:0921510000000000000000000085
:20215a0000000100080000000000000029da554000000000000000000000000000000000c4
:0a217a00000000000000000000005b
:2021840000000000000000000000000002055c800000000000000000000000000000000058
:0921a40000000000000000000032
:2021ad0000000180000a000000060000014e5540000000000000000000000000000000009d
:0a21cd000000000000000000000008
:2021d70000000000000783c10000000000000000000000000000000000000000000000009d
:0921f700000000000000000000df
:202200000000000000009a95504000000000000000000000000000000000000000000000ff
:0a22200000000000000000000000b4
:20222a0000002000000d40290480002000000000000000000000000000000000000000005a
:09224a000000000000387cff00d8
:202253000000030000005694100c001c000000000000000000000000000000000000000046
:0a227300000000000006748fe00078
:20227d00000008000089c000022000001d00000000000000000000000000000000000000b1
:09229d000000000006000005002d
:2022a60000000000001d72200080000003588002000000000000000000000000000000000c
:0a22c6000000000002e00dc050000f
:2022d0000000000000004280000000000eb0008000000000000000000000000000000e964a
:0922f00080000000003830e0001d
:2022f90000000000000012a80000000000cb8000000000000000000000000000000001d5ea
:0a2319007080400001601fae00203c
:2023230000020800000d25080020000200000000000000000000000000000000000000ba7a
:09234300800001003c025cff0077
:20234c0000000000001c002040000006040000000000000000000000000000000000100bd0
:0a236c00b00400100140378f70002c
:2023760000000800000be0d1000000028d05000000000000000000000000000000000000ef
:09239600000000201c3dc0f00114
:20239f00000020000198520110000006000ca00000000000000000800000000000000000d0
:0a23bf00000000000062d5af1024fa
:2023c9000000200008df4049000000602c0a540000000000000000000000000000018000f9
:0923e900000000000c42e8200095
:2023f20000000100039913941280003400005a4000000000000000000000000000007000b7
:0a241200000000000263beb00000ed
:20241c000000000010098000000000000d0aa400000000000000000000000000000000004c
:09243c00000000001c3f591000d3
:2024450000000180080016a800060000700c55400000000000000000000000000000000019
:0a2465000000000001e7e480000021
:20246f000000000018a16069000000001dae540004000000000000000000000000000000a8
:09248f00000000002c7f5e080033
:20249800000000000b8a13501000000003592540000000000000000000000000000001c09a
:0a24b8000000000002078f81800081
:2024c200000020000005c3c10080000237c000000000000000000000000000000000000ccc
:0924e20002800000b44159200001
:2024eb000000030001809695500c0000054910000000000000000000680000000000018778
:0a250b00e8290000100384d000004e
:202515000000080000072d00022000022fd12400000000000020014035d0400080000000fc
:0925350000000201242000000056
:20253e0000000000000e86e00000000005c942400000000000000036024d024000001800da
:0a255e000000000009e0000000008a
:20256800000000000005f30d000001c23dc214000000000000000402000000000000000072
:0925880000000000243f60000087
:20259100000000000180da58d000000664f9424000000000000000000400000000000000be
:0a25b10000000000000007a0102049
:2025bb0000020800000902a90020000385c000000000000000200000368000008000001470
:0925db0020000200003beb0000af
:2025e400000000000000069550000000015f080000000000000000006ac9124000001800e7
:0a26040061000c00c00077840000a4
:20260e0000000800180983690020006001014c800000000000000000000f00000000000c2e
:09262e0010020000003000000061
:20263700000020000d18168950800034016a1462000000000000000021c8f080000001c19f
:0a265700f900080001e04000000057
:202661000880200000a7ac00000000e3ac00008000000000000000023600500000210a7a22
:09268100100000000424cf400009
:20268a000400010000189ee000000034605a80020000000000000000074850c0000581b58b
:0a26aa002c00000801e2a1980018be
:2026b400800000000001820020000002f7c800000000000000000040020f000000050a9f23
:0926d40000000000027fc0db00e1
:2026dd0080000180000a76800086000001490000000000000006002000e8f080180080b541
:0a26fd00a849000001c61cae202011
:202707000036000000976c0000000366d5d00080000000000000000000f00000000500d323
:09272700c84002016c024d1000d3
:20273000040040000399da8200000014297c8000000000000000000601c100800000018843
:0a2750002c4900000a003df00000d3
:20275a0000002000000b7c2d0080000640000000000000000080000000000002000100bf83
:09277a0087700840000000000017
:202783000000030000009601100c00002c00000000000000000c0000000000003000000b0d
:0a27a300251d00ca0400000000001c
:2027ad000000000000ab42a9000000023e82000000000000000000020000000000598000d9
:0927cd00000000000000c05a6089
:2027d60000000000058182155000000607780000000000000000000068000000002a998046
:0a27f600000000000000000a541467
:2028000000000000008340250000002240000000000000000000000000000000038000707b
:092820000000100000000000009f
:2028290000000800019986019080000e040000000000000000000000680000000028018132
:0a284900b804c80000000000000001
:2028530020000000008b750000000000020124000000000000000003f687bc000009080cc5
:09287300028000060400000000d0
:20287c0001000000000182200000000001fa1242000000000000000005c91240000081e1c7
:0a289c007028000002000000000098
:2028a6000000010000094015000008438c0000000000000000000000020f00000005009f27
:0928c60047700000000000f04919
:2028cf00000030280000060290000120024e8002000000000000000001c8f0a0000080032a
:0a28ef00211d0000000000cf0400ce
:2028f90000002018000b764d00800003178000000000000000400004000f00030000003c0d
:09291900000200000000000000b3
:202922000000010000008218d0040016055b802000000000000c00006048f080100001e1fa
:0a29420072000840000000000000d1
:20294c000000000000a3e400040001c00ef124000000000000000040000f000000050000a8
:09296c00280000000042405a4816
:20297500000001800000b7200236003602ee504000000000000600200048f0801800800185
:0a299500ba8000600007a00a540099
:20299f000000000510e7e400000000401e8c340004000000000001400200002000000e7332
:0929bf00c0000000000010f059f6
:2029c80040000000a0183a010000002001dc6340000000000000001400e000800000018522
:0a29e800b82000000000018f050078
:2029f2000000200000a0834c008003438000000000004000008003c00000000000000a045f
:092a120003c000003c00ee2100ad
:202a1b000000030000005634c08c003e0000000000000000000c0020000000000000001048
:0a2a3b00683d000001603df051000d
:202a45000000000030e1c000200000400000000000000000000001c7c000000000000000b8
:092a65000000000040607a02004c
:202a6e000000000001807ba000c000200000000000000000000000263c0000000000180052
:0a2a8e00000000000067e4f0000003
:202a98000000000050034000000001c02c0f040000000000000000000000000000000e007d
:092ab800000000000200600a00a9
:202ac1000000000000003e20008000003a5a554100000000000000000000000000000000ed
:0a2ae1000000000001c0248504007d
:202aeb0000020000000d7800000001c0070fa610000000000000000014050000000000049a
:092b0b0003ca4000000248210049
:202b1400000000000700f6820000000603fc054000000000000000006a0ea0210000580047
:0a2b3400603d8200000000912c00bb
:202b3e000000000000b000000000000002055c1000000000000000200000000000008008ac
:092b5e003d40000000000969007f
:202b670000002000000a000000000006715c555000000000000000040000000000005181d6
:0a2b87006bd40100006000896c00af
:202b91000000000000a0000000000000000f00000000000000c000200105009000000b767e
:092bb100c00000000002600500f4
:202bba0000000000000a000000000000600cf06000000000000c001401ee50208000000333
:0a2bda007e00001401601c850c0051
:202be4000000000050d16f950000004002050000200000000000002006d95c0000001008d2
:092c0400258000000400000f000f
:202c0d00000001800501f68950060020014c50600100000000060006024e5640180051a52d
:0a2c2d00ba59006002669c8f0c008b
:202c370000000000d0000000000003c034ef00000000000000000042d681dc0000000b57f0
:092c57007fc2000000282a0000e1
:202c600000000000000000000000000003ef7141400000000000002000d8474000000009e8
:0a2c8000ae9c40000006460008006c
:202c8a0000002000000b42a9008000002ff12400000000000080000280000000000000004e
:092caa0000000840000150f0098f
:202cb3008000030001808215500c000000fa504100000000000c000004000000000000006f
:0a2cd300000000ca000025a554000f
:202cdd000000000000000000000000034000000000000000000000020000000010050a3241
:092cfd00d4800000003c0000003e
:202d060000000000000000000000000000000000000000000000a0066c000000000080110a
:0a2d26002a940000000000000000e5
:202d300000000000000b83c100000002c000000000000000000000000000000000070090db
:092d500014000000000000000066
:202d5900000000000018979550400000000000000000000000000000000000000000000581
:0a2d7900f00004000000000000005c
:202d830000020000f0076401000000000000000000000000000001400000000000810c9074
:092da30000000000000000000027
:202dac000000000001809720100000003800000000000000000000200000000000008001e6
:0a2dcc000168000000000000000094
:202dd60000000000000003c100000000000000000000000000000004030504001001801a5e
:092df600a14000003c00000000b7
:202dff00010620000000063c10000000600000000000000000000000796e50400080f005ef
:0a2e1f0032d400000206000000009b
:202e29002000000000090295048000000000000000000000000000400fbcf40020150b0402
:092e49000280004000005b5a0801
:202e520003000000000000169004804000000000000000000000002001dff340010281a795
:0a2e720038280400000016f52610b1
:202e7c0000000000100003c380000000000000000000000000000004240054000000000460
:092e9c003cc810400000000000d9
:202ea500000001800800033c100600000000000000000000000600007bcc50400000000052
:0a2ec50033cc086800000000000094
:202ecf0000000000088003c3840000000000000004000000000014000eeed40000051a16f4
:092eef00f4000000040040aa09ef
:202ef800000000000501033c10000000000000000000000000000080006af5400000d8f579
:0a2f1800abc00000020001a5541038
:022f22000000ad
:022f2400110298
:022f26000101a7
:202f2800000000000000000000000000000000000000000000000000000000000000000089
:092f480000000000000000000080
:202f5100000000000000000000000000000000000000000000000000000000000000000060
:0a2f71000000000000000000000056
:202f7b00000000000000000000000000000000000000000000000000000000000000000036
:092f9b000000000000000000002d
:202fa40000000000000000000000000000000000000000000000000000000000000000000d
:0a2fc4000000000000000000000003
:202fce000000000000000000000000000000000000000000000000000000000000000000e3
:092fee00000000000000000000da
:202ff7000000000000000000000000000000000000000000000000000000000000000000ba
:0a30170000000000000000000000af
:203021000000000000080000000000002000000000080000000000002000000000000080bf
:0930410000000000000200000084
:20304a00000000000000000000000000000000000000000000000000000000000000000066
:0a306a00000000000000000000005c
:2030740000000000000800000000000020000000000800000000000020000000000000806c
:0930940000000000000200000031
:20309d00000000000000000000000000000000000000000000000000000000000000000013
:0a30bd000000000000000000000009
:2030c7000000000000000000000000000000000000000000000000000000000000000000e9
:0930e700000000000000000000e0
:2030f0000000000000000000000000000000000000000000000000000000000000000000c0
:0a31100000000000000000000000b5
:20311a00000000000000000000000000000000000000000000000000000000000000000095
:09313a000000000000000000008c
:2031430000000000000000000000000000000000000000000000000000000000000000006c
:0a3163000000000000000000000062
:20316d00000000000000000000000000000000000000000000000000000000000000000042
:09318d0000000000000000000039
:20319600000000000000000000000000000000000000000000000000000000000000000019
:0a31b600000000000000000000000f
:2031c0000000000000000000000000000000000000000000000000000000000000000000ef
:0931e00028000000000000880036
:2031e9000000000000000000000000000000000000000000080000000000000000000000be
:0a32090004000000000000100000a7
:2032130000000000000000000000000000000000000000000000000000000000000000009b
:0932330000000000000000000092
:20323c00000000000000000000000000000000000000000000000000000000000000000072
:0a325c00000000000000090000005f
:203266000000000000000000000000000000000000000000000000000000000000503200c6
:09328600000000000000800000bf
:20328f000000000000000000000000000000000000000000000000000000000028050000f2
:0a32af000000000000000300000012
:2032b9000002000000000000000000000000000000000000000000000000000000000000f3
:0932d9000000000015f9100000ce
:2032e2000000000000000000000000000000000000000000000000000000000000000000cc
:0a330200000008200001c080000058
:20330c000000000000000000000000000000000000000000000000000000000000000000a1
:09332c007000020014cf10000033
:20333500000020000000000000000000000000000000000000000000000000000000000058
:0a335500000000002bc3c0000000c0
:20335f0000000000000000000000000000000000000000000000000000000000000000004e
:09337f0000000010157d10c000d3
:20338800000000000000000000000000000000000000000000000000000000000000000025
:0a33a8000000002017c2d09d0000b5
:2033b2000000000000000000000000000000000000000000000000000000000000000000fb
:0933d20000800010155d000000f0
:2033db000000000000000000000000000000000000000000000000000000000000000000d2
:0a33fb00001000002bc2c700000004
:203405000000000000000000000000000000000000000000000000000000000000000000a7
:093425000000001294f800e00020
:20342e0000000000000000000000000000000000000000000000000000000000000000007e
:0a344e00000000002a818000000049
:20345800000000000000000000000000000000000000000000000000000000000000000054
:09347800000000017d5c01d000a0
:2034810000000000000000000000000000000000000000000000000000000000000000002b
:0a34a100000000000143f91f0000c5
:2034ab00000000000000000000000000000000000000000000000000000000800201f74047
:0934cb0000056002a4ec00000001
:2034d40000000000000000000000000000000000000000000000000000000014000005ecd3
:0a34f40002c02020257cc009000062
:2034fe00000000000000000000000000000000000000000000000000000000000001db6072
:09351e000000000281c000000061
:2035270000000000000000000000000000000000000000000000000000000000000001f58e
:0a354700400000001400f70000002f
:2035510000020000000000000000000000000000000000000000002cf0001c0042803780a7
:093571000000000014dc00100051
:20357a00000000000000000000000000000000000000000000000023fe000000005000edd3
:0a359a00c2c000002bc2800e00002a
:2035a4000000000000000000000000000000000000000000000000000800000002055ef6a4
:0935c4000000000014e83880004a
:2035cd0000002000000000000000000000000000000000000000000000b00000200000b43a
:0a35ed00c000000017c0979f000007
:2035f70000000000000000000000000000000000000000000000000000001c0202053e60f1
:093617000001000015f8b1c0002b
:2036200000000000000000000000000000000000000000000000000000000000201000aeac
:0a364000c00020002bc28b1f000009
:20364a000000000000000000000000000000000000000000000000000100000106055856a5
:09366a0000000001e8de5010141c
:20367300000000000000000000000000000000000000000000000000000800000010a0b4cb
:0a369300000000002e47d30d0000d8
:20369d00000000000000000000000000000000000000000800000000000000000601f74eb9
:0936bd000000310074e970000006
:2036c6000000000000000000000000000000000000000000000000000070e000001005ec93
:0a36e600200001201f82a1800000d7
:2036f0000000000000000000000000000000000000000000000183c4010000000005570015
:0937100028000000000018a000d0
:2037190040000000000000000000000000000000000000000802003c20000000000000f3f7
:0a3739004006000000000010000030
:203743000000000000000000000000000000000000000000000183d60000001840475ed43b
:093763000000600aa2dc01c001b3
:20376c0080000000000000000000000000000000000000000000003c000000000002e07c23
:0a378c00200700801497d010000001
:203796000000000000000000000000000000000000000000000000000000200c00000014d3
:0937b600700000083c6000a00056
:2037bf0000000000000000000000000000000000000000000000000000000400c000000323
:0a37df004000000003c000100800c5
:2037e900000200000000000000000000000000000000000000000000001c0000121052949a
:093809002000001a9401001000d7
:20381200000000000000000000000000000000000000000000000000000000000004a17879
:0a38320020000000d680f00c0040da
:20383c000000000000000000000000000000000000000000000000000000000000003e002e
:09385c00000000183c4090a0009f
:2038650000002000000000000000000000000000000000000000000000000000000089f0aa
:0a38850003810000c3c20f9b18006e
:20388f000000000000000000000000000000000000000000000000000000000000a9b38439
:0938af000000001989ec00000082
:2038b8000000000000000000000000000000000000000000000000000000000000095f6c1c
:0a38d800200000000f04c7000000ec
:2038e20000000000000000000000000000000000000000000000000007800000000000043b
:093902000680001bd9cd00000075
:20390b0000000000000000000000000000000000000000000000000000000000000000009c
:0a392b00225400001f94e00b8000fe
:203935000000000000000000000000000000000000000000000000000000000c805f7b40cc
:0939550030000029c1ec00e00083
:20395e00c00000000000000000000000000000000000000000000000000000004000a03e6b
:0a397e00c00000000804c3000004ac
:20398800000000000000000000000000000000000000000000001406800e000000edb3be19
:0939a800280000117dec00e00490
:2039b100000000000000000000000000000000000000000000000140200090000004893c3c
:0a39d10042c000000282d000008016
:2039db0000000000000000000000000000000000000000000090820e89000c185240372016
:0939fb002800600015df581001de
:203a04008000000000000000000000000000000000000000000201280cf800000004a071de
:0a3a2400c00000002bc3b908000029
:203a2e00000000000000000000000000000000000000000000018d06e00e00000a2c1a8422
:093a4e0060000000467d1881c8eb
:203a57000000000000000000000000000000000000000000000040106a00a00001008d2443
:0a3a7700078400801107a0890100f8
:203a810000020000000000000000000000000000000000000001902c9801008000057306cf
:093aa10001000002a54d19a0006e
:203aaa0000000000000000000000000000000000000000000000412acbf0a81000000064ba
:0a3aca0000280000256eed0010003a
:203ad400000000000000000000000000000000000000000000000474c999000040ed3b3c54
:093af4006400010909ea309000a8
:203afd00000020000000000000000000000000000000000000020111dd1880010004807dfe
:0a3b1d0043c004040280a70e10103c
:203b270000000000000000000000000000000000000000000001902c9198400080051220a1
:093b470068000000155818014047
:203b50000000000000000000000000000000000000000000000041294c00f20000005080dd
:0a3b7000c000000001420000000048
:203b7a0000000000000000000000000000000000000000000000014c03010000003337442c
:093b9a006800010194c9700000eb
:203ba3000000000000000000000000000000000000000000000000280d00f0010000053c9b
:0a3bc300238024002542b08080100a
:203bcd00000000000000000000000000000000000000000000103b46f01c000002025a9449
:093bed00000005090159581000ff
:203bf600000000000000000000000000000000000000000000000210390100000001a5e0dd
:0a3c1600000000401281d708800072
:203c200000000000000000000000000000000000000000000002897ea1980000028036c0ca
:093c400074200000000000e00007
:203c490000000000000000000000000000000000000000000800029c69f00800018e01eada
:0a3c6900460000000000000000808b
:203c730000000000000000000000000000000000000000000000b1c691190c1800000014d8
:093c930080006000000000000147
:203c9c008000000000000000000000000000000000000000000023085c08e0000000000118
:0a3cbc00400050000000000f00005f
:203cc60000000000000000000000000000000000000000001000a3fce001000000117f2698
:093ce60060a100000000000010c4
:203cef00c0000000000000000000000000000000000000000202003469008000000885ac9b
:0a3d0f00641000000000000014041e
:203d190000020000000000000000000000001c00000000000000b1c69820348000113686bc
:093d390071400000a9fc0016080d
:203d420000000000000000000000000000000000000000000002430a59100014000443e16d
:0a3d6200c00800000905f008a040a9
:203d6c0000000000000000000000000000000000000000000001897fe000000000111f7ea0
:093d8c006c80011bf4cf700000f3
:203d950000002000000000000000000000000000000000000002029c6c00e801000889f573
:0a3db500630004006b4280801010d0
:203dbf0000000000000000000000000000000000000000000001b1e6d18e408040013614a2
:093ddf00680200000bcf9880007f
:203de8000000000000000000000000000000000000000000000003084c0000002000006ed6
:0a3e0800600050002856eb10000087
:203e120000000000000000000000000000000000000000000000a3f6e8000000000000000f
:093e3200000005411cec10c00069
:203e3b000000000000000000000000000000000100000000000040346c10c00100000002b3
:0a3e5b004000040411c3099904108b
:203e650000000000000000000000000000000000000000000000b1e6d801000c82045ea03d
:093e8500000500002bff38d000fd
:203e8e00c0000000000000000000000000000000000000000000130ac97080005001cbbda5
:0a3eae0040002400214ee09b0414a4
:203eb8000000000000000000000000000000000000000000000283dc0000000000ff5654e0
:093ed8000400000008fb101000ba
:203ee10000000000000000000000000000000000000000000000003c00000000000f50f135
:0a3f0100c20000000946b08f000066
:203f0b000000000000000000000000000000000000000000000083de0000009800119b04ed
:093f2b0028000a10106c19e001d5
:203f340080000000000000000000000000000000000000000000503c200002000008813e78
:0a3f540046d00004003f9910000061
:203f5e000000000000000000000000000000000000000000000083ce0000000c4001134052
:093f7e0000000800e1ed00000064
:203f870000000000000000000000000000000000000000000002403c00000000800000fb21
:0a3fa70042c000001d85b1001800a3
:203fb1000002000000000000000000000000000000000000000000000000000040a41f14d7
:093fd1000032000015ec7810002c
:203fda00000000000000000000000000000000000000000000000000000000000005a0b072
:0a3ffa00000040000140000b000031
:2040040000000000000000000000000000000000000000000000000008000000c48057be3b
:094024002c0000000000780000ef
:20402d0000002000000000000000000000000000000000003000000000b00000000e002045
:0a404d004280000000000b0e00008e
:20405700000000000000000000000000000000000000001000000000001e000040001b00c0
:094077002470000015fcd00000cb
:2040800000000000000000000000000000000000000000028000000000010004000010ec9d
:0a40a000060000000000e70a00001f
:2040aa000000000000000000000000000000000000000000000000000001000000000000f5
:0940ca0000003103b478808a0083
:2040d3000000000000000000000000000000000000000000000000000000d00000000000fd
:0a40f300400002002102ef1e400011
:2040fd000000000000000000000000000000000000000000000000000300400e00a9da408f
:09411d007c00030900fe18a0005b
:20412600000000000000000000000000000000000000000000000000000800004006aff28a
:0a414600420000802143b009000090
:2041500000000000000000000000000000000000000000000000003f9000a0000005774024
:0941700060000003d56801e002c3
:20417900000000000000000000000000000000000000000008000083fd000000008000e03e
:0a419900020000001680f000000094
:2041a300000000000000000000000000000000000000000000100096f700000040db06003e
:0941c3006020600000000000080b
:2041cc000000000000000000000000000000000000000000000001600e088800000c303c5c
:0a41ec0002800000000000080040ff
:2041f6000000000000000000000000000000000000000000000000000000000004047a80a7
:094216000000020000cd000000d0
:20421f00000000000000000000000000000000000000000000000000000000000001c3b407
:0a423f0002800040006ec000000085
:20424900000200000000000000000000000000000000000000003be7f00b000c00a9f20689
:09426900040000000000019000b7
:20427200c0000000000000000000000000000000000000004000017d4c01b000800957349d
:0a4292000200000000000909000806
:20429c000000000000000000000000000000000000000000001009ce1000084042403ea65d
:0942bc0004000022816850d010ba
:2042c50000002000000000000000000000000000000000002000006c0c0000002808503c65
:0a42e500620000002800051c0080a4
:2042ef00000000000000000000000000000000800000000000100116081900020280f74428
:09430f0029000100f17800000012
:204318000000000000000000000000000000001000000000000000200ef18000000e01f1d6
:0a433800670020000b008009000060
:20434200000000000000000000000000000000000000000000100bcfa01f000004aa70761e
:0943620020000000296e70d20059
:20436b000000000000000000000000000000000000000000000000bc00008000000550a001
:0a438b00640000000282001d0080a3
:2043950000000000000000000000000000000000000000100000000003990000402c5f2071
:0943b5000000010300ce0000002d
:2043be0000000000000000000000000000000000000000028000000000f09000000040a1fc
:0a43de00438000042000d00000001e
:2043e800000000000000000000000000000000000000000000400004bd800000120a7a603e
:0944080020000002bcce01f0000e
:204411000000000000000000000000000000000000000000000000066b5080002015a0b5c0
:0a443100c42000003bc5b00f00409e
:20443b00000000000000000000000000010000000000000000000000000e000000a553401a
:09445b007000614829df10100116
:204464008000000000000000000000000000000000000000000000000001f000000550f77b
:0a448400400000004b81e00800003a
:20448e00203800000000000000000000000000000000000000003fd4e000080046fd7e06f4
:0944ae00048030000000780000d9
:2044b7000200000000000000000000000000000000000000000003dcfe70e200101ad03c7e
:0a44d7000210010000000080000048
:2044e1000002000000000000000000000100000000000010001031cf9780000212afb21cf0
:094501002800004297dd100000c3
:20450a0000000000000000000000000000080000000000008002033c0f00f000200ef37c2c
:0a452a000280002017bc9080000002
:20453400000000000000000000002bc61000000000000000000000000000a80006e7770e4c
:094554000482000a01e801c00024
:20455d0000002000000000000000117c2b000000000000000000000000d0f000000df9b2ee
:0a457d00e3940000003eeb00000094
:2045870000000000000000000000000000000000000000002000042ff018000086afb21eb4
:0945a700380108102978d8000041
:2045b0000000000000000000000000000000000000000000050000015f01d000000ef37d37
:0a45d000e40000000282010a00006e
:2045da000000000000000000000000000000000c0000000000002a4f80080000000032ccb6
:0945fa000420000814e011800007
:20460300c000000000000000000000000000000080000000000001aac8710180010050a5fc
:0a46230063c000000282f780000867
:20462d000000000000000008000000000000000000000000000000000780180000025ec0a6
:09464d000000300028dc381000e8
:20465600c0000000000000000000000000000000000000000000000000380000010007a99b
:0a467600420001400283058d00049c
:02468000000038
:02468200110322
:02468400010132
:20468600000000000000000000000000000000000000000000000000000000000000000014
:0946a6000000000000000000000b
:2046af000000000000000000000000000000000000000000000000000000000000000000eb
:0a46cf0000000000000000000000e1
:2046d9000000000000000000000000000000000000000000000000000000000000000000c1
:0946f900000000000000000000b8
:20470200000000000000000000000000000000000000000000000000000000000000000097
:0a472200000000000000000000008d
:20472c0000000000000000000000000000000000000000000000000000000000000000006d
:09474c0000000000000000000064
:20475500000000000000000000000000000000000000000000000000000000000000000044
:0a477500000000000000000000003a
:20477f0000000000000800000000000020000000000800000000000020000000000000804a
:09479f000000000000020280008d
:2047a8000000000000000000000000000000000000000000000000000000000000000000f1
:0a47c80000000000000000040000e3
:2047d2000000000000080000000000002000000000080000000000002000000000000080f7
:0947f200000000000002000000bc
:2047fb0000000000000000000000000000000000000000000000000000000000000000009e
:0a481b000000000000000000000093
:20482500000000000000000000000000000000000000000000000000000000000000000073
:0948450000000000040000000066
:20484e0000000000000000000000000000000000000000000000000000000000000000004a
:0a486e0000000000008000000000c0
:20487800000000000000000000000000000000000000000000000000000000000000000020
:0948980000000000000000000017
:2048a1000000000000000000000000000000000000000000000000000000000000000000f7
:0a48c10000000000000000000000ed
:2048cb000000000000000000000000000000000000000000000000000000000000000000cd
:0948eb00000000000000000000c4
:2048f4000000000000000000000000000000000000000000000000000000000000000000a4
:0a4914000000000000000000000099
:20491e00000000000000000000000000000000000000000000000000000000000000000079
:09493e0000000000000000000070
:20494700000000000000000000000000000000000000000000000000000000000000000050
:0a4967000000000000000000000046
:20497100000000000000000000000000000000000000000000000000000000000000000026
:094991000000000000000000001d
:20499a000000000000000000000000000000000000000000000000000000000000000000fd
:0a49ba0000000000000000000000f3
:2049c4000000000000000000000000000000000000000000000000000000000000000000d3
:0949e400000000000000000000ca
:2049ed000000000000000000000000000000000000000000000000000000000000000000aa
:0a4a0d00000000000000000000009f
:204a170000020000000000000000000000000000000000000000000000000000000000007d
:094a370000000000000000000076
:204a4000000000000000000000000000000000000000000000000000000000000000000056
:0a4a6000000000000000000000004c
:204a6a0000000000000000000000000000000000000000000000000000000000000000002c
:094a8a0000000000000000000023
:204a93000000200000000000000000000000000000000000000000000000000000000000e3
:0a4ab30000000000000000000000f9
:204abd000000000000000000000000000000000000000000000000000000000000000000d9
:094add00000000000000000000d0
:204ae6000000000000000000000000000000000000000000000000000000000000000000b0
:0a4b060000000000000000000000a5
:204b1000000000000000000000000000000000000000000000000000000000000000000085
:094b30000000000000000000007c
:204b390000000000000000000000000000000000000000000000000000000000000000005c
:0a4b59000000000000000000000052
:204b6300000000000000000000000000000000000000000000000000000000000000000032
:094b830000000000000000000029
:204b8c00000000000000000000000000000000000000000000000000000000000000000009
:0a4bac0000000000000000000000ff
:204bb6000000000000000000000000000000000000000000000000000000000000000000df
:094bd600000000000000000000d6
:204bdf000400000000000000000000000000000000000000000000000000000000000000b2
:0a4bff0000000000000000000000ac
:204c090080000000000000000000000000000000000000000000000000000000000000000b
:094c290000000000000000000082
:204c3200000000000000000000000000000000000000000000000000000000000000000062
:0a4c52000000000000000000000058
:204c5c00000000000000000000000000000000000000000000000000000000000000000038
:094c7c000000000000000000002f
:204c850004000000000000000000000000000000000000000000000000000000000000000b
:0a4ca5000000000000000000000005
:204caf000002000000000000000000000000000000000000000000000000000000000000e3
:094ccf00000000000000000000dc
:204cd8000000000000000000000000000000000000000000000000000000000000000000bc
:0a4cf80000000000000000000000b2
:204d0200000000000000000000000000000000000000000000000000000000000000000091
:094d220000000000000000000088
:204d2b00000020000000000000000000000000000000000000000000000000000000000048
:0a4d4b00000000000000000000005e
:204d550000000000000000000000000000000000000000000000000000000000000000003e
:094d750000000000000000000035
:204d7e00000000000000000000000000000000000000000000000000000000000000000015
:0a4d9e00000000000000000000000b
:204da8000000000000000000000000000000000000000000000000000000000000000000eb
:094dc800000000000000000000e2
:204dd1000000000000000000000000000000000000000000000000000000000000000000c2
:0a4df10000000000000000000000b8
:204dfb00000200000000000000000000000000000000000080000000000000000000000016
:094e1b000000000000000000008e
:204e240000000000000000000000000000000000000000000000000000000000000000006e
:0a4e44000000000000000000000064
:204e4e000000000000000000000000000000000000000000006083c000100004000000008d
:094e6e000000000000000000003b
:204e770044000000000000000000000000000000000000000006083de0018000c00000006b
:0a4e97000680000000000000000c7f
:204ea100800000000000000000000000000000000000001000201600a00f0000000000027a
:094ec10000000049680c00000229
:204eca00000000000000000000000000000000000000000280010169cb0010000000000000
:0a4eea00e0000000a94000000020d5
:204ef4000000000000000000000000000000000000000000000000008000000010ff02808d
:094f140000000000000000000094
:204f1d00040000000000000000000000000000000000000000000029f9000000000fa7a0f8
:0a4f3d00000000000000000000006a
:204f4700000200000000000000000000000000000000000000000000000000000000000444
:094f6700000004083c0000800079
:204f7000000000000000000000000000000000000000000000000000000000000000000021
:0a4f90000000000083c600010000cd
:204f9a000000000000000000000000000000000000000000000000000010000000000000e7
:094fba00000000000000000000ee
:204fc3000000200000000000000000000000000000000000000000000001c00000000000ed
:0a4fe30000000000000000000000c4
:204fed00000000000000000000000000000000000000000000000000000a0000000000009a
:09500d0028000000000000000072
:205016000000000000000000000000000000000000000000000000000000000080000000fa
:0a5036000040000000000000000828
:20504000000000000000000000000000000000000000000000000000001d000000a00e0085
:09506000000006083c00010000fc
:205069000000000000000000000000000000000000000000000000000001b00181000730bd
:0a5089000000000483cc001800189a
:205093000002000000000000000000000000000000000000000000000000000000000000fb
:0950b300340004483c0000000038
:2050bc000000000000000000000000000000000000000000000000000000000000000000d4
:0a50dc0006c0000183c600000000ba
:2050e600000000000000000000000000000000000000000000002bc1098e20000000000007
:09510600000010028020000001ed
:20510f004000000000000000000000000000000000000000000222bc7ed8140000000000f6
:0a512f0000000300a80ce000000cd3
:20513900000000000000000000000000000000000000000000000000000000100000000046
:095159000000441205cdf0001520
:2051620000000000000000000000000000000000000000000000000000000000000000002d
:0a518200000000409080000800804b
:20518c0000000000000000000000000000000000000000000000000000000041925a0200d4
:0951ac002c000242802010f000ea
:2051b50000000000000000000000000000000000000000000000000000000000006a500020
:0a51d50006000000a80ce80000002e
:2051df00000200000000000000000000000000000000000000202d0e802c0010020f08027c
:0951ff0000004400c02030000152
:205208000000000000000000000000000000000000000000000003c17e01e0000020f30050
:0a522800400000100c04000000001c
:205232000000000000000000000000000000000000000000100000000500000800500000ef
:09525200000008030c0bd0000061
:20525b0000002000000000000000000000000000000000000000000000008080c10501f05c
:0a527b00e000003031ce9800008002
:20528500000000000000000000000000000000000000000000203bc1a0000000000000004d
:0952a5000000000002f900000005
:2052ae00400000000000000000000000000000000000000000010178df50000000000000f7
:0a52ce0000000200011d9000000c1a
:2052d800000000000000000000000000000000000000000000003d42b008804000ca0000f5
:0952f80020010000000058000034
:205301000000000000000000000000000000000000000000000003e941000080240c5180de
:0a532100004006000000090000181b
:20532b00000000000000000000000000000000000000000380000140000a00100004d300ad
:09534b000000400002ed018001a8
:20535400000000000000000000000000000000000000000000000014de00000000000ba498
:0a53740002000000041c959d0000db
:20537e000000000000000000000000000000000000000000000183c00000000400009776ba
:09539e0041004201483f58d001d2
:2053a70008000000000000000000000000000000000000000000083ce0000000c04401fdb8
:0a53c70042a420101e97fb81000095
:2053d1008000000000000000000000000000001000000000000483c2000000110008f6d400
:0953f10000604000140c510001a1
:2053fa000000000000000000000000000000000000000000000c083cc030000000000373dd
:0a541a00e00000002955f80e000024
:20542400000000000000000000000000000000000000000000000000000d0000004707c24b
:0954440028000000000000a00097
:20544d000400000000000000000000000000000000000000000000000000140004081535d1
:0a546d00c041200000000000000014
:20547700000000000000000004000000000000100000000000029680d18814100002064c18
:09549700400040016ed839e0012b
:2054a000000000000000000000000000000000000000000000000a9400101000040001eb3e
:0a54c0006708000036d7ef990000de
:2054ca000000000000000000000000000000000000000000000083c20000000000205b5ca6
:0954ea002c0000029c2bd0e00014
:2054f3000000000000000000000000000000000000000000000a183cc000000000050f76f1
:0a551300000000102ac7b79b00003b
:20551d00000000000000001000000000000000000000000000069680f00000000004fac292
:09553d0040000002901b00f00484
:20554600080000000000000200000000000000000000000000004a940000000080008181db
:0a556600c28000111694f00100004d
:205570008000000000000000000000000000000000000000002483c00000014000f7bf1e1f
:095590006c00000001dcb0000019
:2055990000000000000000000000000000000000000000000000183cc00000c9800ffd3b4e
:0a55b900c2800000102e8d000000db
:2055c300000000000000000000000000000000100000000000809680f000401080789fa6a5
:0955e3000000000020fe90f00120
:2055ec00040000000000000000000000000000000000000000025a94000002000003cf35a2
:0a560c00c0000000000d8001000046
:205616000000000000000000000000000100000000000000000000000089400000a0bfd477
:0956360040000432c01b300000ea
:20563f000800000000000000000000000078000000000000000000000039c200080203e1e2
:0a565f00c7800070800d9d800000e0
:20566900800000000000001000040283df080000000000000020002db008000000e50394a0
:09568900430000016c08b0801020
:20569200000000000000000200010008ff0000400000000000000080d971f000140803e0f5
:0a56b20006300010168dcd80108028
:2056bc00000000000000000000003ff6e70f000000000000000421428d800000003c06ec01
:0956dc00402000034c3e51000087
:2056e5000400000000000000000003dc7cf0000800000000000102285f7004000400f1ea71
:0a570500070000103eddc81c000084
:20570f00000200000000001000000000000000000000000000000015f7101c0000dbbe8017
:09572f0028000001f829b1e00096
:20573800000000000000000280000000000000000000000000000082da808000000a7f31b9
:0a575800400000103d44f808000076
:20576200000000000000000000022fd7f00e00000000000000241283eb00000000040a402f
:0957820000000000307fd8b000e7
:20578b000000300000000000000003ff5e00100000000000000103945eb8e000040ad7a04b
:0a57ab00e000000001b7ed0000006f
:2057b50000000000000000000000000007801c0000000010000022c2ff0a00000005082ef9
:0957d5004000000000000000008b
:2057de0008000000000000000000000000b000000000000080010204f8001180000055731b
:0a57fe00e28000000000000000003f
:20580800800000000000000000000000030000000000000000002837ed00040000000bf4ae
:095828006c000000000071a000fa
:205831000000000000000000000000000080000000000000000000807d78e0000040a57c21
:0a585100028000000000081c00188f
:20585b00000200000000000000000000000000000000000080000d14e300a00000a53e40e4
:09587b0029000002c46d08b4000c
:2058840004000000000000000000000000000000000000007000008348818400000df37d43
:0a58a400c07800000c3fa500800052
:2058ae0000000000a080000000000001e10e0400000000000000387cf909014000e25e0e81
:0958ce0040000007bc1b000000b3
:2058d700400000000a3a000000002028eb009000000000000000016ac8f0100810050167b2
:0a58f70046000050bfdeb01a000c9e
:205901000000000a7b60000000000082a08020000000000000000003f100000000500a028f
:0959210034050041495f1000004b
:20592a000000001203568000000100006979800000000002000800287e780000000aa7a98d
:0a594a00c040000000978380400079
:2059540000000008b02c40000000014305090000000000000004004690890000004206848e
:095974003c000413807a000010cd
:20597d0000000042c35a6600000000156e80000000000000000000024b7000000400a3fce2
:0a599d0000400061a014f00000803b
:2059a7000002000845a0400100000006e00000000000002800003141870c000000a30c00ee
:0959c70000010201495f00040a1d
:2059d000000000004292200000000201e90000000000000150011301fb801000040a37e1c0
:0a59f000c000000080978000014015
:2059fa000000000129a040000000000001100000000000000000002e8500000000269ac23d
:095a1a002ab00203807ad2900048
:205a230000003002423a20600000000000f9e0000000000000000292dc9800000001a3a010
:0a5a4300e01600a0a014f8012000f6
:205a4d0000000004207402000000000000101c000000000000003c3ec11a800000007bcc57
:095a6d002c000062a830000000ca
:205a760040000042af570004000000000078e000000000013000034bca98a40001008b3ae1
:0a5a9600000000002a84e78c000cd9
:205aa000000000058920000000000501000000000000000000003975e09f400800000b565c
:095ac0002c0000036fc908000866
:205ac900008000005a5a000000610851dc50000180000000000022026b38f000044805e03a
:0a5ae90046c0000039c00500005857
:205af3000002000015a00280200000179f1f00000000002020022937dd9a400000a003cc9d
:095b13003c00000000000001400c
:205b1c00000000000092066c01000201fa81f14000000000040001764af9ca0000450703de
:0a5b3c00600320000000018c00004f
:205b4600000000000000000000219680e90c00040000000020e09680f18008040000002656
:095b660000001000000000000026
:205b6f00480000000000000000002a9400001000c000000005080a9401500000c000000084
:0a5b8f00e000030000000000080c15
:205b990080000000000000000000000000090000000000000000163f8b000002100a040063
:095bb900000000000000080000db
:205bc2000000000000000000000000000000000000000000000003facf80000008a0a370bc
:0a5be2000280000000000700000030
:205bec000000000000000000000439c0900d000000000000000000000080000100003e360a
:095c0c00001000283c20000000fb
:205c15000400000000000000000103bd5c009000000000000000000000700000102407f41f
:0a5c3500e000006083dc0000004086
:205c3f00000200000000000000001000800080000000000000000000008818010428f60070
:095c5f00000080000000000400b8
:205c6800000000000000000000010001df00040000000000000000000018100008624dfc5c
:0a5c88000280580000000000280010
:205c920000000000000000000000080ef0000000000000004020014100000000000000004a
:095cb200200000000000000000c9
:205cbb00000020000000000000000003691800000000000080000014da1808000000000097
:0a5cdb00004000000000000000007f
:205ce500000000000000000000000000000000000000000000803bc2800f0000100503c0bb
:095d050000001000000000000085
:205d0e000000000000000000000000000000e0008000000000010178eb000000812001b45a
:0a5d2e000000030000000000400820
:205d3800000000000000000400000000000b00000000000000003e81000a000011ff0a0059
:095d58006c0000000000000000d6
:205d61000000000000000000000000000000000180000000000003e8da0010018025f7bc73
:0a5d81000280060000000000001878
:205d8b00000200000000000000000000000e00000000000080229680b00000000000000080
:095dab00000000000000000108e6
:205db4000000000000000000000000000030100000000000000e4a9401000008000000009a
:0a5dd40000000000000000000100c4
:025dde000000c3
:035de00062003f1f
:035de300720080cb
:025de6001100aa
:035de80082000036
:025deb000103b2
:085ded0000000c0000000000a2
:085df50000000c00000000009a
:085dfd0000000c000000000092
:085e050000000c000000000089
:085e0d0000000c000000000081
:085e150000000c000000000079
:085e1d0000000c000000000071
:085e250000000c000000000069
:085e2d0000000c000000000061
:085e350000000c000000000059
:085e3d0000000c000000000051
:085e450000000c000000000049
:085e4d0000000c000000000041
:085e550000000c000000000039
:085e5d0000000c000000000031
:085e650000000c000000000029
:085e6d0000000c000000000021
:085e750000000c000000000019
:085e7d0000000c000000000011
:085e850000000c000000000009
:085e8d0000000c000000000001
:085e950000000c0000000000f9
:085e9d0000000c0000000000f1
:085ea50000000c0000000000e9
:085ead0000000c0000000000e1
:085eb50000000c0000000000d9
:085ebd0000000c0000000000d1
:085ec50000000c0000000000c9
:085ecd0000000c0000000000c1
:085ed50000000c0000000000b9
:085edd0000000c0000000000b1
:085ee50000000c0000000000a9
:085eed0000000c0000000000a1
:085ef50000000c000000000099
:085efd0000000c000000000091
:085f050000000c000000000088
:085f0d0000000c000000000080
:085f150000000c000000000078
:085f1d0000000c000000000070
:085f250000000c000000000068
:085f2d0000000c000000000060
:085f350000000c000000000058
:085f3d0000000c000000000050
:085f450000000c000000000048
:085f4d0000000c000000000040
:085f550000000c000000000038
:085f5d0000000c000000000030
:085f650000000c000000000028
:085f6d0000000c000000000020
:085f750000000c000000000018
:085f7d0000000c000000000010
:085f850000000c000000000008
:085f8d0000000c000000000000
:085f950000000c0000000000f8
:085f9d0000000c0000000000f0
:085fa50000000c0000000000e8
:085fad0000000c0000000000e0
:085fb50000000c0000000000d8
:085fbd0000000c0000000000d0
:085fc50000000c0000000000c8
:085fcd0000000c0000000000c0
