:02000000ff00ff
:080002004c6174746963650030
:17000a00694345637562653220323031372e30382e32373934300069
:16002100506172743a2069434534304858314b2d545131343400fc
:1b003700446174653a204d617920323120323031392030303a30373a33390079
:0200520000ffad
:040054007eaa997e69
:02005800510055
:02005a0001059e
:03005c00920020ef
:03005f0062014bf0
:0300620072009099
:0300650082000016
:02006800110085
:02006a00010192
:20006c00000000000000000000000000000000000000000000000000000000000000000074
:09008c000000000000000000006b
:2000950000000000000000000000000000000000000000000000000000000000000000004b
:0a00b5000000000000000000000041
:2000bf00000000000000000000000000000000000000000000000000000000000000000021
:0900df00000000400000000000d8
:2000e8000000000000000000000000000000000000000000000000000000000000000000f8
:0a01080000000000000000000000ed
:200112000000000000000000000000000000000000000000000000000000000000000000cd
:09013200000000000000000000c4
:20013b000000000000000000000000000000000000000000000000000000000000000000a4
:0a015b00000000000000000000009a
:200165000000000000040000000000001000000000000040000000001000000000000040d6
:0901850000000000000000000071
:20018e00000000000000000000000000000000000000000000000000000000000000000051
:0a01ae00000000080000000000003f
:2001b800000000000004000000000000100000000000004000000000100000000000004083
:0901d8000000000000010000001d
:2001e1000000000000000000000000000000000000000000000000000000000000000000fe
:0a02010000000000000000000000f3
:20020b000000000000000000000000000000000000000000000000000000000000000000d3
:09022b00000000000000000000ca
:200234000000000000000000000000000000c00000000000000000000000000000000000ea
:0a02540000000000000000000000a0
:20025e00000000000000000000000030000000000000000000000000000000000000000050
:09027e0000000000000000000077
:20028700000000000000000000000000000000000000000000000000000000000000000057
:0a02a700000000000000000000004d
:2002b10000000000000000000000000000000000000000000000000000000000000000002d
:0902d10000000000000000000024
:2002da00000000000000000000000000000000000000000000000000000000000000000004
:0a02fa0000000000000000000000fa
:20030400000000000000000000840000000a540000000038400000061de6340000000fb67d
:09032400a81008002005d825509e
:20032d0000000000000000000000000000c05a000000000ba000080c01ecc300000001e73f
:0a034d0003d520000042c6eda20017
:20035700000200000000000000600000000a540180080f000060020047ca000180058a7e2d
:09037700be90060016220e714032
:2003800000000000000000000000000003c05a00000071bd0000002c2c10a000000019c031
:0a03a00003e90000000004fb220046
:2003aa00300300000000000000400003a00a540300011f780040006397a25421018000fe54
:0903ca003d4000414061d855405e
:2003d3000300200000000000000c000040c05a00300031bd000c000002e0da001000000982
:0a03f300814040000800020552801e
:2003fd00000200000000000000000000200a540000000080000002007cb25403000301f65f
:09041d00000000002e03ea556006
:2004260000002000000000000000000003c05a000000300900000004216ce5001000f0f7d3
:0a0446000014400001c0050f000083
:2004500000000000000000000000020000ef040000010ab0000002005de800100001809a6a
:09047000154010000001f925609f
:200479000000200000000000000000142800f000000000d90000000421ec00000000b00b72
:0a049900c0000000000034ee500027
:2004a30000000000000000000000020000cf040000000a0000000063e7c25420000018bb07
:0904c3002bc000081603e971507a
:2004cc000000000000000000000000142810f000000000050000000074d0da000000b0fd04
:0a04ec0003fc0002000005cf000031
:2004f60000000000000000000000000041ef0400000008300000024605ca00000003000759
:090516003cc48c0086047af52037
:20051f008000000000000000000000142800f020000001058000400e3820a000000008001c
:0a053f0043cc00401402020f50806c
:2005490000040000000000000000000041cf05030001008000c00000258df003000f809b66
:090569002bc004003e000000005c
:200572000002800000000000000000142810f000300058050008001c02deff086000b0cd36
:0a05920003fc40c000400000000020
:20059c0000010000000000000000020624aa0400000019380000020027ee2002005f81df1b
:0905bc00c5c008000063ee8000d8
:2005c5000000000000000000000000040060f5400040019b2400061c03e850000000d085cb
:0a05e500f9340000000034b00100fa
:2005ef000003000000000000006000078580540180000880000002079deaa001800000f27d
:09060f000c0086002600da05004b
:2006180000000000000000000000003440000540004001090000001c43f0a5000000000bc0
:0a063800c024000002c003005000bf
:20064200000000000000000000c00142a0cf54080008003000000202358050030000003e48
:0906620095400c0000664e800278
:20066b000000200000000000000c00142840fac0000090030000001c60500f00100000008f
:0a068b00415400c000028e0001007f
:2006950000020000000000000000014026aa040000018000000002005eef702000038197b3
:0906b500d480000020696d25408d
:2006be0000000000000000000000001401c0fa40000008050000002c22e052000000f8ff89
:0a06de0030600000004027eda0107e
:2006e8000000000000000000000000602eaa0400000580f00002000216be40000000011612
:09070800ac40800e003bfa714088
:200711000000200000000000000000000050f540000050af0000400041fffc00000000f0b8
:0a07310002c400000006b4df00005f
:20073b0000000000000000000000006626aa040000058080000008002fea500000018886df
:09075b009550000800036d634095
:2007640000000000000000000000000003d0fa400000000f000001402770aa0000000003d4
:0a07840002a8000001429f8c320021
:20078e000000000000000000000000022faa0400000800800004014367a0200000001a87d4
:0907ae00155000000032caa4003d
:2007b7000000000000000000000000000060f540000050050000a00060685a000000000571
:0a07d70002a8800003c00fba100052
:2007e100000000000000000000c0020067aa040300078b00000008021eae202300858086e8
:0908010095580c8000007ce20314
:20080a000000000000000000000800042240fa40300008f9000001640030e20020000083db
:0a082a0002a820800140010e20000a
:200834000000000000000000000000029685020000000000000200001ce2540400251c9e4e
:09085400a940080126674b3e4053
:20085d000000000000000000000000006c105000004000000000081c00dee500010001077f
:0a087d0082a80000004645b4f00018
:200887000002000000000000006002020000000000000000006000001cc05400000d191f16
:0908a700204086003e01787e40ed
:2008b00000000000000000000000000400000000000000000000000023c0f5080000908b29
:0a08d000c388000001c036af90009d
:2008da0000000000000000000000000000000000000000000000000000e5540001081fdebf
:0908fa0001400000003c7c5500a7
:2009030000000000000000000000000000000000000000000000000000d0aa080200d1e59a
:0a092300816800000047c005500085
:20092d000002000000000000000000000000000000000000000000000d8f500000019f76a6
:09094d0029400000203a4e8f0001
:200956000000000000000000000000340000000000000000000000000010f501000259e507
:0a0976008154000000440694500074
:200980000000000000000000000000000f9c5500080000000000020000000000000009d76d
:0909a000344080009605dc0a02d7
:2009a9000000200000000000000000000278c001080000000000003c000000000000018509
:0a09c900c30c000000023f0bd00039
:2009d300000000000000000000000007000000000000000000c000060000000000080f32ee
:0909f300a8008000062a4a8f00ca
:2009fc0000000000000000000000000040000000000000000004000000000000000011a9dd
:0a0a1c00c10800000020058450000e
:200a2600000000000000000000c000000000000000000000000002604000000010400f925d
:090a4600814001001e74daab02cc
:200a4f00000000000000000000040000000000000000000000000004200000000298018d37
:0a0a6f004280000008022c00700015
:200a7900000000000000000000000000000000000000000000c0000024c05410000180577d
:090a99003f400c000000000000c9
:200aa20000000000000000000000000000000000000000000008000002c0fa080000000f59
:0a0ac200a6f0008000000000000014
:200acc0000000000000000000000000640000000000000000080000001ef04020008000046
:090aec0000000000000000000001
:200af5000000000000000000000000002000000000000000000000000000f0c08000500041
:0a0b150000000000000000000000d6
:200b1f000000000000000000006000021ca55400000000000060000000000001800000005e
:090b3f00000000000000000000ad
:200b4800000000000000000000000000400055c10000000000000600000000000000000031
:0a0b68000000000000000000000083
:200b720000000000000000000000014001855600000000000004000000000000238000009f
:090b92000000000000000000005a
:200b9b000000000000000000000000020250aac0000000000000000000000000000000007c
:0a0bbb000000000000000000000030
:200bc50000020000000000000000000004c504000000000000000000000000000000000041
:090be50000000000000000000007
:200bee00010000000000000000000000003050000000000000000000000000000000000066
:0a0c0e0000000000000000000000dc
:200c1800000000000000000000000000008f04000000000000021000000000000000000017
:090c3800000000000000000000b3
:200c41000000200000000000000200003810f00000000000000240000000000008000000ef
:0a0c61000000002000000000000069
:200c6b00000000000000000000000000000000000000000000000000000000000000001059
:090c8b00295020000000000000c7
:200c9400000000000000000000000000000000000000000000000000000000000000000040
:0a0cb400029700000000000000009d
:200cbe0000000000000000000000006001e0f4180000000000000000000000000040000089
:090cde000000000000000000000d
:200ce70000000000000000000002000000100f400000000000020000000000000a0200007e
:0a0d070000000020000000000000c2
:200d1100000000000000000000c00000400000000000000000c002000000000300000000fd
:090d3100000001000000000000b8
:200d3a0000000000000000000008000020000000000000000008003c00000000200000000d
:0a0d5a00000000100000000000007f
:200d640000010000000000000000014664a55400000000000000020037e634000000000275
:090d8400bc18000000397ca040fd
:200d8d008000000000000000000000002260f04000400000000000043d68c3080000000060
:0a0dad0043c0040000041600000417
:200db7000002000000000000006000003f980000000000000060020214e2560180000007ab
:090dd7003c1806004000fc00403d
:200de0000000000000000000000000002cfe0000003800000000003c03cee540000000005f
:0a0e000043c0000008000ee40004e7
:200e0a0000000000000000000000020284e5042000000000000000604018140120001b002f
:090e2a00000000000403cd205873
:200e33004000000000000000000000044350214000000000000000003a4842a8308001e06a
:0a0e53000000000000200cd0080091
:200e5d0000020000000000000000000006a004000000000000000040068a060000000007ec
:090e7d00bc180000007800000020
:200e860000000080000000000002000002700fc000000000000000023810a010000000008f
:0a0ea60043c040040003c000000038
:200eb00000000000000000000000000004aa00000000000000000000558f5100000000003f
:090ed0000000000036017ca04086
:200ed9000000208000000000000200000020a02000000000000200002c30f50048000000dc
:0a0ef9000000002002c016000a00ed
:200f03000000000000000000000014601f86542000000000000400004eca02000000000023
:090f2300000000002600fc002083
:200f2c000000000000000000000000800010656000000000000020002030a000000000e060
:0a0f4c0000000000a2c24ee4000005
:200f560000000000000000000004000065e100000000000000c003e040166400088000004c
:090f760000000000a001fa800255
:200f7f0000000080000000000002000021f90000000000000006001c3acd994809000000a3
:0a0f9f000000002800c00308000055
:200fa900000000000000000000c00267a5e010000180000000c002000000000300000e0016
:090fc90000000c0000016c014263
:200fd2008000000000000000000800047fe90000000000000008002c0000000020000000b7
:0a0ff200000000800002a600088045
:200ffc0000000000000000000010020075e08000000000000000240780ef040400050bda62
:09101c0079c020002668ca2040ba
:2010250000000000000000000000000434c9000000000000000000004000f020000000a3b7
:0a104500ff1c000001c24ee3400052
:20104f000000180000000000006000c28f8800a0000000000060400001ef0501805000002a
:09106f00000006002000cf0d6016
:2010780000000000000000000000003628f0000800000000000000000010f0200002900050
:0a10980000000000014004c08000c9
:2010a200000000000000000000000002b6e800000000000000c001c0008f050000078800ea
:0910c200000000003e01cc880092
:2010cb0000000000000000000000001443cb000100000000000400020010f00000000100db
:0a10eb0000000000006004911000f6
:2010f50010020000000000000000000024f80000000000000000000000af04040000018372
:09111500955410000e00ec880056
:20111e0000000000000000000000003402c9000080000000000000000000f008000000b783
:0a113e0042a8c000002007a1100025
:201148000000000000003bc1000001c02fe14420000000000010000040000000080000bf3f
:0911680081d400000669efa50125
:20117100000020000000003c3010000201e03040000000000000000034000000010000e357
:0a1191003c3cc000016317ada00054
:20119b00000000000000000000000006558a00000000000000100000000000002801009b7b
:0911bb00001000011c2bdea00055
:2011c4000000000000000000000000243de0000000380000000000000000000001009003fe
:0a11e4004140040000232f0000002a
:2011ee000000000000000000000001c027e8001000000000000400000000000001011816cd
:09120e00948000401e280000003d
:20121700000000000f0000000000003602ce0000000000000000202400000000000008074f
:0a1237006b44000a04c3c00000006d
:20124100000030000000000000c003c29fc554000000000000c000078000000323081a523f
:0912610031c0808020707d040082
:20126a00000002000000000000080004401055d00000000000080000400000002100100068
:0a128a00c31c010022c665e000004d
:201294000000000001817280000002e00fd0800000000000000040000000000000010af248
:0912b400e2000020002800000007
:2012bd0000000000000008280000001602e80000004000000000000000000000000001c9d7
:0a12dd003c4400000242c000000083
:2012e7000000180098a872800060020044e0002000000000000000400000000180081e868a
:091307001c024601143a6f880033
:20131000000000000190f4140000000420508000000000000000000000000000000010cd53
:0a13300026c04000000657b110006f
:20133a000000100000037280004000000fb25400000000000000000000000000000d0a968c
:09135a009780400e0600e88002b5
:201363000000020000000828000800002eedda400000000000000000000000000000b8053e
:0a138300e87400000022950000004d
:20138d00000200000001b011080002006ed8000000000000000000000000000000051e0009
:0913ad00000000000005e88002c8
:2013b6000000000000009402d000001422fb0000000000000000000000000000000059b077
:0a13d60000000000c34235000004cf
:2013e0000000000081a7e600000000005fa254200000000000400000000000000000001614
:09140000bdd020010060000000d5
:20140900000020000b0a3f40000000002040e540000000000004000000000000000090ed09
:0a14290027fc000009440000000049
:2014330000000000199f3011080001c62eca0000000000000000000000000000000100d305
:09145300000000a01c02dde20013
:20145c0000000000000d3c02d00000002ef000000000000000000000280000000000780592
:0a147c00c28000040023358b8000bd
:201486000000000001af79410000000736a044200000000000000802800000000008009f6a
:0914a60039c08000007bfa424ac3
:2014af0000000000000abf049000800042500b4000000000000001000000000000009003cf
:0a14cf0083bc000200003d0a00800b
:2014d900000030000019b41900c002002016640000000000000002003dd3d00000000ab6df
:0914f9008410800016704f000001
:201502000000020000081740d008000402ca9940003000000000001401f87e080000f0072d
:0a1522004090200001402d9250106f
:20152c0000000000508bac0000000342a5f8040000000000000000000000000000250a56ad
:09154c00f8c80000006400000072
:20155500000000000010bf8040000014406a00404000000000000000000000000004090f8d
:0a157500e70c0000000680000000f3
:20157f00000018020181f10900600207a780400000000000000000000000000180000afe5d
:09159f00840006003e3800000043
:2015a800000000004510f308580000042a6e00000000000000000000000000000000008956
:0a15c800fc0000000042400000009b
:2015d20030001000501b2dc50000000285c800200000000000000006dcaaf00000070b134c
:0915f20034c000a014024ec00038
:2015fb00020002000088363c100000004050000100000000000000007b500501000009fb5c
:0a161b006b0c000020203ea0000030
:20162500007b0000f001f200000002600000000000000000000000000000000000080b7e54
:09164500800000000003f9b70069
:20164e00000000000100d3000000001400000000000000000000000000000000000011ef94
:0a166e0064100000034274c2100073
:2016780000000000181768490800000285f6340000000000000000000000000000050afbaf
:09169800009000000c02d802438e
:2016a10000000000000a0804900000004028634000000000000000000000000000000893dd
:0a16c10038282000040284052000f0
:2016cb0000000000199d30110000000677825400000000000000000000000003000100d7da
:0916eb00800000000462c9024005
:2016f4000000080001083642d000000025c9e540000000000000000000000000100050b555
:0a17140080280000000027a0500804
:20171e000000000000186595000000001ed08000000000000000000000000000001788deae
:09173e00000000002033fcaf00a4
:2017470008000000000ab62690000034037a0000000000000000020400000000001801bf75
:0a17670042800000024025005000ff
:2017710000003000180db01100c002063fc80020000000000000000000000000000598b7ff
:09179100029000000c29d8484226
:20179a00800002000000b602d00800346d70000000000000000000000000000000003003d9
:0a17ba00c03c200002400f08101888
:0217c400000023
:0217c60011010f
:0217c80001011d
:2017ca000000000000000000000000000000000000000000000000000000000000000000ff
:0917ea00000000000000000000f6
:2017f3000000000000000000000000000000000000000000000000000000000000000000d6
:0a18130000000000000000000000cb
:20181d000000000000000000000000000000000000000000000000000000000000000000ab
:09183d000000000003000000009f
:20184600000000000000000000000000000000000000000000000000000000000000000082
:0a1866000000000000000000000078
:20187000000000000000000000000000000000000000000000000000000000000000000058
:091890000000000000000000004f
:2018990000000000000000000000000000000000000000000000000000000000000000002f
:0a18b9000000000000000000000025
:2018c300000000000004000000000000100000000000004000000000100000000000004061
:0918e300000000000001000000fb
:2018ec000000000000000000000000000000000000000000000000000000000000000000dc
:0a190c0000000000000000000000d1
:2019160000000000000400000000000010000000000000400000000010000000000000400d
:09193600000000000001000000a7
:20193f00000000000000000000000000000000000000000000000000000000000000000088
:0a195f00000000000000000000007e
:2019690000000000000000000000000000000000000000000000000000000000000000005e
:0919890000000000000000c00095
:20199200000000000000000000000000000000000000000000000000000000000000000035
:0a19b2000000000000000004000027
:2019bc0000000000000000000000000000000000000000000000000000000000000000000b
:0919dc0000000000000000000002
:2019e5000000000000000000000000000000000000000000000000000000000000000000e2
:0a1a050000000000000000000000d7
:201a0f000000000000000000000000000000000000000000000000000000000000000000b7
:091a2f00000000000000000000ae
:201a380000000000000000000000000000000000000000000000000000000000000000008e
:0a1a58000000000000000000000084
:201a6200000000000000000000000000000000000000000000000000000000000000000064
:091a82000000000000000000005b
:201a8b0000000000000000000000000000000000000000000000000000000000000000003b
:0a1aab000000000000000000000031
:201ab500000000000000000000000000000000000000000000000000000000000000000011
:091ad50000000000000000000008
:201ade000000000000000000000000000000000000000000000000000000000000000000e8
:0a1afe0000000000000000000000de
:201b08000000000000000000000000000000000000000000000000000000000000000000bd
:091b2800000000000000000000b4
:201b3100000000000000000000000000000000000000000000000000000000000000000094
:0a1b5100000000000000000000008a
:201b5b00000200000000000000000000000000000000000000000000000000000000000068
:091b7b0000000000000000000061
:201b8400000000000000000000000000000000000000000000000000000000000000000041
:0a1ba4000000000000000000000037
:201bae00000000000000000000000000000000000000000000000000000000000000000017
:091bce000000000000000000000e
:201bd7000000200000000000000000000000000000000000000000000000000000000000ce
:0a1bf70000000000000000000000e4
:201c01000000000000000000000000000000000000000000000000000000000000000000c3
:091c2100000000000000000000ba
:201c2a0000000000000000000000000000000000000000000000000000000000000000009a
:0a1c4a000000000000000000000090
:201c5400000000000000000000000000000000000000000000000000000000000000000070
:091c740000000000000000000067
:201c7d00000000000000000000000000000000000000000000000000000000000000000047
:0a1c9d00000000000000000000003d
:201ca70000000000000000000000000000000000000000000000000000000000000000001d
:091cc70000000000000000000014
:201cd0000000000000000000000000000000000000000000000000000000000000000000f4
:0a1cf00000000000000000000000ea
:201cfa000000000000000000000000000000000000000000000000000000000200000000c8
:091d1a00000008000000000000b8
:201d2300000000000000000000000000000000000000000000000000000000003000000070
:0a1d4300000000c0000000000000d6
:201d4d000000000000000000000000000000000000000000000000000000000000000f0067
:091d6d000000000000000000006d
:201d760000000000000000000000000000000000000000000000000000000000000000103d
:0a1d96000000000000000000000043
:201da000000000000000000000000000000000000000000000000000000000000000000023
:091dc0000000000000000000001a
:201dc9000000000000000000000000000000000000000000000000000000000000000000fa
:0a1de90000000000000000000000f0
:201df3000002000000000000000000000000000000000000000000000000000000000000ce
:091e1300000000200000000000a6
:201e1c00000000000000000000000e00000000000000000000000000000000000000000098
:0a1e3c000000000480000000000018
:201e460000000000000000000000000000000000000000000000000000000000000000007c
:091e6600000000002c0000000047
:201e6f00000020000000000000000000000000000000000000000000000000000000000033
:0a1e8f000000000002000000000047
:201e9900000000000000000000000000000000000000000000000000000000000000000425
:091eb9003c1020000000000000b4
:201ec2000000000000000000000000000000000000000000000000000000000010000000f0
:0a1ee2003bc1a0400000000000001a
:201eec000000000000000000000000000000000000000000000000000000000000000000d6
:091f0c00000000000000000000cc
:201f1500000000000000000000000000000000000000000000000000000000001800000094
:0a1f35000000006000000000000042
:201f3f0000000000000000000000000000000000040000000000000000000000000000007e
:091f5f0000000020000000f04128
:201f6800000000000000000000000000000000000000000000000000000000000000000059
:0a1f880000000004000001af060491
:201f9200000000000000000000000000000000000000000000000000000000020000000429
:091fb2003c186800000010f0402a
:201fbb000000000000000000000000000000000000000000000000000000000030000000d6
:0a1fdb006bc124c0000001af040038
:201fe5000000000000000000000000000000000000000000000000000000000000000000dc
:0920050000000000004010f06032
:20200e000000000000000000000000000000000000000000000000000000000000000000b2
:0a202e0000000000000380af040072
:20203800000000000000000000000000000000000000000000000000000000000000000088
:09205800000000000003405a6082
:2020610000000000000000000000000000000000000000000000000000000000000000005f
:0a208100000000000000000a5400f7
:20208b00000200000000000000000000000000000000000000000000000000000000000033
:0920ab000000010000000000002b
:2020b40000000000000000000000000000000000000000000000010000000000000000000b
:0a20d4000000000000000000000002
:2020de000000000000000000000000000000000000000000000000000000000000001c00c6
:0920fe0000000000000010f04198
:20210700000020000000000000000000000000000000000000000000000000000000018017
:0a21270000000000000280ef0680b7
:20213100000000000000000000000000000000002800000000000000000000000000000462
:092151003c1200014028000000ce
:20215a00000000000000000000000000000000000100000000000000000000001000000054
:0a217a006bc1e14008000000000006
:20218400000000000000000000000000000000000000000000000000000000000000000437
:0921a4003c1000000000000000e6
:2021ad000000000000000000000000000000000000000000000000000000000018000000fa
:0a21cd0023c1806000000000000044
:2021d7000000000000000000000000000000000000000000000000000000000000000800e0
:0921f700000000000000000000df
:202200000000000000000000000000000000000000000000000000000000000000000010ae
:0a22200000000000000000000000b4
:20222a00000020000000000000000000000000000000000000000000000000000000000074
:09224a0000000800004000f0490a
:20225300000003000000000000000000000000000000000000000000000000000000000068
:0a227300000000c0000280ef04002c
:20227d000000080000000000000000000000000000000000000000000000000080000000b9
:09229d0000000200022c10f060a8
:2022a600800000000008000000000000000000000000000000000000000000000000000090
:0a22c60000000000004001cf0400fa
:2022d0000000000000000000000000400000000000000000000000000000000000000000ae
:0922f00000000000000010f06085
:2022f9000000000000000000000000200000000000000000000000000000000000000000a5
:0a2319000000000000e601ef0700dd
:20232300000208001083b6572020000034c00000000000000000000000000000800000003c
:0923430000000208000010f06126
:20234c008000000000005695900000000149124000000000000000000000000000000000da
:0a236c0000000000040000ef040070
:20237600000000001000000000000002800f000000000000000000000000000000000000a6
:0923960000000000000000f04806
:20239f000000200008000000000000140168f0800000000000000000000000000000000009
:0a23bf0000000000000000ef040021
:2023c9000000300000d00000000002c206005080000000000000000000000000002000003a
:0923e90000000000000000f049b2
:2023f2000000030000010000000000342d4850c00000000000000000000000000008000006
:0a24120000000044000001cf0400a8
:20241c00000000000000000000000140000f00000000000000000000000000000000000050
:09243c0000000000000000000097
:202445000000018000000000000600000068f0800000000000000000000000000000000018
:0a246500000000600000000000000d
:20246f000000000000000000000002c002a000000400000000000000000000008000000065
:09248f0000000200000010f048fa
:202498004000000000000000000000200160008000000000000000000000000000000000e3
:0a24b80000000000000000ef070024
:2024c20000002000000000000000004225afd21000000000000000000000000000070036a5
:0924e200dfc8000000026b0400d9
:2024eb000000030000000000000000260449f500800000000000000000000000000010a72f
:0a250b00fbfc000001c02590000059
:2025150000000800000b60bb0020000005e21000000000000020000000000000801008d4d5
:092535002bc802001c000000008c
:20253e00000000000000921d10000006001e124000000000000000000000000000047007cd
:0a255e00e968000000000000000022
:20256800000000000080000000000040258000000000000000000000000000000000007777
:09258800400000000042d0d30025
:20259100000000000001000000000020004b1240000000000000000000000000000018aba9
:0a25b1002e00000000073eae70206f
:2025bb0000020800008b8000002000200400400000000000002000000000000080050a00b8
:0925db00200002001c024b7f00ed
:2025e40000000000001c36a00080000e005e10420000000000000000000000000000700334
:0a260400ea000c000200019bf00048
:20260e0000000800d00082800000014000040000000000000000000000000000000b0f363d
:09262e00c0000000006e498100ab
:202637000000200000003e280000003e00ee40020000000000000000000000000000000788
:0a265700b420000001c78df0100050
:2026610008b43000010b8000000000075d84000000000000000000000000000000000f00ea
:09268100000000000040e0000030
:20268a0004800100000eb69004a000002edf0000000000000000000000000000000001f0b5
:0a26aa0000000000000786e0102089
:2026b4008000000050004014001003400000a000000000000000000000000000000000f6f9
:0926d40010004000344010050024
:2026dd000000018000001b0140060006004e0a400000000000000000000000000000000755
:0a26fd003000000001e2968050005a
:20270700000200009801b40080000162970a000400000000000000000000000000000000db
:0927270000000000006c0000003d
:2027300004000000098ab6c200000014664a000000000000000000000000000000051000a1
:0a27500000000000000780000000f8
:20275a000000200000000000000003403f00700000000000008000000100f4100050000078
:09277a00000000000001700308da
:2027830000000300000000000000000061f8054200000000000c0000001a0f40800200009c
:0a27a30000000000004034ea32207c
:2027ad000000000051000000000000c2010a0000000000000000000000000000208000004e
:0927cd00000000062c01c0000010
:2027d600000000000d8800000000002004e8a00000000000000000000000000000000000a2
:0a27f600000000000347a4a010201b
:202800000001000000000000000000000f0080000000000000000000000000000000000028
:09282000000000001e34d00a0083
:2028290000000000000000000000000603f807420000000000000000000000000000000045
:0a284900000000000040668000005f
:2028530020000000b00721ef00000262cd000000000000000000000000000000000000004d
:09287300000000001c00e8000058
:20287c0001000000080072449000002600c8a000000000000000000000000000000000005f
:0a289c00000000002803b4f1000062
:2028a60000000000000083c000000000270080000000000000000000000000000000000028
:0928c60000000000040000000005
:2028cf000000300000001a3c2000000001f8074200000000000000006000000000000000a1
:0a28ef0000000010020000000000cd
:2028f90000003008009083c0000000000c05000000000000000000000000000000000000a3
:09291900000000001c7cc98001d3
:20292200000003000001523c20000000000ca0000000000000000000000000000000000037
:0a2942000000000002029dd000001a
:20294c000000000010b003c00400a003dd0fa01000000000000000000000000000000000a5
:09296c00000000003c79dd0000d0
:20297500000001800800323c20060000060cf5000000000000060000000000000000000018
:0a299500000000000202cfc0100095
:20299f00000000000800000008000003640500100400000000000000000000000000000088
:0929bf000000000000245e00008d
:2029c80000000000018010002000000065de000000000000000000000000000000000000fb
:0a29e8000000000008603d840200ba
:2029f2000000000000000000008002c0070550000000000000000000000000000000103cdb
:092a12000f0008000400000000a0
:202a1b0000000000000a0000000c0020217ea508000000000000000020000000000000e514
:0a2a3b00688008c4000000000000dd
:202a4500000000000000000000000002d40f5000000000000000000035ff4000238500d848
:092a650000000000004000000028
:202a6e0000000000018000000000000002daf0010000000000000006014bf50000000005ae
:0a2a8e003280000000070000000085
:202a9800000000000000403c04000000000000000000000000000000000000000000080096
:092ab80000000000000000000015
:202ac10000000000000a0783d400000000000000000000000000000000000000000000107d
:0a2ae10000000000000000000000eb
:202aeb00000200000000000000000003400000004000000000000000000000000000000046
:092b0b00000000000000000000c1
:202b14000000000000000000000000040000000000000000000000566800000000001800c7
:0a2b34000000000000000000000097
:202b3e001000010000000000000002c0000000000000000000400000360590010000009404
:092b5e0002c00000000010f001ab
:202b670000002028000000000000003c2000000000000000000c00000158a50230300181bc
:0a2b870070040800000381af041081
:202b9100000000001000000000400023c6a95c100000000000000043f6f0a00020200cf8c9
:092bb10001000c000003405a0170
:202bba00800000400f000000000c001405de56600000000000000020654b4a0000010189ce
:0a2bda00384008c00002000a540051
:202be40000000000000b00000000000034059c1000000000000000400c03400100010a3c0a
:092c0400024000003c0000f00059
:202c0d00000001800000f283d0060000004a56620000000000000000006e3c02000000111c
:0a2c2d00f01408600200018f061089
:202c3700000000000005ba8000000340000ff100000000000000080001005000000100148d
:092c570017c00000000000f000ad
:202c60004000000000003a849000001e0000ff20800000000000014000cc05000000818beb
:0a2c800023fc0000000001ef0490a7
:202c8a0000002000000042802080000200000000000000000000000000000000000500742d
:092caa0039c20000000000f50031
:202cb3000000030001807f28000c0000040000000000000000000000000000000000900b2b
:0a2cd30023dd08000000058f5010fb
:202cdd0000000000008b3a69000000040305541000000000000000000d95b0000000000cdb
:092cfd000040000000400000004e
:202d060000000000000186d95000000069ea55400000000000000000285da500000019a32f
:0a2d260060040800140280000000a1
:202d3000000000000080804902000000000000000000000000000003c5c5e000000000507b
:092d5000148000000c30100a0090
:202d5900800000000001178490800000000000000000000000000006220ead0000005801f2
:0a2d7900e8400804020015a0a010b5
:202d8300000200000005e0002000000000000000000000000040014001055001020f005ce4
:092da3003c000000020340fa08a4
:202dac00000000000000f220000000000000000000000000000c803428cc5500300081a19a
:0a2dcc006be80000e140258ff000e5
:202dd60000000000100903fd000a00000305540000000000000000040000000000001b9ca3
:092df60028000400000000a010f8
:202dff00000020000d0010001000400001ca5540000000000000000070000000000018af90
:0a2e1f00680120c0080395ca0000f6
:202e290000002000009040cd000001428000000000000000000000400d925000000789004a
:092e49000000000a020000000074
:202e5200030001000001038cd0900000600000000000000000000020005d1841000150e005
:0a2e72000000000001c00000000095
:202e7c000040000000090000000000c0000f0c100000000000000043af0f4000000510921a
:092e9c003942000004027c000030
:202ea50000038180000010294006a0200018f0400000000000060024067cf002180091c774
:0a2ec5002fe8000001c00ee300003a
:202ecf00000000001091401500000000000f0410040000000000002004b8500000001e7a02
:092eef00e00000083e00000000b4
:202ef800000000000819028290000000000af0400000000000000014035d4000000000bdda
:0a2f18007140000201c70000000034
:022f22000000ad
:022f2400110298
:022f26000101a7
:202f2800000000000000000000000000000000000000000000000000000000000000000089
:092f480000000000000000000080
:202f5100000000000000000000000000000000000000000000000000000000000000000060
:0a2f71000000000000000000000056
:202f7b00000000000000000000000000000000000000000000000000000000000000000036
:092f9b000000000000000000002d
:202fa40000000000000000000000000000000000000000000000000000000000000000000d
:0a2fc4000000000000000000000003
:202fce000000000000000000000000000000000000000000000000000000000000000000e3
:092fee00000000000000000000da
:202ff7000000000000000000000000000000000000000000000000000000000000000000ba
:0a30170000000000000000000000af
:203021000000000000080000000000002000000000080000000000002000000000000080bf
:0930410000000000000200000084
:20304a00000000000000000000000000000000000000000000000000000000000000000066
:0a306a00000000000000000000005c
:2030740000000000000800000000000020000000000800000000000020000000000000806c
:0930940000000000000200000031
:20309d00000000000000000000000000000000000000000000000000000000000000000013
:0a30bd000000000000000000000009
:2030c7000000000000000000000000000000000000000000000000000000000000000000e9
:0930e700000000000000000000e0
:2030f0000000000000000000000000000000000000000000000000000000000000000000c0
:0a31100000000000000000000000b5
:20311a00000000000000000000000000000000000000000000000000000000000000000095
:09313a000000000000000000008c
:2031430000000000000000000000000000000000000000000000000000000000000000006c
:0a3163000000000000000000000062
:20316d00000000000000000000000000000000000000000000000000000000000000000042
:09318d0000000000000000000039
:20319600000000000000000000000000000000000000000000000000000000000000000019
:0a31b600000000000000000000000f
:2031c00000000000000000000000bbf6eb000000000000000000042dc80c000406c33384ca
:0931e00004001003f8df000000f8
:2031e900400000000000000000000b8cee18b00000000000080000025ef00000200633e0a8
:0a320900228000043fdef000000008
:2032130000000000000000000000829dd5000018000000000000a93ee81900180a0f720004
:093233000405601a77ee01a00108
:20323c008000000000000000000009400bd80000000000000000029ecc70800009017b3ca9
:0a325c0002000000664ec0000100f1
:2032660000000000000000000000b3ff81810000000000380000140f938c201810f01306c9
:09328600680200009e605800007f
:20328f00c000000000000000000008fe5900f00000000003000000000b380000888f81f83a
:0a32af000000100206ccef0000083a
:2032b900000200000000000000008334901c0000000000000011000ca18800004a4d500063
:0932d9000400002294ea01b8008f
:2032e2000000000000000000000008c1ebd100000000000000000008180000000988e0b402
:0a330200020000001541d00a40004f
:20330c00000000000000000000012bd7e8000000000000000001004dd81f00001263b38ebb
:09332c0004000042bdfb59a000a1
:203335000000200000000000000202bc203000000000000000000001cf718000000c31ec5e
:0a335500220000000140c10000004a
:20335f00000000000000000000042bd6e0010000000000002011a914d79e000000fb50407a
:09337f0000000000154101b188b5
:203388000000000000000000000000281a00c000000000000100016c18000000000f7ba86b
:0a33a800000000010282a00c0140a9
:2033b20000000000000000000000015e039900000000000000012bdee819800080625ba098
:0933d200600000409f41018000f1
:2033db000000000000000000000020282f00800000000000000000282e70d40000004728d2
:0a33fb004287000006cef00000003b
:20340500000000000000000000002bcce001000c000000000004a3978f9e1008000453c029
:09342500000030201560101000b9
:20342e00c000000000000000000010283970c000400000000000003f6f700000c100a7282f
:0a344e00000841000280b00a0004eb
:2034580000000010002066800000015ea000014000000000000383d5800000040270df606e
:093478006402100988ec51800087
:203481004000000000d000000000003c2a50000800000000000041540d0000000002c97080
:0a34a100420010000f3fe080000021
:2034ab00000000369100004006009a5ce0000018000000000000aa9cc01e00180252be5662
:0934cb0000006009cdcf001001e2
:2034d4008000000096300020000001a42000000000000000000042a81000000000020b6b3b
:0a34f400400010003bedd00a00007c
:2034fe0000000030a13d600000000000050a000000000000000183dc000100000272df403d
:09351e000000000978ec00100027
:2035270000000000a006c000000000000000a000000000000000003c0000800000018970c8
:0a354700000000002dbfe0080000a6
:2035510000020036910066000000bc1c00000000000000000000000000000080007a130046
:093571000002000af9cf0010006d
:20357a000000000096900000000003c020000000000000000000000000000010000623a04f
:0a359a0002c000003eadd0080000a2
:2035a400000000348904060000000000000000000000000000000000080000000262df6095
:0935c4006c000002bdeb708000f8
:2035cd00000020008412c00000000000000000000000000000000000009000000003c9719b
:0a35ed00c280000001408080010050
:2035f70000000020a16e060000001414858000000000000000000000000000000273be4ed1
:0936170060000001547c30100039
:2036200000000000500704000000014010000000000000000000000000000000000efb686d
:0a364000230000000000998e000036
:20364a00000000000f2600000010034ea198000000000000000000000018000000e41f0076
:09366a0000000112356c50e00073
:2036730000000000405e04000000003c2b000000000000000000000000008000008d4ba036
:0a369300000420002340000e000098
:20369d000000000013a80000001020d4a800000000000000000000000000000c027cbe401e
:0936bd000100300260f800110068
:2036c600c0000000003e00000000030c1a100000000000000000000000000000400f2b68cb
:0a36e600000001002f1e800a0004fe
:2036f0000000000000000000000000000000a0000000000000029c35e80b000502803ac0d3
:093710000400000bd94d981010c3
:203719004000000000000000000000000000040000000000080000b3ff108000004851f871
:0a373900034500001f96c188000040
:203743000000000000000000000000000000000000000000000094bde000001804af3b4ee1
:09376300680160026d680001417b
:20376c00800000000000000000000000000000000000000000000083fb0000040000502cbf
:0a378c0004002000097e90000000f8
:20379600000000000000000000000000000001400000002800009cb5e81c000000a55e0052
:0937b6007000301aa94e18e00061
:2037bf00000000000000000000000000000001080000000000000063ff51a000008550e9d0
:0a37df00c00002222a810919080027
:2037e900000200000000000000000000000000000000000000001e84e001000000af77c055
:093809000000001a394e181008e5
:203812000000000000000000000000000000080000000000000022446a008000000050ed01
:0a383200c000100003fea088010092
:20383c000000000000000000000000000000000000000000000098b5e000a00000a55e009c
:09385c000200000a396a1880001c
:203865000000200000000000000000000000000000000000000000f3ff000400000550b91f
:0a388500c302002103e4e08000000c
:20388f00000000000000000000000000000000000000000300009cfde0181c000000002c3d
:0938af0004020003f9cf0010c06f
:2038b8000000000000000000000000000000000000000000000003bffb00b0000000000182
:0a38d800c34010423ffda10a0000aa
:2038e200000000000000000004000000000000000000000000002bcfb318000000a55bce2f
:093902007c01000025fa99e000a7
:20390b000000000000000000000000000000000000000000000000140c080000004550b42b
:0a392b00278000000024f180004016
:203935000000000000000000000000000000000000000000001031548700100c0000001426
:093955007022001090ef00000048
:20395e00c000000000000000000000000000000000000000000013140038000040000000ea
:0a397e000400500002eea00800044f
:2039880000000000000000000000000000000000000000000000000000000000027efa8421
:0939a80070001009e3cd001000cd
:2039b100400000000000000000000000000000000000000000000000000000000006ffe0d1
:0a39d10002c000000334900800005b
:2039db000000000000000000000000000000000000000000000000000000001800765600e8
:0939fb0004006009c26c501001c7
:203a04008000000000000000000000000000000000000000000000000000000000034f28a8
:0a3a2400020000000826cd88000013
:203a2e000000000000000000000000000000000000000000000000000000000002aa721446
:093a4e006c000009c3cd0000006a
:203a570000000000000000000000000000000000000000000000000000000000000aa08322
:0a3a7700420000001934900e000018
:203a8100000200000000000000000000000000000000000000000000018a0000007a5e6060
:093aa100600000098a6c5000006d
:203aaa0000000000000000000000000000000000000000000000000000d1000008062f2cc2
:0a3aca00400000200f26c08000001d
:203ad400000000000000000000000000000000000000000000000000000000000205324059
:093af40078000009ffcd008000fc
:203afd0000002000000000000040000000000001000000000000000000000001000fa02375
:0a3b1d00440204003374901a0010f3
:203b270000000000000000000000000000000000000000000000000001000000023a32808f
:093b470000000202bc680010003d
:203b500000000000000000000000000000000000000000000000000000000000000289f8d2
:0a3b7000000000000140a00a000060
:203b7a000000000000000000000000000000800000000000000000000000000002707220a7
:093b9a000280000b7bcd81a40028
:203ba3000000000000000000000000000000040100000000000000000000000100020d7479
:0a3bc30042c004001e34910a0010f5
:203bcd00000000000000000000000000000000000000000000028137b00000000252329454
:093bed000000300357dc800000e9
:203bf600c000000000000000000000000000000000000000000000b2eb000008010689fbbf
:0a3c160060000100343cf1000004de
:203c200000000000000000000000000000000000000000280000015fc800000000af7b808a
:093c400000000402bddf00054094
:203c490000000000000000000000000000000000000000010800001430100000000050743a
:0a3c6900034000000141df000000ed
:203c7300000000000000000000000000000000000000000000103b44c000401810a537c6d8
:093c93003c00600281fa380014c3
:203c9c000000000000000000000000000000000000000000400002102c000a00000550a08b
:0a3cbc002380000028010080008032
:203cc600000000000000000000000000000000000000000000909017c000000000af330005
:093ce60000000042bddb000000fb
:203cef0000000000000000000000000000000000000000000000212829000000010050747e
:0a3d0f00000000000142d000000097
:203d190000020000000000000000000000000000000000000000028dad0a000000055f9c42
:093d390000000000144d9014007c
:203d420000000000000000000000000000000000000000000000202820110008000050c0d0
:0a3d62002000000100039f8e2000e6
:203d6c0000000000000000000000000000000000000000000000015fc78e000040ed3bdc3e
:093d8c0078200000000000000096
:203d950000002000000000000000000000000000000000000000000039f0e001000840227a
:0a3db500c000040000000f0b001016
:203dbf00000000000000000000000000000000000000000000103b57c19e008046403a564d
:093ddf0060000003f3c001c00004
:203de8000000000000000000000000000000000000000000000002103c7100100004a03216
:0a3e0800438000003f1c0910000079
:203e120000000000000000000000000000000000000000000000140cc3800000000000002d
:093e32003a000002bcff80b00060
:203e3b00000000000000000000000000000000000000000000000140100000010000000015
:0a3e5b00465004000140df1f201054
:203e650000000000000000000000000000000000000000000010a81ef81e00000400f74e08
:093e85002874000294ed01a0086c
:203e8e000000000000000000000000000000000000000000000001801db100000008097440
:0a3eae00020400001542bf0e0100df
:203eb80000000000000000000000000000000000000000000000a940180e1800001116c6d6
:093ed800000100022e5f701000d1
:203ee1000000000000000000000000000000000000000000000011680d71c000010883aed0
:0a3f0100400500000b969d8a400069
:203f0b000000000000000000000000000000000000000008000000000500001800055b8091
:093f2b0000006000474e11808087
:203f340000000000000000000000000000000000000000000000000000b804101005f0e4b8
:0a3f5400000100002204b9990000ea
:203f5e00000000000000000000000000000000000000000000003d47e00a0000808d580070
:093f7e0000002003f8e100d0006e
:203f87000000000000000000000000000000000000000000000002802c0100000104ef3047
:0a3fa700000002003f669f1a0000b0
:203fb10000020000000000000000000000000080000000000002280685001000020f78061a
:093fd100300001022ce980a0047b
:203fda00000000000000000000000000000000140000000000002280200000000000f08081
:0a3ffa00274000000740e7000080a8
:20400400000000000000000000000000000000000000000000002a5fc81e00000000175eb8
:0940240022800000fdfc80000078
:20402d000000200000000000000000000000000000000000000001aae970b0c0000047a8f0
:0a404d00229200020c2d97000000e3
:20405700000000000000000000000000000000000000001000119015d519000040cf3fa0a7
:0940770078000010046f701a1c9f
:204080000000000000000000000000000000000000000000000001280c18f400100cb0b063
:0a40a00044000005001d908e404012
:2040aa00000000000000000000000000000000000000000000402bcdd0000540000a300e61
:0940ca002000020000eb10f008d8
:2040d3000000000000000000000000000000000000000000000040281e000000008050b8bf
:0a40f300040000041026900d0000e8
:2040fd000000000000000000000000000000000000000000000000cdb81920000000001ec7
:09411d00780030038bff11f20061
:204126000000000000000000000000000000000000000000000043cc59f1d0000000000050
:0a4146002400014014beb78c4000b5
:2041500000000000000000000000000000000000000000000000b82ea0080002000157c6a1
:094170000000000029483980001c
:204179000000000000000000000000000000000000000000080202006e50a000000001fcbf
:0a419900024008000283098a0000ba
:2041a30000000000000000000000000000000000000000000000141ee801001a00af1840c0
:0941c3000500690a80481880011a
:2041cc0080000000000000000000000000000000000000000000414030f080000005f0b489
:0a41ec004200000018028d0b0000d5
:2041f600000000000000000000000000000000000000000050000000000f000002ca3a80c4
:0942160000000008624a180008cb
:20421f0000000000000000000000000000000000000000000200000000008000001c0bb323
:0a423f0042c0000421279d001d402d
:204249000002000000000000000000000000000000000000002029579580000002427b548b
:0942690001000808135d5000403b
:204272000000000000000000000000000000000000000000000402a83f000000001d1934d5
:0a429200200000400b3ea08b00004e
:20429c00000000000000000000000000000000000000000000003b55d39f000086cabae016
:0942bc000681000014fc01e00081
:2042c500c00020000000000000000000000000000000000000000210cf01e000201c01b842
:0a42e500430000010142070e00082b
:2042ef0000000000000000000000000000000000000000000004028e811b00000000000e71
:09430f000280300044cd50f000a2
:204318000000000000000000000000000000000000000000000020280009f0000000000143
:0a433800600002002206908e0000d3
:20434200000000000000000000000000000000000000000010112e8df7180000000577a054
:0943620005000002bcd8000000b7
:20436b000000000000000000000000000000000000000000020040000e080000080000e0f2
:0a438b00434500022bc000000000b3
:20439500000000000000000000000000000000000000000000048d148b8f008140085f24fd
:0943b50030203808b37900000043
:2043be000000000000000000000000000000000000000000000240105d78c010010000faed
:0a43de00e4002105023e97000000f4
:2043e8000000000000000000000000000000000000000000000094bfd1800000000a32c015
:094408000400002801cc01801021
:204411000000000000000000000000000000000000000000000025e8cd0000002005f03864
:0a44310003c00004101cc00000804e
:20443b00000000000000000000000000000000000000000000409f2fd70e08180081dfc02e
:09445b000000600bfcce00000122
:204464008000000000000000000000000000000000000000000004b0ee01000400047b6c26
:0a448400000000007ecce000000004
:20448e000000000000000000000000000000000000000000000000000f80e009d2e250543e
:0944ae000000304afdcc501080e2
:2044b700c0000000000000000000000000000000000000000000000000500000e80d103898
:0a44d700224003007fdcc508800cc2
:2044e10000020000000000000000000000000000000000000001be3dd001000000025a0090
:094501002802001bbcc0500000a0
:20450a000000000000000000000000000000000000000000000007815800f0000000b73ecc
:0a452a004680400037cce00000009e
:2045340000000000000000000000000000000000000000000080281481800000c23a5f1639
:094554006000000281c8908000a3
:20455d000000200000000000000000000000000000000000000002803008e0000013a0c011
:0a457d00000200402802019a4000ed
:2045870000000000000000000000000000000000000000000021807ed80c00800004d8169f
:0945a700003000000000000800d3
:2045b00000000000000000000000000000000100000000000000001e6f31f00800008d3c6b
:0a45d0002000000000000000400081
:2045da00000000000000000000000000000000000000000000200154d00e80000005733e38
:0945fa00040200017d5e78f0006e
:204603000000000000000000000000000000000000000000000000003e000800000050c041
:0a462300638000000282df0a00003d
:20462d000000000000000000000000000000000000000000200000000b8b000c40fa56c457
:09464d0062203002a56a00000899
:20465600c000000000000000000000000000000000000000040000000039f800400fe0a878
:0a467600201001001a97d00e014435
:02468000000038
:02468200110322
:02468400010132
:20468600000000000000000000000000000000000000000000000000000000000000000014
:0946a600000000000000004000cb
:2046af000000000000000000000000000000000000000000000000000000000000000000eb
:0a46cf0000000000000000340000ad
:2046d9000000000000000000000000000000000000000000000000000000000000000000c1
:0946f900000000000000000000b8
:20470200000000000000000000000000000000000000000000000000000000000000000097
:0a472200000000000000000000008d
:20472c0000000000000000000000000000000000000000000000000000000000000000006d
:09474c0000000000000000000064
:20475500000000000000000000000000000000000000000000000000000000000000000044
:0a477500000000000000000000003a
:20477f0000000000000800000000000020000000000800000000000020000000000000804a
:09479f000000000000020000000f
:2047a8000000000000000000000000000000000000000000000000000000000000000000f1
:0a47c80000000000000000000000e7
:2047d2000000000000080000000000002000000000080000000000002000000000000080f7
:0947f200000000000002000000bc
:2047fb0000000000000000000000000000000000000000000000000000000000000000009e
:0a481b000000000000000000000093
:20482500000000000000000000000000000000000000000000000000000000000000000073
:09484500000000000c000000005e
:20484e0000000000000000000000000000000000000000000000000000000000000000004a
:0a486e000000000000c00000000080
:20487800000000000000000000000000000000000000000000000000000000000000000020
:0948980000000000000000000017
:2048a1000000000000000000000000000000000000000000000000000000000000000000f7
:0a48c10000000000000000000000ed
:2048cb000000000000000000000000000000000000000000000000000000000000000000cd
:0948eb00000000000000000000c4
:2048f4000000000000000000000000000000000000000000000000000000000000000000a4
:0a4914000000000000000000000099
:20491e00000000000000000000000000000000000000000000000000000000000000000079
:09493e0000000000000000000070
:20494700000000000000000000000000000000000000000000000000000000000000000050
:0a4967000000000000000000000046
:20497100000000000000000000000000000000000000000000000000000000000000000026
:094991000000000000000000001d
:20499a000000000000000000000000000000000000000000000000000000000000000000fd
:0a49ba0000000000000000000000f3
:2049c4000000000000000000000000000000000000000000000000000000000000000000d3
:0949e400000000000000000000ca
:2049ed000000000000000000000000000000000000000000000000000000000000000000aa
:0a4a0d00000000000000000000009f
:204a170000020000000000000000000000000000000000000000000000000000000000007d
:094a370000000000000000000076
:204a4000000000000000000000000000000000000000000000000000000000000000000056
:0a4a6000000000000000000000004c
:204a6a0000000000000000000000000000000000000000000000000000000000000000002c
:094a8a0000000000000000000023
:204a93000000200000000000000000000000000000000000000000000000000000000000e3
:0a4ab30000000000000000000000f9
:204abd000000000000000000000000000000000000000000000000000000000000000000d9
:094add00000000000000000000d0
:204ae6000000000000000000000000000000000000000000000000000000000000000000b0
:0a4b060000000000000000000000a5
:204b1000000000000000000000000000000000000000000000000000000000000000000085
:094b3000800000000000000000fc
:204b390000000000000000000000000000000000000000000000000000000000000000005c
:0a4b59000000000000000000000052
:204b6300000000000000000000000000000000000000000000000000000000000000000032
:094b830000000000000000000029
:204b8c00000000000000000000000000000000000000000000000000000000000000000009
:0a4bac0000000000000000000000ff
:204bb60000000000000000000000000000000000000000000000000000000000020f0824a2
:094bd60000001000000000f000d6
:204bdf00440000000000000000000000000000000000000000000000000000001020f380cf
:0a4bff000600030000000001000c96
:204c090080000000000000000000000000000000000000000000000000000000000000000b
:094c29003c0000096809000000cc
:204c3200000000000000000000000000000000000000000000000000000000000000000062
:0a4c520000400000a940000000002f
:204c5c00000000000000000000000000000000000000000000000000000000000050003cac
:094c7c0000000409680e000000ac
:204c85000400000000000000000000000000000000000000000000000000000000050520e1
:0a4ca50060000000a94010000000ac
:204caf0000020000000000000000000000000000000000000000000000000000004007801c
:094ccf003c0000000000000000a0
:204cd800000000000000000000000000000000000000000000000000000000000c00072c7d
:0a4cf80000000000000000000000b2
:204d0200000000000000000000000000000000000000000000000000000000000000bbc016
:094d220000000000000000000088
:204d2b000000200000000000000000000000000000000000000000000000000000080bb481
:0a4d4b00000000000000000000005e
:204d550000000000000000000000000000000000000000000000000000000000000000241a
:094d750000020000000000000033
:204d7e00000000000000000000000000000000000000000000000000000000000000000213
:0a4d9e00068052000000000000082b
:204da8000000000000000000000000000000000000000000000000000020000000000000cb
:094dc800000000083c200000007e
:204dd1000000000000000000000000000000000000000000000000000000000000000000c2
:0a4df1000000060083c40000001853
:204dfb00000200000000000000000000000000000000000080000000000000000000000016
:094e1b00280000083c00f0000032
:204e240000000000000000000000000000000000000000000000000000000000000000006e
:0a4e44000040000083de08000000bb
:204e4e000000000000000000000000000000000000000000002483c20f0d400500c0068232
:094e6e0078000010002a01000088
:204e770004000000000000000000000000000000000000000004583d40981000cc0c57a0c7
:0a4e9700e6c00010008c91980000a6
:204ea10080000000000000000000000000000000000000100000000000000000001b001c2a
:094ec1006c00000006e9f100009c
:204eca000000000000000000000000000000000000000002000000000000000004027582c9
:0a4eea000280000000bc190e000059
:204ef4000000000000000000000000000000000000000000000000000000000000007e7ca4
:094f140040000000024d9800006d
:204f1d000400000000000000000000000000000000000000000000000000000000001fe26f
:0a4f3d000380000100bee1800000c7
:204f47000002000000000000000000000000008000000000000017c5f000000100050b9655
:094f670001010002036af80000d8
:204f700000000000000000000000000000000004000000000004037fff0000000408b327b2
:0a4f9000c0082000003c819a0000d8
:204f9a000000000000000000000000000000000000000000000000000000000000e703c24b
:094fba0028000201005d01e0087d
:204fc300000020000000000000000000000000000000000000000000000000000448100151
:0a4fe300404000850037858b000078
:204fed00000000000000000000000000000000000000000000829680f08000000000138009
:09500d00a00200000eeb010000fe
:20501600000000000000000000000000000000000000000000000a9401780000800023b808
:0a5036000040500000afa58a010001
:205040000000000000000000000000000000000000000000002283c2000d000000f50e5e7b
:095060000000000174f9d0000009
:2050690000000000000000000000000000000000000000000000083de00000018005a37564
:0a50890040000020179de59a00008a
:20509300000200000000000000000000000000000000000000000000000000000000db948c
:0950b30038000400016800b0009f
:2050bc000000000000000000000000000000000000000000000000000000000000008f3a0b
:0a50dc0046000000040d878a000062
:2050e600000000000000000000000000000000000000000000001000e08f000100050a809b
:0951060000200000000000f00090
:20510f00000000000000000000000000000000000000000000010000df78f0000000a7048d
:0a512f000000000000000000000076
:2051390000000000000000000000000000000000000000000000002cc00e001004e703d688
:095159002c004000014801000196
:20516200000000000000000000000000000000000000000000000022e900100014081001e5
:0a518200402000000077e00e00005e
:20518c00000000000000000000000000000000000000000000000000071d0000000edf00f2
:0951ac0038000000000a000000b8
:2051b5000000000000000000000000000000000000000000000000000081f0000000a93090
:0a51d50000405010005c8020000034
:2051df00000200000000000000000000000000000000000000002b80c00e00100005042eee
:0951ff003800404280100808014c
:2052080000000000000000000000000000000000000000000001017c7f00000000005369cd
:0a522800c2c000002806c50e0000f9
:205232000000000000000000000000000000000000000000000001429700000000d10c3471
:0952520020000040027c008000f5
:20525b0000002000000000000000000000000000000000000000002961b00000040d17228f
:0a527b00004000000816858b0000bb
:205285000000000000000000000000000000000000000000200014c000104c000053002c3a
:0952a50000010000081900a0003e
:2052ae0000000000000000000000000000000000000000000101028dc000a800050a37029f
:0a52ce0000000011000c85810000b3
:2052d800000000000000000000000000000000000000000040002035808004000001b3c0a9
:0952f800010000014030b000008b
:2053010000000000000000000000000000000000000000000200010b5e50a00000000370bd
:0a532100000000011406a81e0000a1
:20532b0000000000000000000000000000000000000000108000000000100c1000eabbec15
:09534b0000004000000050b041d8
:205354000000000000000000000000000000000000000002810000000000e040000f556ac8
:0a53740000280000000009000000fe
:20537e00000000000000000000000000000000000000000000201507ab90000000e51b8018
:09539e0070000000fc18d8e000ca
:2053a7000800000000000000000000000000000000000000000002905fd0808000080929e3
:0a53c700c30000100d5dd1010000cd
:2053d1008000000000000000000000000000000000000000000002829d0c4090004202d427
:0953f10024004001936809b00199
:2053fa0000000000000000000000000000000000000000000000017dcc001810040e70217e
:0a541a00c00000002924c1080000b2
:2054240000000000000000000000000000000000000000000000062eb0000100008b3e7c3e
:09544400420000010ace71f000e3
:20544d000400000000000000000000000000008000000000000003f8d801e8080005f97e7b
:0a546d00030200002060090a00009d
:20547700000000000000000000000000000000000000000300403bc10f88001000010a80a4
:09549700000040000000000201c9
:2054a0000000000000000000000000000000000000000000000103bcf891d0000442212844
:0a54c000000000000000000840009a
:2054ca00000000000000000000000000000000000000000000002880c00b400000ff0e8082
:0954ea002c000803282ad9000255
:2054f300000000000000000000000000000000000000000000010008c80003c0000f57f5aa
:0a551300c0000010301da70a0000c0
:20551d0000000000000000000000000000000000000000000000035f8b00000010f897c220
:09553d0064000000003f00d000f2
:2055460008000000000000000000000000000000000000000000002adf80000000004fb9ac
:0a55660047000010285fd00100008c
:20557000800000000000000000000000000000000000000000000000008d140000a1023423
:0955900040000000000c000000c6
:2055990000000000000000000000000000000000000000000000000000501008040a77a164
:0a55b900c78000011681d01a00001f
:2055c3000000000000000000000000000000000000000000000031c6930d0000002cd3f43e
:0955e3002c000800166f58d000de
:2055ec000400000000000000000000000000000000000000000001294e80f0000003cbecf9
:0a560c00e680000422d7e901000047
:20561600000000000000000000000000000000000000000000000d02b980000000057a802d
:09563600020000017979008000f6
:20563f000800000000000000000000000000000000000000000501d94d3800002028b5b82a
:0a565f00000000002f77f7000000a4
:20566900800000000000000000000000000000000000000000003d42e18e180010c20a407f
:0956890034600000000010d000a4
:205692000000000000000000000000000000000000000000000001406e118000040405a407
:0a56b20006000000000007010040a0
:2056bc000000000000000000000000000000000000000010000000000010000000185280c4
:0956dc0024000001540e019000ad
:2056e5000400000000000000000000000000000000000000000000000079c00000000870f0
:0a57050060401000294db01c0000a8
:20570f000002000000000000000000000000000000000000000017030f1e00000000031c12
:09572f0000000001000f91f000e0
:205738000000000000000000000000000000000000000000000101707af0e0000005056c1f
:0a57580000000010204e801c00002d
:205762000000000000000000000000000000000000000000000014c3dd80010000ca0376af
:09578200385000000beb18a000e8
:20578b000000300000000000000000000000000000000000000103cd7f38e208044c538534
:0a57ab0040000000004c150e000045
:2057b500000000000000000000000000000000000000000000202943d000000d005102c058
:0957d50020002000014c0001003d
:2057de00080000000000000000000000000000000000000000000015de180000c40a153c79
:0a57fe0000000300006dc008000069
:205808008000000000000000000000000000000000000000000022c0c008004000050c0cf9
:0958280000000000e8000080000f
:2058310000000000000000000000000000000000000000000001091c60701001800051a2dd
:0a585100000006100e9587190000f4
:20585b00000200000000000000000000000000000000000080000235a00000000000001cb8
:09587b0040020003964c110000ec
:20588400040000000000000000000000000000000000000000000178ed000000000000009a
:0a58a40002805000399d980a0c00a4
:2058ae00000000000000000000000000000000000000000800001482bf8b0001000f06bc20
:0958ce0078000012800090d00067
:2058d700000000000000000000000000000000000000000100010005cd9800001404736456
:0a58f70003800000280e8509000060
:205901000000000000000000000000000000008000000000000016e5d98e000000addb42da
:0959210040000241402c0100008d
:20592a0000000000000000000000000000000010000000000000036cff981000200a47fdc9
:0a594a00c2a808002816100800008b
:20595400000000000000000000000000000000000000000030000602e99f00000010125cf5
:09597400404000001150008000c9
:20597d00000000000000000000000000000000000000000005010095cd108000000001be53
:0a599d00038000020137858010002e
:2059a700000200000000000000000000000000000000000000003f43f00d00801005021cac
:0959c70020200010941b31d000d7
:2059d0000000000000000000000000000000000000000000000103fdef00001504485362b1
:0a59f000024000118615d01f0000d0
:2059fa00000000000000000000000000000000000000000000003e83cd00000000420e842b
:095a1a00280000002c0a9880000d
:205a2300000030000000000000000000000000000000000000000168e9800200040475e3ff
:0a5a4300c04000100087fd090000bc
:205a4d000000000000000000000000000000000000000000000000c0a010000000e5fb40a9
:095a6d0038002003e2dc00900087
:205a760000000000000000000000000000000000000000000001029dee00a000000a417d1a
:0a5a9600400002003f87f0011000fd
:205aa000000000000000000000000000000000000000000000002002f00000000842d69420
:095ac000288002030cea99c000e1
:205ac900000000000000000000000000000000000000000000010001fc00001400247fe028
:0a5ae900c640060038df9998001847
:205af300000200000000000000000000000000000000000040000026dd001c800047b23c7d
:095b13006a82000284ee00900099
:205b1c00000000000000000000000000000000000000000000000020fd800010200815750a
:0a5b3c00431840012887e000000034
:205b460000000000000000000000000000000000000000000000000000000006909552dce6
:095b6600347010003c0010000036
:205b6f0048000000000000000000000000000000000000000000000000000000d02a5ba7d2
:0a5b8f0042c0038083dc0000000c1c
:205b9900800000000000000000000000000000000000000000000000000014020405071630
:095bb900000000000000010000e2
:205bc20000000000000000000000000000000000000000000000000000000000082af1fca4
:0a5be200400000000000001c00005d
:205bec000000000000000000000000000000000000000000000000000000000109acf200f1
:095c0c002c0000000000008000e3
:205c1500040000000000000000000000000000000000000000000000000000000825cb84ef
:0a5c35006280000000000000000083
:205c3f000002000000000000000000000000000000000000000000000100000010001e9480
:095c5f00800000000000000000bc
:205c68000000000000000000000000000000000000000000000000000080000200401ba49b
:0a5c88000000000000000000000012
:205c92000000000000000000000000000000000000000000000000000700004280ff3fb437
:095cb200380002003c00b00000c3
:205cbb0000002000000000000000000000000000000000000000000000000000202efb7ce4
:0a5cdb000640008483ce080000009c
:205ce5000000000000000000000000000000000000000000000217c1d000000204fff78079
:095d0500000030403c20000000c9
:205d0e00800000000000000000000000000000000000000000004a807a000000002effbcc8
:0a5d2e000000030483d60000000803
:205d38000000000000000000000000000000000000000000000000000000000000ff3f808d
:095d580068000861680f000000fa
:205d61000000000000000000000000000000000000000000000000000000e001902efb7c0c
:0a5d810002000600a94010000018ff
:205d8b000002000000000000000000000000000000000000800000000000180000fff780e8
:095dab002c000000000090000033
:205db40000000000000000000000000000000000000000000000000000000000010effbc05
:0a5dd4006000000000000000000065
:025dde000000c3
:035de00062003f1f
:035de300720080cb
:025de6001100aa
:035de80082000036
:025deb000103b2
:085ded000c00000000000000a2
:085df5000c000000000000009a
:085dfd000c0000000000000092
:085e05000c0000000000000089
:085e0d000c0000000000000081
:085e15000c0000000000000079
:085e1d000c0000000000000071
:085e25000c0000000000000069
:085e2d000c0000000000000061
:085e35000c0000000000000059
:085e3d000c0000000000000051
:085e45000c0000000000000049
:085e4d000c0000000000000041
:085e55000c0000000000000039
:085e5d000c0000000000000031
:085e65000c0000000000000029
:085e6d000c0000000000000021
:085e75000c0000000000000019
:085e7d000c0000000000000011
:085e85000c0000000000000009
:085e8d000c0000000000000001
:085e95000c00000000000000f9
:085e9d000c00000000000000f1
:085ea5000c00000000000000e9
:085ead000c00000000000000e1
:085eb5000c00000000000000d9
:085ebd000c00000000000000d1
:085ec5000c00000000000000c9
:085ecd000c00000000000000c1
:085ed5000c00000000000000b9
:085edd000c00000000000000b1
:085ee5000c00000000000000a9
:085eed000c00000000000000a1
:085ef5000c0000000000000099
:085efd000c0000000000000091
:085f05000c0000000000000088
:085f0d000c0000000000000080
:085f15000c0000000000000078
:085f1d000c0000000000000070
:085f25000c0000000000000068
:085f2d000c0000000000000060
:085f35000c0000000000000058
:085f3d000c0000000000000050
:085f45000c0000000000000048
:085f4d000c0000000000000040
:085f55000c0000000000000038
:085f5d000c0000000000000030
:085f65000c0000000000000028
:085f6d000c0000000000000020
:085f75000c0000000000000018
:085f7d000c0000000000000010
:085f85000c0000000000000008
:085f8d000c0000000000000000
:085f95000c00000000000000f8
:085f9d000c00000000000000f0
:085fa5000c00000000000000e8
:085fad000c00000000000000e0
:085fb5000c00000000000000d8
:085fbd000c00000000000000d0
:085fc5000c00000000000000c8
:085fcd000c00000000000000c0
