:02000000ff00ff
:080002004c6174746963650030
:17000a00694345637562653220323031372e30382e32373934300069
:16002100506172743a2069434534304858314b2d545131343400fc
:1b003700446174653a204d617920313920323031392030373a34363a3431006f
:0200520000ffad
:040054007eaa997e69
:02005800510055
:02005a0001059e
:03005c00920020ef
:03005f0062014bf0
:0300620072009099
:0300650082000016
:02006800110085
:02006a00010192
:20006c00000000000000000000000000000000000000000000000000000000000000000074
:09008c000000000000000000006b
:2000950000000000000000000000000000000000000000000000000000000000000000004b
:0a00b5000000000000000000000041
:2000bf00000000000000000000000000000000000000000000000000000000000000000021
:0900df00000000400000000000d8
:2000e8000000000000000000000000000000000000000000000000000000000000000000f8
:0a01080000000000000000000000ed
:200112000000000000000000000000000000000000000000000000000000000000000000cd
:09013200000000000000000000c4
:20013b000000000000000000000000000000000000000000000000000000000000000000a4
:0a015b00000000000000000000009a
:20016500000000000004000000000070100000000000004000000000100000000000004066
:0901850000000040000000000031
:20018e00000000000000000000000008000000000000000000000000000000000000000049
:0a01ae000000000000000000000047
:2001b800000000000004000000000000100000000000004000000000100000000000004083
:0901d8000000000000010000001d
:2001e1000000000000000000000000000000000000000000000000000000000000000000fe
:0a02010000000000000000000000f3
:20020b000000000000000000000000000008000000000000000000000000000000000000cb
:09022b00000000000000000000ca
:2002340000000000000000000000000000004000000000000000000000000000000000006a
:0a02540000000000000000000000a0
:20025e00000000000000000000000000000000000000000000000000000000000000000080
:09027e0000000000000000000077
:20028700000000000000000000000000000000000000000000000000000000000000000057
:0a02a700000000000000000000004d
:2002b10000000000000002000000000000000000000000000000000000000000000000012a
:0902d10000000000000000000024
:2002da00000000000000000000000000000000000000000000000000000000000000000004
:0a02fa0000000000000000000000fa
:200304000000000000000000000000000000000000000000000000000000000000000000d9
:09032400000000000000000000d0
:20032d00000000000000000000000000000000000040000000000000000000000000000070
:0a034d0000000000000000000000a6
:20035700000200000000000000000000000000000000000000000000000000000000000084
:090377000000010000000000007c
:2003800000000000000000000000000000000000000000000000000000000000000000005d
:0a03a0000000000000000000000053
:2003aa00200300000000000000000000000000000000000000000000000000000000000010
:0903ca000000000000000000002a
:2003d3000300200000000000000000000000000000000000000000000000000000000000e7
:0a03f3000000000000000000000000
:2003fd000002000000000000000000000000000000000000000000000000000000000000de
:09041d00000000000000000000d6
:20042600000020000000000000000000000000000000000000000000000000000000000096
:0a04460000000000000000000000ac
:2004500000000000000000000000000000000000000000000000000000000000000000008c
:0904700000000000000000000083
:20047900000020000000000000000000000000000000000000000000000000000000000043
:0a0499000000000000000000000059
:2004a300000000000000000000000000000000000000000000000000000000000000000039
:0904c30000000000000000000030
:2004cc00000000000000000000000000000000000000000000000000000000000000000010
:0a04ec000000000000000000000006
:2004f6000000000000000000000000000000000000000000000000000000000000000000e6
:09051600000000000000000000dc
:20051f000003000000000000000000000000000000000000000000000000000000000000b9
:0a053f0000000000000000000000b2
:20054900000000000000000000000000000000000000000000000000000000000000000092
:0905690000000000000000000089
:20057200000000000000000000000000000000000000000000000000000000000000000069
:0a059200000000000000000000005f
:20059c004001000000000000000000000000000000000000000000000000000000000000fe
:0905bc0000000000000400000032
:2005c5000000200000000000000000000000000000000000000000000000000000000000f6
:0a05e500000000000002000000000a
:2005ef00000300000000000000000000000000000000000000000000000000018000000068
:09060f00000000000069cea0000b
:200618000800000000000000000000000000000000000000000000000000000000000000ba
:0a063800000000000000020a0000ac
:200642004c000000000000000000000000000000000000000000000000000000000000004c
:09066200000000000003fc8022ee
:20066b0000c02000000000000000000000000000000000000000000000000000000000008f
:0a068b000000000000003d00000028
:200695000002000000000000000000000000000000100000000000000000000000000a0029
:0906b500000000000001ee5000fd
:2006be00000000000000000000000000000000000002000000000000000000000000010019
:0a06de00000000000000020500000b
:2006e8000000000000000000000000000000000000000000000000000000000000000000f2
:09070800000000000001fc0002e9
:200711000000200000000000000000000000000000000000000000000000000000000000a8
:0a073100000000000003bd001300eb
:20073b0000000000000000000000000000000000000000000000000000000000000000009e
:09075b000000000000680000002d
:20076400000000000000000000000000000000000000000000000000000000000000000075
:0a078400000000000000000000006b
:20078e0000000000000000000000000000000000000000000000000000000000000000004b
:0907ae0000000000142800000006
:2007b700000000000000000000000000000000000000000000000000000000000000000022
:0a07d7000000000000000000000018
:2007e100006800000000000000000000000000000000000000000000000000030000000687
:09080100bc102000002ac8000010
:20080a000000000000000000000000000000000000000000000000000000000020000000ae
:0a082a0043c300000140270502004f
:20083400000000000000000000000140440008000000000000000000000ff2000000000016
:090854000000000000000100801a
:20085d000000000000000000000000362008000000400000000000000000ff1000000000ce
:0a087d0000000000000000b00020a1
:200887000002000000000000006000001c8f0c0000000000000000000000000180000000b7
:0908a700000000000029c8f080e7
:2008b00000000000000000000000000000000f0000280000000000000000000000000000f1
:0a08d000000000000000000f00000f
:2008da0000000000000000000000000620812c0000000000000000000000000000038000a8
:0908fa00000000000000c8f080bd
:2009030000000000000000000000000002c9210000000000000000000000000000000000e8
:0a092300000000000000020f0000b9
:20092d00000200000000000000000200148f0c0000000000000000000000000000000000f7
:09094d00000000000661e8f080e2
:2009560000000000000000000000000400200f00000000000000000000000000000000004e
:0a097600000000000024020f000042
:2009800000000000000000000000000036850c000000000000000000000000000000000090
:0909a00000000000006a69560025
:2009a90000002000000000000000008002c0050000000000000000000000000000000000c7
:0a09c9000000000000000ea6a000d0
:2009d3000000000000000000000000664e912400000000000000000000000000000000009b
:0909f300000000002000000000db
:2009fc00000000000000000000000000202c1200000000000000000000000000000000007d
:0a0a1c00000000000140000000008f
:200a260000000000000000000000006005c800000000000000000000000000000000000083
:090a460000000000160000000091
:200a4f00000000000000000000000000005e00000008000000000000000000000000000021
:0a0a6f00000000000000000000007d
:200a7900000000000000000000000000349000000000000000000000000000030000000294
:090a9900bc101000006800000010
:200aa200000000000000000000000000017c02000000000000000000000000002000000095
:0a0ac20003c3000000000000000064
:200acc0000000000000000000000014000a96400000000000000006224b71400000d8a00d4
:090aec0000000000000000000001
:200af50001000000000000000000007601c06900000000000000000001ccf0010000510031
:0a0b150000000000000000000000d6
:200b1f0000000000000000000060000000e0f40000000000006000000fe054018005015afe
:090b3f009c5000000100000000c0
:200b480000000000000000000000000028000f0000000000000000040040fa004000088947
:0a0b68002fc0010000000000000093
:200b72000000000000000000000002000000000000000000000002001ec5040300098f12cb
:090b9200a800000000280000008a
:200b9b000000000000000000000000042c0000000200000000000004002050003000518093
:0a0bbb0002800000000400000000aa
:200bc50000020000000000000000006005b930000000000000c01400000a5400000500fe8b
:090be5008958800000014c0a004f
:200bee00000000000000000000000034004ac300000000000004008003c05a000000080fee
:0a0c0e000368040000000300a000ca
:200c180000000000000000000000000004a0a00010000000000001e60ce5020000010e007f
:090c3800000000000004000000af
:200c410000002000000000000002000000100a0000000000000200000030500008000900c4
:0a0c61000000000000034000000046
:200c6b000000000000000000000a0000258b00200000000000000200018f302000001e1778
:090c8b00dc500000000000000034
:200c94000000000000000000000040000150f00000000000000000040000f300400000f197
:0a0cb40023c004000000000000004f
:200cbe0000000000000000000000006005ac102000000000000000005e85541000038fbb41
:090cde0058d010000000000000d5
:200ce7000000000000000000000080000040c3000000000000020000203055c1080008db17
:0a0d0700e70c0000000000000000ef
:200d1100000000000000000000000000000000000000000000c001404000000300018153a9
:090d310080000000000000000039
:200d3a0000000000000000000000000000000000000000000008000020000000200000d37e
:0a0d5a00be00400008000000000089
:200d6400000100000010000000000062e4af340000071e70080401c364ea000000031b0064
:090d84000000080020637edf007e
:200d8d000000000000080000000000002d4eeb4000000905b000a0023dd0fa00000001f040
:0a0dad0000000000044265fff000a2
:200db7000002180000000000006000001da5040180078000000001c6ffa00000002d000041
:090dd700000006003e03d93c00b7
:200de00000000000000000000000000000400a4000009007000020027a700a000031b000db
:0a0e0000000000000042ffa2c00045
:200e0a000000300010070001000002003daf3403000780b8080001c02ec7a02000000c375b
:090e2a00a8080c00000178006228
:200e3300000803000080502950000004017ecf403000000180000036025050000000000927
:0a0e5300c3d4004000000600800038
:200e5d000002000000000000000001461daf520000030080000001e3a7bbd080000300836f
:090e7d00a8000000b4065a12405e
:200e86000000000000000000000000002800f50100000001000001423f7dbc00000000a1d1
:0a0ea6004140000013e244981000e0
:200eb00000000000000000000000000380850400000800900400000687ea020000001a00e7
:090ed000000000021c07780a4131
:200ed90000002080000000000002000001d0a0400800f005800000004140f50008000000ab
:0a0ef9000000002000238490400058
:200f030000000000000000000000000025a2550000000a000000006396e0a00002000856cf
:090f2300e00000021c00000000c7
:200f2c0000000000000000000000000003fde500400000010000000040100a000000000124
:0a0f4c00ac000000000000000000ef
:200f56000000000001a00000000000e3ede5551000081bf804000007348bc02000001c00df
:090f760000000000006adca0008c
:200f7f000180008007000000000200002370f000000050af000000002650740008000000d4
:0a0f9f00000000200000040fa10074
:200fa90000003001000523d580c000005da55503000f8e80000401c7a580020000000e9fa3
:090fc900ad400c00000400000022
:200fd200000002002000043d70080000203055007000f1af0000200602705000000000fb8c
:0a0ff20067980080000280000000f4
:200ffc0000000000180f2dc50000036675940400000000d8001000403fa10002000818d349
:09101c00df80080140634cd46040
:201025000000000000003abc10000014285925400040000fa801000c3cd800000008700714
:0a10450063e4000000c406af0004dd
:20104f00000018000000315500600366d680000180090080000a03c006f0010181a000b71d
:09106f005740064c400158f560a1
:20107800000000000000142a9000003c2afa80000040b80f0000003c015f02010000f00b09
:0a1098002c34000a0bc03400a2043f
:2010a200000004008000016900000206a5a80220000f80b0000002005580802028080017cc
:0910c2002e4080000e061ad460d5
:2010cb00000000000100b02950000004014000000000f8078000003c3c2008000100700303
:0a10eb0080d000000163c4ae800451
:2010f5000002000019803280000003e615a0442000100100000000c021ec502028100b807b
:0911150020500042a604d86340fa
:20111e0000000000000014140000000602603840000000950000000031c0ca0003b200871d
:0a113e003908000ac3c3bcdc3010fe
:2011480000000000001078cd080001c38c80800000001a78000000602d9e50000000007756
:09116800dc0000402460fb43415f
:20117100000020000008000cf8000000005f0000000000ff0000004000ced900000090015c
:0a119100bbc0000002e005c23008f8
:20119b000000000000033e00000000001681000000078080000008e0000000000009981fad
:0911bb0010d080002e065a50608d
:2011c4000000000009001f800040000002fa0000000008030000002600000000000070ff87
:0a11e40043080000004234ae808092
:2011ee000000000001af2a0008000003a5a8002800001e00000000038eea0000280801f7c6
:09120e008010008020005b1340f9
:2012170000000000000e380000000000414000010000000b000002007a50fa00010810df26
:0a123700c028000001c387d8320070
:2012410000003000800068cd08c000003780041100099980000002e2d7fe500320279c867d
:0912610081500c000e001ea0409b
:20126a00000002000100040cf808000000600fc0100059910000001e385ce600213871b70f
:0a128a004028008000201c05001021
:201294000000000001813a8100800000000a54000000000000000007800000000008017b14
:0912b4000000000416200a550098
:2012bd00000000000000583d5200060038c05a000040000000000000400000000000909131
:0a12dd0082a800000146c40aa00028
:2012e70000001800000000000060000041cf040000000000000000000000000000080093c0
:09130700000000000039488000dc
:201310000000000000000000000000002400f000000000000000000000000000000050b7a2
:0a13300082800000034437d0000063
:20133a0000003000100000000040020040ef0400000000000000000044ca00800000007bd5
:09135a001dc0000014286c800283
:201363000000030009000000000400242400f00000000000000040003cf0f500000000a120
:0a138300a7b8000003668600000012
:20138d0000020000800d3a8100000200200a540000000000000014000000000000000a1246
:0913ad004840014080297ee20065
:2013b600000000000100503e9000002401c05a000000000000000000000000000000d103e5
:0a13d6007e0c00021006f79a1000ca
:2013e0000000000001a3ba810000000000af040000000000000012039dc5500000051a7ff6
:09140000154000001e20cc800004
:20140900000020000000543d500000040000f000000000000000000c4020550000005000bd
:0a142900415400000004069000008a
:20143300000000001993aa9500000000000a540000000000000001c20000000000000a1370
:09145300b0c080000001ca800253
:20145c00000000000008b8155000000403405a000000000000000002400000000000000365
:0a147c0040a0000000000600000080
:2014860000000000d9d3fa810000000001af0410000000000000000035ca500000000ad32f
:0914a6006340000000781a5500b3
:2014af0000000000051a583d500000040000f000020000000000000023f0aa00000000095d
:0a14cf00e23800000000050aa0004a
:2014d90000003000d8057a8100000000018f0410000000000000000200000000000501fe41
:0914f900a800800000381855001d
:20150200000002000500503e900000040010f000000000000000000040000000000058e523
:0a152200434400000000340aa0005a
:20152c00000000000007a815010000000000000000000000000001c63e8f500000058a7fe8
:09154c008500080400676a714083
:20155500000020000d003c3e900000000000000000000000000000023cd05000002008a514
:0a157500b44400080003cc9f0000fe
:20157f00007018000003b955016000003f80000000000000000003e3e78810200020003bb3
:09159f002080860e000209716033
:2015a800000408000000d83c1200000400c00a2000000000000000066650d1000001000b6a
:0a15c80000000000000015eb208079
:2015d20030000000019039550300020001af040000000000000000005dcf502000078a7f45
:0915f200850000002071eef540b7
:2015fb0000000000000cd42a800000140000f00000000000000000002650e208000051058c
:0a161b00b444000000442db71a90fb
:20162500000000008000283d41c002000000000000000000000008603dc8100000000077c9
:091645002080808026625c635065
:20164e0000000000010b0403c004001438000000000000000000014200fd50000000008b3e
:0a166e00800000040040169c3010bc
:20167800100000008005e955040000001daaf004000000000000016724ca000000081d1233
:09169800b14080040005fa55413f
:2016a1000200200001000415500002000020af10400000000000000043c0f500002050a96b
:0a16c10003000000000380055290b2
:2016cb000000000000100000000200e0000000000000000000000167bda00000000b813785
:0916eb0009400000a0061b71413a
:2016f40000000000000a00000000400200000000000000000000001c284bc000000058af34
:0a1714007580000004c214eb2000f1
:20171e0000000000181000000000000056aa0000000000000000c3c78ddef01000001adf95
:09173e006ac000000e077e05419f
:201747000000000000080000000000002020a008000000000000001e03ed8f00000800f3fa
:0a176700bc1c001000222c0fa00093
:201771000000300000010295000001c0000000000000000000000202800000001053087a66
:09179100a8000c008003daf0410d
:20179a0000000200000800295000000200000000000800000000017c00000000028258a9a0
:0a17ba0043d4008013c01d0aa000f4
:0217c400000023
:0217c60011010f
:0217c80001011d
:2017ca000000000000000000000000000000000000000000000000000000000000000000ff
:0917ea00000000000000000000f6
:2017f3000000000000000000000000000000000000000000000000000000000000000000d6
:0a18130000000000000000000000cb
:20181d000000000000000000000000000000000000000000000000000000000000000000ab
:09183d00000000000d0000000095
:20184600000000000000000000000000000000000000000000000000000000000000000082
:0a18660000000000008000000000f8
:20187000000000000000000000000000000000000000000000000000000000000000000058
:091890000000000000000000004f
:2018990000000000000000000000000000000000000000000000000000000000000000002f
:0a18b9000000000000000000000025
:2018c300000000000004000000000000100000000000004000000000100000000000004061
:0918e300000000000001000000fb
:2018ec000000000000000000000000000000000000000000000000000000000000000000dc
:0a190c0000000000000000000000d1
:2019160000000000000c0000000000001000000000000040000000003000000000000040e5
:09193600000000000001000000a7
:20193f00000000000000000000000000000000000000000000000000000000000000000088
:0a195f00000000000000000000007e
:2019690000000000000000000000000000000000000000000000000000000000000000005e
:0919890000000000000000c00095
:201992000000001000000000000000000000000000000000000040000000000000000000e5
:0a19b2000000000000000004000027
:2019bc0000000000000000000000000000000000000000000000000000000000000000000b
:0919dc0000000000000000000002
:2019e500000000100000000000000000000000000000000000004000000000000000000092
:0a1a050000000000000000000000d7
:201a0f000000000000000000000000000000000000000000000000000000000000000000b7
:091a2f00000000000000000000ae
:201a38000000002000000000000000000000000000000000000080000000000000000000ee
:0a1a58000000000000000000000084
:201a6200000000000000000000000000000000000000000000000000000000000000000064
:091a82000000000000000000005b
:201a8b0000000000000000000000000000000000000000000000000000000000000000003b
:0a1aab000000000000000000000031
:201ab500000000000000000000000000000000000000000000000000000000000000000011
:091ad50000000000000000000008
:201ade000000000000000000000000000000000000000000000000000000000000000000e8
:0a1afe0000000000000000000000de
:201b08000000000000000000000000000000000000000000000000000000000000000000bd
:091b2800000000000000000000b4
:201b3100000000000000000000000000000000000000000000000000000000000000000094
:0a1b5100000000000000000000008a
:201b5b00000200000000000000000000000000000000000000000000000000000000000068
:091b7b0000000000000000000061
:201b8400000000000000000000000000000000000000000000000000000000000000000041
:0a1ba4000000000000000000000037
:201bae00000000000000000000000000000000000000000000000000000000000000000017
:091bce000000000000000000000e
:201bd7000000200000000000000000000000000000000000000000000000000000000000ce
:0a1bf70000000000000000000000e4
:201c01000000000000000000000000000000000000000000000000000000000000000000c3
:091c2100000000000000000000ba
:201c2a0000000000000000000000000000000000000000000000000000000000000000009a
:0a1c4a000000000000000000000090
:201c5400000000000000000000000000000000000000000000000000000000000000000070
:091c740000000000000000000067
:201c7d00000000000000000000000000000000000000000000000000000000000000000047
:0a1c9d00000000000000000000003d
:201ca70000000000000000000000000000000000000000000000000000000000000000001d
:091cc70000000000000000000014
:201cd0000000000000000000000000000000000000000000000000000000000000000000f4
:0a1cf00000000000000000000000ea
:201cfa000000000000000000000000000000000000000000000000000000000000000000ca
:091d1a00000000000000000000c0
:201d23000000000000000000000000000000000000000000000000000000000000000000a0
:0a1d43000000000000000000000096
:201d4d00000000000000000000000000000000000000000000000000000000000000000076
:091d6d000000000000000000006d
:201d760000000000000000000000000000000000000000000000000000000000000000004d
:0a1d96000000000000000000000043
:201da000000000000000000000000000000000000000000000000000000000000000000023
:091dc0000000000000000000001a
:201dc9000000000000000000000000000000000000000000000000000000000000000000fa
:0a1de90000000000000000000000f0
:201df3000002000000000000000000000000000000000000000000000000000000000000ce
:091e1300000000000000000000c6
:201e1c000000000000000000000000000000000000000000000000000000000000000000a6
:0a1e3c00000000000000000000009c
:201e460000000000000000000000000000000000000000000000000000000000000000007c
:091e660000000000000000000073
:201e6f00000020000000000000000000000000000000000000000000000000000000000033
:0a1e8f000000000000000000000049
:201e9900000000000000000000000000000000000000000000000000000000000000000029
:091eb90000000000000000000020
:201ec200000000000000000000000000000000000000000000000000000000000000000000
:0a1ee20000000000000000000000f6
:201eec000000000000000000000000000000000000000000000000000000000000000000d6
:091f0c00000000000000000000cc
:201f15000000000000000000000000000000000000000000000000000000000000000000ac
:0a1f350000000000000000000000a2
:201f3f0000000000000000000000000000000000040000000000000000000000000000007e
:091f5f0000000000000000000079
:201f6800000000000000000000000000000000000000000000000000000000000000000059
:0a1f8800000000000000000000004f
:201f920000000000000000000000000000000000000000000000000000000000000000002f
:091fb20000000000000000000026
:201fbb00000000000000000000000000000000000000000000000000000000000000000006
:0a1fdb0000000000000000000000fc
:201fe5000000000000000000000000000000000000000000000000000000000000000000dc
:09200500000000000000000000d2
:20200e000000000000000000000000000000000000000000000000000000000000000000b2
:0a202e0000000000000000000000a8
:20203800000000000000000000000000000000000000000000000000000000000000000088
:092058000000000000000000007f
:2020610000000000000000000000000000000000000000000000000000000000000000005f
:0a2081000000000000000000000055
:20208b00000200000000000000000000000000000000000000000000000000000000000033
:0920ab000000000000000000002c
:2020b40000000000000000000000000000000000000000000000000000000000000000000c
:0a20d4000000000000000000000002
:2020de000000000000000000000000000000000000000000000000000000000000000000e2
:0920fe00000000000000000000d9
:20210700000020000000000000000000000000000000000000000000000000000000000098
:0a21270000000000000000000000ae
:2021310000000000000000000000000000000000000000000000000000000000000000008e
:0921510000000000000000000085
:20215a00000000000000000000000000000000000000000000000000000000000000000065
:0a217a00000000000000000000005b
:2021840000000000000000000000000000000000000000000000000000000000000000003b
:0921a40000000000000000000032
:2021ad00000000000000000000000000000000000000000000000000000000000000000012
:0a21cd000000000000000000000008
:2021d7000000000000000000000000000000000000000000000000000000000000000000e8
:0921f700000000000000000000df
:202200000000000000000000000000000000000000000000000000000000000000000000be
:0a22200000000000000000000000b4
:20222a000000200000000000008000024000000000000000000000000000000000000000b2
:09224a000000000000000000008b
:202253000000030000000000000c00000400000000000000000000800000000000000000d8
:0a2273000000000000000000000061
:20227d00800008000000000000200000000000000000000000000000000000000000000099
:09229d0000000000000000000038
:2022a600000000000000000000000000000000000000000000000000000000000000000018
:0a22c600000000000000000000000e
:2022d000000000000000815500000000000000000000000000000000000000000000000018
:0922f000000000000000000000e5
:2022f9000000000000001e95502000000000000000000000000000000000000000000000a2
:0a23190000000000000000000000ba
:202323008000080000000000002000000000000000000000000000000000000000000000f2
:0923430000000000000000000091
:20234c00000000000000000000000000000000000000000000000000000000000000000071
:0a236c000000000000000000000067
:202376000000000000000000002002c03fae548000000000000000000000000000000000a4
:092396000000000000000000003e
:20239f0000003000018000000000002003492540000000000000000000000000000000009c
:0a23bf000000000000000000000014
:2023c900000000000000000000800000000000000000000000000000000000000000000074
:0923e900000000000000000000eb
:2023f200000000000000000000040000600000000000000000000000000000000000000067
:0a24120000000000000000000000c0
:20241c000000000000f00000000000000000000000000000000000000000000000000000b0
:09243c0000000000000000000097
:202445000000018000010000000600000000000000000000000000000000000000000000ef
:0a246500000000000000000000006d
:20246f00000000000000000000000003400000000400000000000000000000000000000006
:09248f0000000140000000000003
:20249800000000000000000000000000040000000000000000000000000000000000000020
:0a24b800000000000000000000001a
:2024c20000002000000b402924800000000000000000000000800000000000020000000040
:0924e20000000800000010f040a9
:2024eb000000030000003694100c00000000000000000000000c00000000000030000000ac
:0a250b00000000c0000001cf040032
:20251500000008001889c000002000000000000000000000002000000000000080000d0070
:09253500000002000000405a40c1
:20253e00000000000f017220008000000000000000000000000000000000000000000080db
:0a255e00000000000000000a540015
:20256800000000000000428000000000000000000000000000000000000000000000000091
:0925880000000000002010f040ea
:2025910000000000000012a800000000000000000000000000000000000000000000000070
:0a25b10000000000006041af0400cc
:2025bb0000020800180d414000200000000000000000000000200000000000008000000090
:0925db00000002000002d801001a
:2025e40000000000070802a80000000000000000000000000000000000000000000000001e
:0a2604000000000000002e8000001e
:20260e0000000800000d7049002000000000000000000000000000000100f4900000000039
:09262e00000000000000c05a4148
:20263700000020000198329410000000000000000000000000000000000a0f40400000005b
:0a265700000000000006200a5400f5
:202661000000200000a74049008000440000000000000000000000000000000300000f042f
:092681003c104c000002db0101d9
:20268a00000001000018139412840020700000000038000000000000600000003000001072
:0a26aa003bc140400003ae90000069
:2026b400000000001009800000000000000000000000000000000000000000000000000469
:0926d4003c10000000027c000132
:2026dd0000000180080016a800060000680000000008000000060000000000001800000002
:0a26fd0023c18060000017d2000026
:202707000000000018a3209500000000360f040000000000000000000000000000000804ed
:092727003c1000001402db00006c
:20273000000000000b8a735010000000006a5548000000000000000000000000000000100a
:0a2750002bc1800002062e908000cd
:20275a000000200000057ec900800002eee0b480000000000080000000000002000080006d
:09277a003882080000024ba000a7
:20278300000003000180869c500c0000027a044000000000000c00000000000030007801bf
:0a27a30063880ac0080025b8200072
:2027ad000000000000a72d00000a00c20000000000000000000003c00000000000000a0c93
:0927cd002c4000000c0178820090
:2027d60000000000000f86e00000400604000000000000000000002000000000000019d516
:0a27f6003ac40800020037885000c2
:20280000000000000005bfc10000002386b0b40000000000000000200000000000000fb443
:09282000140000014220100c001c
:20282900000000000000df9c50000006627b04400000000000000004000000000000001584
:0a284900eaa80000006041c0c420ae
:20285300000200000000815500000000140214800000000000000000010f0c002000107b1c
:09287300638000800029481f0069
:20287c00000000000000769550000000021a124200000000000000000008f0600000008198
:0a289c006e340000006076e0f000ea
:2028a6000000000018ef8395000000433e0000000000000000020000000f0c8000050004cc
:0928c600300000001c39d00a00aa
:2028cf00000020000d1956895080003c6eee8002000000000000400e001af0400000508072
:0a28ef003b01080003e040c0540064
:2028f9000000200400a7ac0000800000268000100000000000000004000f000000070a9b53
:09291900acc00001400340fa00cb
:202922000000010020189ee00004000002f980004000000000000000200ef0400000801130
:0a294200aff8000400060eca000002
:20294c0000000000000d8200200001c3bcf1241000000000000003c00200500000011004ed
:09296c000c0000000001c018007d
:2029750000000180000af68000860006036e5040000000000006002001580540580080e038
:0a29950038c10860000780024420ea
:20299f000000000000076c000004000034d20080040000000000000034000000000b0f9b2e
:0929bf00b3c000403c0178c300e4
:2029c800000000000000da8200000000027d0000000000000008000060e0a5406000818185
:0a29e800af8400800000378b9000e0
:2029f20000002000000dfc1d000003402e9030800800000000800003c00000020000000c75
:092a1200280008a0020020500079
:202a1b00000003000018fe0110000020034f074000000000000c0000000000003000000379
:0a2a3b00e28100c000e017e504008e
:202a45000000000000ab42a9000001c01fd8100000000000000003c015b0d00800000006ad
:092a6500b44000000003505500cc
:202a6e00000000000500821550000006007d1240000000000000000003de5d00000018032e
:0a2a8e00f344000000000c8a500021
:202a98000000000000834025000003c60e90e000000000000000000241030000000f0d3657
:092ab80096400080002150000846
:202ac1000000000001998601908000266ecf01400000000000000000001c30420000999861
:0a2ae10026990000000647c2e0201d
:202aeb0000020000008b7500004003c21d0a400000000000000020400d9f5000000010d31e
:092b0b009500000000017050006b
:202b14000000000000018220000c000005d802430000000000000000015aa300000401c10c
:0a2b340071780002006725cf500001
:202b3e000000000000b94015000003c00f000000000000000000000301030000000100048b
:092b5e000c0000000240003000f0
:202b670000002000000006029000000402dca0000000000000000006001c30420000000080
:0a2b870070c10800e14281e3042060
:202b910000002000000b764d000000002d01400000000000000003400d9fb00000000f3edc
:092bb100100000000e026af5009c
:202bba000000010000008218d0000000281828420000000000000020615ae3000000598d42
:0a2bda0034c8000003e60d8a300045
:202be4000000000000a3e400010000001400000000000000000000000103000010030b040f
:092c0400300000001e0000300049
:202c0d00000001800000b72000060004637ca0000000000000064000001c30421a00801048
:0a2c2d007301086400e001e30420d5
:202c37000000000000a7e400000000400c8c00800000000000100003cd9f80000020893eb4
:092c57000b40000000226afb00a2
:202c60000000000000183a010000002001f8c5400030000000090000015ae3002000181d17
:0a2c80003520008000028d8e300028
:202c8a00000020000005432c00800000010c001000000000008000002d8f60800005005484
:092caa00154008000422405a0004
:202cb30000000300000006b1c08c0000001cc00200000000000c000401e97e000400800120
:0a2cd300600000c01400778050106c
:202cdd000000000090e1400001000000000a0000000000000000000000ad1000100000bc92
:092cfd003c000008002379e808fe
:202d060000000000018073a000c00c00387ca0018000000000000000014cd100000070e901
:0a2d2600eb88080000677def040051
:202d3000000000000893400000000023400000000000000000000002000c000000000a38f5
:092d50003d4000400003f8c600fc
:202d590080000000010037200080000e040000000000000000000006040cc04200000017c1
:0a2d79003a8000000000169c36109e
:202d83000002000190db7800000000001505000000000000000023c425ef70000000009035
:092da3002bc0000000005b580089
:202dac000000000007003e8200000006020aa0008000000000000006686ddc0000005808f7
:0a2dcc00797c000000003efa76005a
:202dd60000400000f0b00000000001e2f40500000000000000000000030e208010070b54fa
:092df60030c000001442705e10b0
:202dff0000062000000a0000000000140218a0000800000000000000007ce20202b800098b
:0a2e1f00ab8808000147168a142052
:202e290020000000108b43c100c00002c000000000000000000003e000ad1000000900bce3
:092e49003c000c004003c0ff092d
:202e52000300000008015a95500c0000000000000000000000000014015cd100000081a99d
:0a2e7200eb880840080205a5f004f3
:202e7c0000000000000d6b9500000363810fa4000000000000000023800300000001193897
:092e9c003d4000200403eed400c7
:202ea50000000180000073495006001e0058fa40000000000006001c040c3042000081970e
:0a2ec5003a800064026296ff0400e8
:202ecf0000000000d00b780100001740040f54000400000000000003a5ee90000007009709
:092eef004f004000803c0000008f
:202ef8000000000000005aa01000008000daa0480000000000082000006da9000004000d1f
:0a2f18006440008865464000000098
:022f22000000ad
:022f2400110298
:022f26000101a7
:202f2800000000000000000000000000000000000000000000000000000000000000000089
:092f480000000000000000000080
:202f5100000000000000000000000000000000000000000000000000000000000000000060
:0a2f71000000000000000000000056
:202f7b00000000000000000000000000000000000000000000000000000000000000000036
:092f9b000000000000000000002d
:202fa40000000000000000000000000000000000000000000000000000000000000000000d
:0a2fc4000000000000000000000003
:202fce000000000000000000000000000000000000000000000000000000000000000000e3
:092fee00000000000000000000da
:202ff7000000000000000000000000000000000000000000000000000000000000000000ba
:0a30170000000000000000000000af
:203021000000000000080000000000002000000000080000000000002000000000000080bf
:0930410000000000000200000084
:20304a00000000000000000000000000000000000000000000000000000000000000000066
:0a306a00000000000000000000005c
:2030740000000000000800000000000020000000000800000000000020000000000000806c
:0930940000000000000200000031
:20309d00000000000000000000000000000000000000000000000000000000000000000013
:0a30bd000000000000000000000009
:2030c7000000000000000000000000000000000000000000000000000000000000000000e9
:0930e700000000000000000000e0
:2030f0000000000000000000000000000000000000000000000000000000000000000000c0
:0a31100000000000000000000000b5
:20311a00000000000000000000000000000000000000000000000000000000000000000095
:09313a000000000000000000008c
:2031430000000000000000000000000000000000000000000000000000000000000000006c
:0a3163000000000000000000000062
:20316d00000000000000000000000000000000000000000000000000000000000000000042
:09318d0000000000000000000039
:20319600000000000000000000000000000000000000000000000000000000000000000019
:0a31b600000000000000000000000f
:2031c0000000000000000000000000000000000000000000000000000000000000000000ef
:0931e000000000000000000000e6
:2031e9000000000000000000000000000000000000000000080000000000000000000000be
:0a32090000000000000000000000bb
:2032130000000000000000000000000000000000000000000000000000000000000000009b
:0932330000000000000000000092
:20323c00000000000000000000000000000000000000000000000000000000000000000072
:0a325c000000000000000000000068
:20326600000000000000000000000000000000000000000000000000000000000000000048
:093286000000000000000000003f
:20328f0000000000000000000000000000000000000000000000000000000000000000001f
:0a32af000000000000000000000015
:2032b9000002000000000000000000000000000000000000000000000000000000000000f3
:0932d900000000000000000000ec
:2032e2000000000000000000000000000000000000000000000000000000000000000000cc
:0a33020000000000000000000000c1
:20330c000000000000000000000000000000000000000000000000000000000000000000a1
:09332c0000000000000000000098
:20333500000020000000000000000000000000000000000000000000000000000000000058
:0a335500000000000000000000006e
:20335f0000000000000000000000000000000000000000000000000000000000000000004e
:09337f0000000000000000000045
:20338800000000000000000000000000000000000000000000000000000000000000000025
:0a33a800000000000000000000001b
:2033b2000000000000000000000000000000000000000000000000000000000000000000fb
:0933d200000000000000000000f2
:2033db000000000000000000000000000000000000000000000000000000000000000000d2
:0a33fb0000000000000000000000c8
:203405000000000000000000000000000000000000000000000000000000000000000000a7
:093425000000000000000000009e
:20342e0000000000000000000000000000000000000000000000000000000000000000007e
:0a344e000000000000000000000074
:20345800000000000000000000000000000000000000000000000000000000000200da4632
:09347800280000000000800000a3
:2034810000000000000000000000000000000000000000000000000000000000000a49b424
:0a34a1000400000000000500000018
:2034ab000000000000000000000000000000000000000000000000000000000000000020e1
:0934cb0004006000000050100133
:2034d400800000000000000000000000000000000000000000000000000000000000000058
:0a34f400428000000000008a000082
:2034fe0000000000000000000000000000000000000000000000000000000000020adec004
:09351e0004000000000050a000b0
:203527000000000000000000000000000000000000000000000000000000000000004974c7
:0a35470002000000000000900000e8
:203551000002000000000000000000000000000000000000000000000000000002503816b8
:09357100000000000000580000f9
:20357a0000000000000000000000000000000000000000000000000000000000000a00a780
:0a359a0042c000000000070b000013
:2035a4000000000000000000000000000000000000000000000000000000000000d0f6c081
:0935c40000000000417800000045
:2035cd0000002000000000000000000000000000000000000000000000000000000f036448
:0a35ed00000000000015b00000000f
:2035f700000000000000000000000000000000000000000000000000000020000000002074
:0936170004000002bc6818100058
:20362000000000000000000000000000000000000000000000000000000000000000000189
:0a364000c3c000002bc1000a000007
:20364a0000000000000000000000000000000000000000000000000000000000000a1280c4
:09366a0004000101a8fb000000ae
:20367300000000000000000000000000000000000000000000000000000000000000a08017
:0a369300038000002a43b00000008d
:20369d000000000000000000000000000000000000000000000000000000000140005e402e
:0936bd000000010b8d7d000000ee
:2036c600c0000000000000000000000000000000000000000000000000000000000020ac58
:0a36e60000000000d0c2d000000474
:2036f0000000000000000000000000000000000000000000000000000000000001000600b3
:0937100000000001a86999800085
:203719000000000000000000000000000000000000000000080000000000000000000d017a
:0a373900428000001954f500000062
:2037430000000000000000000000000000000000000000000000000000000000010f120044
:093763006000610b8df800b0015b
:20376c0080000000000000000000000000000000000000000000000000000000000f0000ae
:0a378c0000000000d0c28009000018
:2037960000000000000000000000000000000000000000000000000000000000030a12f400
:0937b60000000001a86959a000ff
:2037bf0000000000000000000000000000000000000000000000000000000000000a007868
:0a37df00400000001965f000000032
:2037e90000020000000000000000000000000000000000000000000000000000010f168612
:093809000000010b8df800100015
:2038120000000000000000000000000000000000000000000000000000000000000f004146
:0a38320040000000d0c2900a000020
:20383c000000000000000000000000000000000000000000000000000000000000aa1000b2
:09385c0000000008377f000000a5
:203865000000200000000000000000000000000000000000000000000000000000055024aa
:0a38850000000000e3c4f0000000a2
:20388f000000000000000000000000000000000000000000000000000000000002007ac0dd
:0938af00000000000000180000f8
:2038b80000000000000000000000000000000000000000000000000000000000000f006081
:0a38d80000000000000000000000e6
:2038e2000000000000000000000000000000000000000000000000000000000000001ac6e6
:0939020000000001a87d000a008c
:20390b00000000000000000000000000000000000000000000000000000000000000296c07
:0a392b00000000001975f0004000d4
:20393500000000000000000000000000000000000000000000000000000000000220fbe075
:093955002000010b8df91810008f
:20395e00c0000000000000000000000000000000000000000000000000000000000a0f6c04
:0a397e0044000000d0c2d08800040d
:2039880000000000000000000000000000000000000000000000000000000000000000001f
:0939a800000000000000580000be
:2039b1000000000000000000000000000000000000000000000000000000000000000000f6
:0a39d10000000000000000000000ec
:2039db000000000000000000000000000000000000000000000000000000000000000000cc
:0939fb00000000000000000000c3
:203a04000000000000000000000000000000000000000000000000000000000000000000a2
:0a3a24000000000000000000000098
:203a2e00000000000000000000000000000000000000000000000000000000000000000078
:093a4e000000000000000000006f
:203a570000000000000000000000000000000000000000000000000000000000000000004f
:0a3a77000000000000000000000045
:203a81000002000000000000000000000000000000000000000000000000008000000000a3
:093aa1000000000000000000001c
:203aaa000000000000000000000000000000000000000000000000000000001000000000ec
:0a3aca0000000000000000000000f2
:203ad4000000000000000000000000000000000000000000000000000000000000000000d2
:093af400000000000000000000c9
:203afd00000020000000000000000000000000000000000000000000000000000000000089
:0a3b1d00000004000000000000108a
:203b270000000000000000000000000000000000000000000000000000000000000000007e
:093b470000000000000000000075
:203b5000000000000000000000000000000000000000000000000000000000000000000055
:0a3b7000000000000000000b000040
:203b7a0000000000000000000000000000000000000000000000000000000000000000002b
:093b9a0000000200004f01c00010
:203ba300000000000000000000000000000000000000000000000000000000000000000002
:0a3bc30000000080011fc510001073
:203bcd000000000000000000000000000000000000000000000000000000000000000000d8
:093bed00000000000000000000cf
:203bf6000000000000000000000000000000000000000000000000000000000000000000af
:0a3c160000000000000000000000a4
:203c200000000000000000000000000000000000000000000000a03df00000030e2c570023
:093c40000000000000000000007b
:203c49004000000000000000000000000000000000000000080042abfc000000000043786f
:0a3c6900024000000000000000000f
:203c73000000000000000000000000000000001800000000000000000800189800a07a76d1
:093c93000070600000000011c186
:203c9c008000000000000000000000000000900000000000000000000070e010080000ade3
:0a3cbc0040000000000000080000b6
:203cc60000000000000000000000000000000000000000000000001df01a000000109ec049
:093ce600040000000000180000b9
:203cef00c000000000000000000000000000000000000000000001403c000000000009b0bf
:0a3d0f0003c0000000000000000cdb
:203d19000002000000000000000083cc000000000000000000002667c000014000000000ab
:093d39002c000003fb7998180826
:203d420000000000000000000000203c0000000000000000000002ffcf00f008000000033a
:0a3d6200c68000003fdea10a4140c8
:203d6c0000000000000000000000000000000000000000000014804ce81c00000000000053
:093d8c000002010900e000000042
:203d95000000200000000000004000000000e00100000000000002040d10000100000003a6
:0a3db500c38004022000d5000010b6
:203dbf00000000000000000000002a8f80010000000000000000815410000000000536cebc
:093ddf00003000016b790185c878
:203de8000000000000000000000002a80000d00000000000000010280a00d0000085f0b802
:0a3e080002005000161ea000a100e9
:203e1200000000000000000000118f0000000000000000000004a03dff0000000000000010
:093e32002040000821fa300000d4
:203e3b000000000000000000004000f00000000100000000000002827cf0d0100000000066
:0a3e5b00040004002877d0000010d6
:203e6500000000000000000000000000000000000000000000002f7dc100400010af3edcb7
:093e85000470000882db0000005b
:203e8e00c000000000000000000000000000000000000000000003dfefb802000000a03ced
:0a3eae0063c00020381fad0b0004b4
:203eb80000000000000000000000244c91800000000000000000074cd00a00000a0177209a
:093ed8000000021afdea000400da
:203ee100000000000000000000000285fd00000000000000000202b66f51d0c0000815a670
:0a3f01004000008016cfb000000061
:203f0b000000000000000000001080961000001800000000000000000000201800f7f62003
:093f2b00640060037fd911e0017c
:203f34008000000000000000000000040bd0b000000000000000000000700000004ff1eac4
:0a3f5400464000002a9e8f9c0000ea
:203f5e00000000000000068000000036d18000000000000000000000000100004800774036
:093f7e006c00000000cf100000ef
:203f8700000000000000000000000103f900000000000000000000000000e0002002806239
:0a3fa700c240002028009f800000a7
:203fb1000002000000000000001093d419980000000000000001010ce500080040e75f6cd9
:093fd10039000002bcea00040200
:203fda0000000000000000000000023c2fd000000000000000000001d8f0b400008df06d23
:0a3ffa00402020222bc30500a00088
:2040040000000000000000000000397ed3000000000000000000277fa78c400090ff775c97
:0940240004000402bcc059a00014
:20402d000000200000000000000001007b50000000000000000003be4808e004000f5060d3
:0a404d000380008017c2b00d0000d0
:2040570000000000000000000010315ca800000000000010001010dde0004020c07a7056b7
:094077006800020014ff8000c87b
:20408000000000000000002c0000031410100000000000028000010c10020200080b502e89
:0a40a0004000000017c0b509010040
:2040aa0000000000000000000000141ef01800000000000000001e95b30da04044cf5014f2
:0940ca00640082083c6010100043
:2040d3000000000000000000000002943950000000000000000001d25f019400080cf08063
:0a40f300c200000003c2008a0000b2
:2040fd0000000000a3a8000000002806cd800000000000000035bf9fa70f100000005b0029
:09411d0000000000000081a00870
:20412600000000000a0000000000028030f0000000000000400003f81000d000000050b4ae
:0a4146000000000000000d08010059
:20415000000000000000000000008295a00a00000000000000001eaf9000000102a77840cf
:094170000000000005cc800000f5
:204179004000000000000000000040000a00000000000000080201d3fd00f1400185b9341d
:0a41990040000004003ddf000000bc
:2041a30000000000000000000600bfc6a00000180000000000000437d78e001802af3a0016
:0941c3000400601000fa00100174
:2041cc008000000000000000000006bc0a00a0000000000040000001dc08f000000af0c315
:0a41ec0043c000000141c7080000b5
:2041f6000000012507b0000000000000050a000000000000000016ffd00e000000000000ca
:09421600000000000ac150000084
:20421f0080000009f503c000000000000000a000000000000000011ffb01f800000000008a
:0a423f00000000000074c000000c35
:2042490000020000000000000000000000000000000000000050805c178e00000000000082
:09426900000001000478180000b7
:204272000000000000000000000000000050a00000000000000040082809000000000000c3
:0a429200000000020001d00000004f
:20429c0000000000000006000001abd68000000000000000000082941000000000000000d4
:0942bc000000000005de50a00026
:2042c5000000200000000040000000280b000000000000000000001408000000000000002a
:0a42e50000060000003ddd9000001f
:2042ef00000000000000000000000000000000000000000000002806818e00000000000072
:09430f000000030004581801c865
:20431800000000000000000000000000000000000000000000000280009800000000000269
:0a433800c00000200003d00b0000bd
:2043420000000000000060000001b456e00000000000000000108f0007000000000000006a
:0943620038350203f9de381000c1
:20436b0000000000000002000000410b6a00c00000000000000200f00000000000000000c8
:0a438b00064000003ffdd08901004c
:204395000000000000000040030000000000000c000000000000aa86a180000200fa1b80d1
:0943b5000002230a15f900e000e2
:2043be00c000000000000024001000000000000040000000000002a80070e000000ff0b8fa
:0a43de00038042261e81d500000472
:2043e80000000000000000000001a940800a0000000000000000041e998000000001bbc684
:0944080000001012befc181000a7
:204411000000000000000000000002940000000000000000000040027a100000000005fe26
:0a443100c000000037d5d00a0000db
:20443b00000000000000000000000000000000180000000000002916900000184080324030
:09445b002500600280fc51d8002c
:2044640000000000000000000000000000000000000000000000029e5f00000000000070c9
:0a448400060000001681b01ac00007
:20448e0000000000000000000000000000000000000000000010a00ce000014040c73a40b0
:0944ae0004013102045e81a40046
:2044b7000000000000000000000000000000000000000000000a03801f000088008c30e213
:0a44d70043c003020083e500a000cb
:2044e10000020000000000000000000000000000000000000004909cf5184000000032000a
:0945010020220002a96859c00043
:20450a000000000000000000000000000000000000000000000221226fd80a000000157c6a
:0a452a00040040002a820000000097
:204534000000000000000000000000000000000000000000000017de9018000000019bc06e
:094554003c00010001f981f000b6
:20455d000000200000000000000000000000000000000000000002803a010000000003342a
:0a457d000784000033c3e9090000c1
:20458700000000000000000000000000000000000000000000718296e000000000053f2641
:0945a7006080010009ed1980009b
:2045b0000000000000000000000000000000000000000000000000901c000000000000ac93
:0a45d00063d000021042fd1b8000c2
:2045da0000000000000000000000000000000000000000000020829ec918000082a7d36e36
:0945fa000000000014d801e000eb
:204603000000000000000000000000000000000000000000400241402f19800001858537ca
:0a462300c3c00000014000000000c9
:20462d00000000000000000000000000000000000000000000003fe5a82040000804bf1c5a
:09464d0000013100046b98a0008b
:204656000000000000000000000000000000000000000000000202b77e10000000005bb8e8
:0a46760020000100000099900000f0
:02468000000038
:02468200110322
:02468400010132
:20468600000000000000000000000000000000000000000000000000000000000000000014
:0946a6000000000000000000000b
:2046af000000000000000000000000000000000000000000000000000000000000000000eb
:0a46cf0000000000000000000000e1
:2046d9000000000000000000000000000000000000000000000000000000000000000000c1
:0946f900000000000000000000b8
:20470200000000000000000000000000000000000000000000000000000000000000000097
:0a472200000000000000000000008d
:20472c0000000000000000000000000000000000000000000000000000000000000000006d
:09474c0000000000000000000064
:20475500000000000000000000000000000000000000000000000000000000000000000044
:0a477500000000000000000000003a
:20477f0000000000000800000000000020000000000800000000000020000000000000804a
:09479f000000000000020000000f
:2047a8000000000000000000000000000000000000000000000000000000000000000000f1
:0a47c80000000000000000000000e7
:2047d2000000000000080000000000002000000000080000000000003000000000000080e7
:0947f200000000000003000000bb
:2047fb0000000000000000000000000000000000000000000000000000000000000000009e
:0a481b000000000000000000000093
:20482500000000000000000000000000000000000000000000000000000000000000000073
:094845000000000000000000006a
:20484e00000000000000000000000000000000000000000002000000000000000000000048
:0a486e0000000000000000000080c0
:20487800000000000000000000000000000000000000000000000000000000000000000020
:0948980000000000000000000017
:2048a1000000000000000000000000000000000000000000020000000000000000000000f5
:0a48c100000000000000000000806d
:2048cb000000000000000000000000000000000000000000000000000000000000000000cd
:0948eb00000000000000000000c4
:2048f4000000000000000000000000000000000000000000010000000000000000000000a3
:0a4914000000000000000000004059
:20491e00000000000000000000000000000000000000000000000000000000000000000079
:09493e0000000000000000000070
:20494700000000000000000000000000000000000000000000000000000000000000000050
:0a4967000000000000000000000046
:20497100000000000000000000000000000000000000000000000000000000000000000026
:094991000000000000000000001d
:20499a000000000000000000000000000000000000000000000000000000000000000000fd
:0a49ba0000000000000000000000f3
:2049c4000000000000000000000000000000000000000000000000000000000000000000d3
:0949e400000000000000000000ca
:2049ed000000000000000000000000000000000000000000000000000000000000000000aa
:0a4a0d00000000000000000000009f
:204a170000020000000000000000000000000000000000000000000000000000000000007d
:094a370000000000000000000076
:204a4000000000000000000000000000000000000000000000000000000000000000000056
:0a4a6000000000000000000000004c
:204a6a0000000000000000000000000000000000000000000000000000000000000000002c
:094a8a0000000000000000000023
:204a93000000200000000000000000000000000000000000000000000000000000000000e3
:0a4ab30000000000000000000000f9
:204abd000000000000000000000000000000000000000000000000000000000000000000d9
:094add00000000000000000000d0
:204ae6000000000000000000000000000000000000000000000000000000000000000000b0
:0a4b060000000000000000000000a5
:204b1000000000000000000000000000000000000000000000000000000000000000000085
:094b30000000000000000000007c
:204b390000000000000000000000000000000000000000000000000000000000000000005c
:0a4b59000000000000000000000052
:204b6300000000000000000000000000000000000000000000000000000000000000000032
:094b830000000000000000000029
:204b8c00000000000000000000000000000000000000000000000000000000000000000009
:0a4bac0000000000000000000000ff
:204bb6000000000000000000000000000000000000000000000000000000000000000000df
:094bd600000000000000000000d6
:204bdf000800000000000000000000000000000000000000000000000000000000000000ae
:0a4bff0000000000000000000000ac
:204c090080000000000000000000000000000000000000000000000000000000000000000b
:094c290000000000000000000082
:204c3200000000000000000000000000000000000000000000000000000000000000000062
:0a4c52000000000000000000000058
:204c5c00000000000000000000000000000000000000000000000000000000000000000038
:094c7c000000000000000000002f
:204c850004000000000000000000000000000000000000000000000000000000000000000b
:0a4ca5000000000000000000000005
:204caf000002000000000000000000000000000000000000000000000000000000000000e3
:094ccf00000000000000000000dc
:204cd8000000000000000000000000000000000000000000000000000000000000000000bc
:0a4cf80000000000000000000000b2
:204d0200000000000000000000000000000000000000000000000000000000000000000091
:094d220000000000000000000088
:204d2b00000020000000000000000000000000000000000000000000000000000000000048
:0a4d4b00000000000000000000005e
:204d550000000000000000000000000000000000000000000000000000000000000000003e
:094d750000000000000000000035
:204d7e00000000000000000000000000000000000000000000000000000000000000000015
:0a4d9e00000000000000000000000b
:204da8000000000000000000000000000000000000000000000000000000000000000000eb
:094dc800000000000000000000e2
:204dd1000000000000000000000000000000000000000000000000000000000000000000c2
:0a4df1000000000000000020000098
:204dfb00000200000000000000000000000000000000000080000000000000000000000016
:094e1b000000000000000000008e
:204e240000000000000000000000000000000000000000000000000000000000000000006e
:0a4e44000000000000000000000064
:204e4e0000000000000000000000000000000000000000000000000000000004031a0340e0
:094e6e0040003000c020f0a0005b
:204e7700c0000000000000000000000000000000000000000000000000000000c4202564ee
:0a4e9700078003500c06059d000c77
:204ea100000000000000000000000000000000000000000000000000000e000018a0000229
:094ec10040000001080a10c004c1
:204eca0000000000000000000000000000000000000000000000000000001000000a01e8c5
:0a4eea00e6800010389ee81e00006c
:204ef400000000000000000000000000000000000000000000000000000080400000002cb2
:094f140000000002801010a00052
:204f1d00000000000000000000000000000000000000000000000000000000000000000371
:0a4f3d00e0000001280fe801000069
:204f47000002000000000000000000000000000000000000000000000000000000300b40cd
:094f670000002012803030e1004e
:204f70000000000000000000000000000000000000000000000000000001e00004035325c1
:0a4f900060000320281ee800000066
:204f9a0000000000000000000000000000000000000000000020068fe000000000b8968094
:094fba003c00000095c800d08005
:204fc30000002000000000000000000000000000000000000000489858000000000fada911
:0a4fe30042c00004098680010000ae
:204fed00000000000000000000000000000000000000000000000000000000000070dad486
:09500d002800300c69dc000000f1
:2050160080000000000000000000000000000000000000000000000000000000000eab2918
:0a503600470003008097e00800081f
:205040000000000000000000000000000000000000000000000000000500000100470b40b8
:09506000200008126c3950e00038
:20506900000000000000000000000000000000000000000000000000000000018c0813b9c6
:0a5089004240069129c7c00000183c
:205093000000000000000000000000000000000000000000000000000900000000050800e7
:0950b300000000006adcf0a0001e
:2050bc00000000000000000000000000000000000000000000000000000000000000552857
:0a50dc00028000200997e98a000015
:2050e60000000000000000000000000000000000000000000000000000000141008113a430
:0951060040001403fc1c008000b1
:20510f00c0000000000000000000000000000000000000000000000000000008102e2da2ab
:0a512f00028003003e9ca01f000c4c
:205139000000000000000000000000000000000000000000000401cfa000001000000000d2
:09515900380040022c0f10800008
:205162000000000000000000000000000000000000000000000000064a00000000000000dd
:0a51820000000010109deb1e00005d
:20518c00000000000000000000000000000000000000000000000000000c000001500c3466
:0951ac00000000409000500000da
:2051b50000000000000000000000000000000000000000000000000000000000002501f0c4
:0a51d5000600001009008000000031
:2051df0000020000000000000000000000000000000000000000000000000011000a06404d
:0951ff00b80044130f5e500001da
:2052080000000000000000000000000000000000000000000000000000000000004003b192
:0a52280040000000008cc59a000051
:2052320000000000000000000000000000000000000000000000000000000000104253c0f7
:095252006c00044202dc50000073
:20525b0000002000000000000000000000000000000000000000000000000000012e25348b
:0a527b0007801000211ca0000000b5
:205285000000000000000000000000000000000000000000000000000500000001da3a806f
:0952a5002800000cb02d0080006f
:2052ae008000000000000000000000000000000000000000000000000081a000002d97a8d3
:0a52ce0006c000108116b12100088f
:2052d80000000000000000000000000000000000000000000000000000000000002572948b
:0952f800340100006afc00000012
:2053010000000000000000000000000000000000000000000000000000000000082261fe03
:0a53210006c006000614c0000018c4
:20532b000000000000000000000000000000000000000000800000000080000001bd72042e
:09534b00380000002820709000d9
:20535400000000000000000000000000000000000000000000000000005000002021ddbe0d
:0a53740000000000029c80190000f8
:20537e000000000000000000000000000000000000000000200000000300000880000f4015
:09539e004000300968090000001c
:2053a70044000000000000000000000000000000000000000000000000800000c0005568a5
:0a53c70003000320a9400000000cc1
:2053d10080000000000000000000000000000000000000000000000000000010000000002c
:0953f100010040037c2b50000177
:2053fa00000000000000000000000000000000000000000000000000000000000000000192
:0a541a00c02800303bcc1800000051
:20542400000000000000000000000000000000000000000000000000001f000000009ac0ef
:0954440074000000040000a00047
:20544d000400000000000000000000000000000000000000000000000000a000000801a4ee
:0a546d0002c00010004f8180000013
:205477000000000000000000000000000000000000000000000000000d00001000000002f6
:0954970024004000007df8f00142
:2054a0000000000000000000000000000000000000000000000000000000000000000001eb
:0a54c00060000000080f8b8100005f
:2054ca000000000000000000000000000000000000000000000000000000000000a00b6ea9
:0954ea0028000001680d000e000d
:2054f300000000000000000000000000000000000000000000000000000000000005f5326d
:0a551300e0280000000095000000f1
:20551d000000000000000000000000000000000000000000000000000000000000470e42d7
:09553d0000003203bc2c00000048
:2055460080000000000000000000000000000000000000000000000000000000044425a4b4
:0a556600600003112bdc91800408a3
:205570000000000000000000000000000000000000000000000000000000000000000a66ab
:0955900038000002003950a000af
:2055990000000000000000000000000000000000000000000000000000000001800f01a5bc
:0a55b900400006100006bd9b00181c
:2055c300000000000000000000000000000000000000000000000281d0000000032c130231
:0955e3002c70000102ec91d000d3
:2055ec00000000000000000000000000000000000000000000004800fe00000000204df5f7
:0a560c004000000000058588000042
:205616000000000000000000000000000000000000000000000000000010000010f0001e46
:0956360040000802903019000048
:20563f0000000000000000000000000000000000000000000000000000018000102f078004
:0a565f00e3800010290d850a008089
:205669000000000000000000000000000000000000000000000000000000000204520a1ea1
:095689007000000002fc00b000fa
:20569200000000000000000000000000000000000000000000000000000000000420273d70
:0a56b200c20000200227f5000000ee
:2056bc00000000000000000000000000000000000000000000000000009f8000003f1b7ed7
:0956dc0040000400281cf08000cd
:2056e5000000000000000000000000000000000000000000000000000070a08000003f6076
:0a5705004280000017def00a0000e9
:20570f000002000000000000000000000000000000000000000000000000000080e70f6c96
:09572f0000000000002cd0d000a5
:20573800000000000000000000000000000000000000000000000000000000000c0e35f50d
:0a575800630000142006f0011c009d
:205762000000000000000000000000000000000000000000000414829000000000d1bbd49d
:0957820000000002802f08000065
:20578b000000200000000000000000000000000000000000000328086a000008100a0fbe52
:0a57ab0000000000140e17000000bb
:2057b500000000000000000000000000000000000000000000001681c000000080ef0340cb
:0957d500000000010ceb300000a3
:2057de00000000000000000000000000000000000000000000000154e9008000040af3b03c
:0a57fe00000000002f54900010007e
:205808000000000000000000000000000000000000000000000000000500804000fa0c14a1
:0958280078000000b82c98000083
:2058310000000000000000000000000000000000000000000200000000000101800fa3e23f
:0a58510002c00610075e15000000fb
:20585b00000200000000000000000000000000200000000080000003e000000000000000a8
:09587b000000000290eb010000a6
:205884000000000000000000000000000000000000000000000201405d180000000000004c
:0a58a4000000000016d4900e000072
:2058ae000000000000000000000000000000000000000000000017c097190008000cfa4401
:0958ce0028000010b37f50a01067
:2058d700000000000000000000000000000000000000000000001abde1819000c92285a3d5
:0a58f70066c00000882fa0010080a9
:2059010000000000000000000000000000000000000000000023101d8000000910a00fd41a
:095921000002005050c8f0000023
:20592a000000000000000000000000000000000000000000000008034b000000c020a7b7c9
:0a594a00600040008916980000007c
:20595400000000000000000000000000000000000000000000001080a00f000100c01b40d8
:0959740000700002c1fc500000ab
:20597d000000000000000000000000000000000000000000000102040100000000260ff8d5
:0a599d0000050000042fb81a0000f6
:2059a70000020000000000000000000000000000000000000000014300000021000cf3d4a6
:0959c70000000003034d009000f4
:2059d0000000000000000000000000000000000000000000000000157e00080000228dfb72
:0a59f000660000011e2ff000000009
:2059fa00000000000000000000000000000000000000000000000006950a000008840bc091
:095a1a0020000802800ff0f000ea
:205a230000002000000000000000000000000000000000000000180968d9b0802420a520a8
:0a5a43006040000414061181000009
:205a4d00000000000000000000000000000000000000000020002bc2071a00000005000006
:095a6d0020000040cb4d000000b8
:205a7600000000000000000000000000000000000000000001000abc7e01c000000053288f
:0a5a960060400000012ff00018002e
:205aa000000000000000000000000000000000000000000000000000e00da00004f00b005a
:095ac00000800002f1fc00d0009e
:205ac9000000000000000000000000000000000000000000000908816b10140188200320d0
:0a5ae9000600060210afb00100181d
:205af300000000000000000000000000000000000000000000003d43000a0001002cb2002a
:095b130020000002a34d01000076
:205b1c000000000000000000000000000000000000000000000003d57e59b00000a203293c
:0a5b3c00400000000e2ff00aa00048
:205b4600000000000000000000000000000000000000000000402bc1e10e01040418000003
:095b66003c001000000c90a000ae
:205b6f00440000000000000000000000000000000000000000040a80db919008c4218020bb
:0a5b8f0000400b00a941a80a000c19
:205b99008000000000000000000000000000000000000000000103f6c000000000f01300af
:095bb900000000001400000000cf
:205bc200000000000000000000000000000000000000000000040a3bfe000000000f2fe05e
:0a5be200000000008154c00008001c
:205bec00000000000000000000000000000000000000000000040001f01000000080020012
:095c0c0000008001543d109400d9
:205c1500040000000000000000000000000000000000000000000140db78e08004400364cc
:0a5c3500000200002955d999200053
:205c3f000002000000000000000000000000000000000000000020c0e70f00000080d2c05b
:095c5f0028000043fc1c100000a9
:205c680000000000000000000000000000000000000000000005010ce180d00000000d20ac
:0a5c8800000040101d0ff81e002060
:205c92000000000000000000000000000000000000000000000037cea50c000000025a02de
:095cb200028200002839090000fb
:205cbb000000200000000000000000000000000000000000000003556d18b0000000150106
:0a5cdb00401050002bcca50a000079
:205ce500000000000000000000000000000000000000001000005d2df00000000000000213
:095d05002c000000300000b20087
:205d0e00000000000000000000000000000000000000000200041af47900000000000001e7
:0a5d2e0040000010830c05804000c7
:205d3800000000000000000000000000000000000000000000000001d000000008420380ad
:095d58006c000000a05e000000d8
:205d61000000000000000000000000000000000000000000000140816979e00184281004dd
:0a5d810002800600015fb000001868
:205d8b00000200000000000000000000000000000000000080203d430500000000b4d2c08b
:095dab006a0000002b4e08000004
:205db4000000000000000000000000000000000000000000000003d568500000000ded2025
:0a5dd40002c0210020fe9708000421
:025dde000000c3
:035de00062003f1f
:035de300720080cb
:025de6001100aa
:035de80082000036
:025deb000103b2
:085ded00000000000c000000a2
:085df500000000000c0000009a
:085dfd00000000000c00000092
:085e0500000000000c00000089
:085e0d00000000000c00000081
:085e1500000000000c00000079
:085e1d00000000000c00000071
:085e2500000000000c00000069
:085e2d00000000000c00000061
:085e3500000000000c00000059
:085e3d00000000000c00000051
:085e4500000000000c00000049
:085e4d00000000000c00000041
:085e5500000000000c00000039
:085e5d00000000000c00000031
:085e6500000000000c00000029
:085e6d00000000000c00000021
:085e7500000000000c00000019
:085e7d00000000000c00000011
:085e8500000000000c00000009
:085e8d00000000000c00000001
:085e9500000000000c000000f9
:085e9d00000000000c000000f1
:085ea500000000000c000000e9
:085ead00000000000c000000e1
:085eb500000000000c000000d9
:085ebd00000000000c000000d1
:085ec500000000000c000000c9
:085ecd00000000000c000000c1
:085ed500000000000c000000b9
:085edd00000000000c000000b1
:085ee500000000000c000000a9
:085eed00000000000c000000a1
:085ef500000000000c00000099
:085efd00000000000c00000091
:085f0500000000000c00000088
:085f0d00000000000c00000080
:085f1500000000000c00000078
:085f1d00000000000c00000070
:085f2500000000000c00000068
:085f2d00000000000c00000060
:085f3500000000000c00000058
:085f3d00000000000c00000050
:085f4500000000000c00000048
:085f4d00000000000c00000040
:085f5500000000000c00000038
:085f5d00000000000c00000030
:085f6500000000000c00000028
:085f6d00000000000c00000020
:085f7500000000000c00000018
:085f7d00000000000c00000010
:085f8500000000000c00000008
:085f8d00000000000c00000000
:085f9500000000000c000000f8
:085f9d00000000000c000000f0
:085fa500000000000c000000e8
:085fad00000000000c000000e0
:085fb500000000000c000000d8
:085fbd00000000000c000000d0
:085fc500000000000c000000c8
:085fcd00000000000c000000c0
